:020000041000EA
:1000000000000228553B0010014000105D3E00102A
:1000100000000000000000000000000000000000E0
:10002000000000000000000000000000E53E00109D
:100030000000000000000000054000100940001012
:1000400089360010AF360010D5360010FB36001090
:1000500021370010473700106D370010933700101C
:100060000D40001011400010154000101940001004
:100070001D400010214000102540001029400010B4
:1000800010B5022801D3012010E00B00DBB2042BD5
:1000900001DB01200AE09C4C042358432018C9B21C
:1000A000405C824201D3012000E0002010BDF8B581
:1000B00004001E00022C01D301203EE0150068461A
:1000C00001702A00684601782000FFF7D9FF012857
:1000D00001D1012031E03300069F684600780228F4
:1000E0002ED180204002834228D2202F26D2874E54
:1000F0008020800160433018042169434118C020EA
:10010000400108180168824A0A401902814B0B40DD
:1001100013430360802080014443301904214D4380
:100120004119C020400108180168F8229143FA00E3
:10013000F82313400B4303600020F2BD0120FCE7CD
:1001400068460078032829D180204004834223D2C6
:10015000202F21D2802080016C49220042438E183A
:1001600004226A43B618E0225201B2181668F6B2A9
:100170001B023343136044430919042045434819C3
:10018000E021490140180168F8229143FA00F82360
:1001900013400B430360CFE70120CEE70120CCE7FB
:1001A00000B20012C0B27047F8B505000F0016008B
:1001B000280000B2FFF7F4FF04002000C0B20228BC
:1001C00001D3012032E032003900C9B22000C0B2B0
:1001D000FFF756FF012801D1012027E080239B0172
:1001E0004A482100C9B2594341188C462A00D2B26C
:1001F00004214A4361468A18C02109015158AF4A77
:100200000A40FFB23902C027BF000F401743FF2149
:100210008F43F1B23943E4B25C430219EDB20420DA
:1002200045435219C020000111500020F2BD70B5A5
:100230000400022C01D301202CE015000E002A003E
:100240003100C9B22000FFF71BFF012801D10120B6
:1002500020E0802189012D4A200048431358802046
:1002600000061843C0239B040343FF2000041843E7
:10027000924B0340F6B23602C02080003040184353
:10028000FF239843EBB203432000484313504C43F1
:100290001059002070BDD021890040587047C221FC
:1002A00089004058C005C00D7047902292008150CF
:1002B0007047822189004058C005C00D70478221D7
:1002C0008900415808000004C00F704738B5050088
:1002D0002800FFF7EEFF04002800FFF7F0FF2018CA
:1002E000002801D1012000E00020C0B232BD894ABF
:1002F00081507047874940587047874A81507047FE
:100300008549405870470000A03F0010000004409D
:10031000FF0000FF00FFFF00026880210906114373
:100320000160704738B504001500C9B2002906D035
:1003300002291CD00FD3042931D024D33BE07748C5
:10034000A06001202073112060738C204000E081A8
:100350001220208234E07248A06001202073112016
:100360006073FF201E30E0816B20208228E06D4802
:10037000A06001202073112060738E204000E08176
:100380006A2020821CE06848A060022020731120AF
:100390006073FF201C30E0816920208210E0B148AA
:1003A000A06001202073132060738D204000E08145
:1003B0006820208204E07C22AB49002000F046FC4B
:1003C000EDB2002D06D0022D1CD00FD3042D31D05C
:1003D00024D33BE05148206000202071112060713F
:1003E0008C204000E0811220208234E04C482060C4
:1003F0000020207111206071FF201E30E0816B20F1
:10040000208228E047482060002020711120607180
:100410008E204000E0816A2020821CE0424820605B
:100420000120207111206071FF201C30E0816920C3
:10043000208210E08B482060002020711320607122
:100440008D204000E0816820208204E0A8228649B7
:10045000002000F0FBFB31BD10B5C0B2002806D073
:10046000022808D005D3042809D006D309E07F4C20
:100470000CE07F4C0AE07F4C08E07F4C06E0C44C67
:1004800004E0BD227849002000F0E0FB200010BD10
:1004900038B50500BF4CC9B22A00D2B2042042438D
:1004A000A058FFF702FF2900C9B204204143605859
:1004B000FFF70CFF0028F6D031BD0000FFFCFFFF66
:1004C00038B505000C0005E021782800C0B2FFF720
:1004D000DFFF641C20780028F6D131BDF8B5040098
:1004E0000F0000263000AB4D2100C9B2042041436B
:1004F0006858FFF7D4FE002808D0E4B20420444333
:100500002859FFF7C8FE3870012000E03000C0B263
:10051000F2BD0000C80F0000880F0000000031404D
:1005200000023140000531408008314070B50500BF
:100530000E00984C2900C9B2042041436058FFF7CF
:10054000DFFE0121884301002A00D2B20420424389
:10055000A058FFF7D2FE2900C9B2042041436058D9
:10056000FFF7CEFE0221884301002A00D2B2042008
:100570004243A058FFF7C1FE2900C9B204204143FD
:100580006058FFF7BDFE2021884301002A00D2B247
:1005900004204243A058FFF7B0FE2800C0B2042157
:1005A00048432058FFF7ACFE4021884301002A0051
:1005B000D2B204204243A058FFF79FFE2800C0B2E9
:1005C000042148432058FFF79BFE10218843010077
:1005D0002A00D2B204204243A058FFF78EFE290021
:1005E000C9B2042041436058FFF78AFE6A490140BE
:1005F0002A00D2B204204243A058FFF77EFE280012
:10060000C0B2042148432058FFF77AFE63490140F5
:100610002A00D2B204204243A058FFF76EFE002EFB
:1006200010D02900C9B2042041436058FFF762FE90
:10063000802189000143EDB2042045436059FFF752
:100640005CFE0EE02900C9B2042041436058FFF768
:1006500051FE53490140EDB2042045436059FFF774
:100660004CFE70BD00073140683D00100000604046
:1006700000006540000064400000634070B5050064
:100680000E00444C2900C9B2042041436058FFF7D2
:1006900031FE0121884301002800C0B204225043EA
:1006A0002058FFF724FE2900C9B2042041436058B6
:1006B000FFF720FE0821884301002800C0B2042271
:1006C00050432058FFF713FE2800C0B204214843CE
:1006D0002058FFF70FFE2021884301002A00D2B2E4
:1006E00004204243A058FFF702FE2900C9B20420AB
:1006F00041436058FFF7FEFD274901402A00D2B26E
:1007000004204243A058FFF7F2FD2900C9B204209B
:1007100041436058FFF7EEFD214901402A00D2B263
:1007200004204243A058FFF7E2FD2800C0B2042194
:1007300048432058FFF7DEFD7A4901402A00D2B233
:1007400004204243A058FFF7D2FD002E0FD029000D
:10075000C9B2042041436058FFF7CCFD0421014396
:10076000EDB2042045436059FFF7C1FD0FE02900B9
:10077000C9B2042041436058FFF7BCFD04218843FF
:100780000100EDB2042045436059FFF7B0FD70BD94
:10079000000062400C0F0028FFFEFFFFFFFBFFFF81
:1007A000FFFDFFFFF1B5A8B00C00160028A80078E7
:1007B0003100C9B2884201D1012000E00020694621
:1007C0000B70594DCE2252002900C0B200F03EFA03
:1007D00028A8007869460978884201D1012000E004
:1007E00000200194FF229E322900C0B200F02EFAB0
:1007F00002A8142100F0BCFA342100273A001AACF8
:10080000200000F0A5FA4C213A0007AC200000F0CF
:100810009FFA019A0820424300234448002100F037
:10082000C0FA0190684602783100C9B202A8FFF709
:1008300079FD08241B941AAE02AD687930721AAAA9
:100840002979029800F078FB06201B9068793072B5
:100850001AAA297B049800F06FFB07970894099463
:1008600002200B900C9712971497314C28A801780E
:1008700004204143605800F051FD2E4828A90A7811
:1008800038214A43821807A928A803780420434343
:10089000E05800F091FB28A8007804214843205834
:1008A000FFF73AFD28A8027803210E20285EFFF703
:1008B0007BFC0E20285EFFF773FC0199C906C90E68
:1008C0000091019949090B021B0A28A90A78032102
:1008D000C0B2FFF7ECFB0E20285EFFF761FC28A9F1
:1008E0000A780321C0B2FFF7A2FC6846298A01807A
:1008F000032141800121017107220F4828A90B78AB
:1009000004214B43C158684600F0CEFD002128A8C1
:100910000078FFF7B3FE002128A80078FFF706FE55
:1009200029B0F0BDFFF7FFFF683D001000809698EA
:100930000C0F0028240F0028F80E0028C0B5002056
:100940000190009001900AE00099491C0091009AE2
:10095000802189018A42F7D30199491C0191019AAA
:10096000802149018A4201D20090F0E703BD80B5A1
:1009700001000020FFF7A4FD01BDF3B5FFB096B064
:1009800017001C000026310068464180310068468F
:100990000180029631006846818031006846C1803E
:1009A000969800F09DFD0290A64D2888002801D061
:1009B00028698047A4480078002800D12FE10397D8
:1009C00027002888002800D10CE101980014411C60
:1009D0006A46D180959A010089B20020EB68984759
:1009E000969C969800F07CFD02906888A97900F0AA
:1009F00094FD694688802000441C00780028FAD1C4
:100A00003000694608800EE0641E20782F2802D04E
:100A100020785C2804D168460088401C694608801C
:100A20000298401E029068460088022802DA029866
:100A30000028E9D50298002805D4621C994954A8D9
:100A400000F0C6FD0EE068460088002805D12200AF
:100A5000A04954A800F0BCFD04E02200914954A82C
:100A600000F0B6FD31006846418041E068460488E8
:100A70006846008869464B8854AA80B29BB20199A7
:100A800009B24B43C018115C44A8A4B20155684692
:100A90000188491C684601806846018889B201982E
:100AA00000B281420EDA54A800F01AFD69460988A6
:100AB0006A46538889B29BB2019A12B25343C9184D
:100AC0008842D3D2300044A96A46128888540199DA
:100AD0000914481C6A46D08044AAE879414389B287
:100AE0000020EB68984768464188491C6846418069
:100AF0006846448854A800F0F3FC019909B200F05C
:100B00000FFD401CA4B2844203D23100684601802C
:100B1000C2E7039A814954A800F05AFD01990914CB
:100B2000481C6A46D08054AAE879414389B2002023
:100B3000EB689847002F72D031006846418040E052
:100B400068460088694609886A46538889B29BB21C
:100B5000019A12B25343C918795C44AA80B2115465
:100B600068460188491C684601806846018889B248
:100B7000019800B281420EDA380000F0B1FC6946FB
:100B800009886A46538889B29BB2019A12B25343CC
:100B9000C9188842D4D2300044A96A4612888854C1
:100BA000019909144A1C6846C28044AAE879414365
:100BB00089B20020EB68984768464188491C68461E
:100BC000418068464488380000F08AFC019909B2E7
:100BD00000F0A6FC401CA4B2844220D2310068463A
:100BE0000180C2E780214900320004AC200000F0FF
:100BF000AFF89598A9688847002F07D00097039B06
:100C0000969A474904A800F0E3FC05E0039B969AF6
:100C1000444904A800F0DCFC04A8A96888477FB018
:100C200018B0F0BD10B508480078002809D03F4C36
:100C300021000020FFF752FC012221003A4800F079
:100C40004CFD10BD80120028F212002838B50D00AE
:100C50001400C0B2002803D135480078002800D124
:100C600031BD34480178002900D0FEE70178491CE5
:100C7000017000F00DFC0023220029002E48FFF730
:100C80007CFEFFF75BFEF6E700210A0002802C4A9B
:100C900042808280FF228271C2718160C1600161E5
:100CA000704700007C3F0010264902880A80428875
:100CB0004A8082888A8082798A71C279CA71826800
:100CC0008A60C268CA600069086101211B4801701E
:100CD000704700005C3F001000B585B06846FFF724
:100CE000D3FF194802906846FFF7DEFF05B000BD4C
:100CF00080B5FFF7F1FF00230022E1214902002027
:100D0000FFF750FD4023114A0021074800F0AAFEDA
:100D100001210020FFF7B2FC01BD0000883F001058
:100D2000C83E0010343F001050120028F312002873
:100D3000200F0028F41200286C3F0010F212002847
:100D4000FFFF0000801200286F090010BC1100286E
:100D50001206130A1A43130C1A4300BF094205D0A6
:100D6000830707D00270401C491EF9D1704700006C
:100D70000022FFE71300103906D330B41400150029
:100D800010393CC0FCD230BC490700D30CC000D5A0
:100D900004C0890002D30280801C002900D50270A3
:100DA000704712422DD0994231D970B500251B42AF
:100DB00009D00C00002112E0110000F0B1FB0A0084
:100DC0000021002370BD0942F6D0002401264918F5
:100DD0006441944200D3A41A7641F8D3310001262D
:100DE00001E0764109D2001864416D41A41A9D4189
:100DF000F7D2A4185D41B619F5D3300022002B00BC
:100E000070BD1B42CFD108B500F04CFE08BD01D12A
:100E10009042CAD202000B000021002070470368F4
:100E20005A1C02601970704770B5604BC018C00939
:100E3000102358435E4BC31804290CD21F241D688D
:100E4000CE002000B0408543D2B21440C800844098
:100E50002C431C600CE0FC311F245D68CE00200098
:100E6000B0408543D2B21440C80084402C435C603B
:100E700070BD00B5002A03D101228A40426002E021
:100E800001228A40826000BD30B4030089000F2433
:100E90005D6C20008840854314408C402C435C648A
:100EA00030BC704730B4030001249D6C20008840A2
:100EB000854314408C402C439C6430BC704730B454
:100EC00003000124DD6C20008840854314408C40E1
:100ED0002C43DC6430BC704730B40300490010314F
:100EE0000324DD6C20008840854314408C402C4353
:100EF000DC6430BC7047426901228A40426140692B
:100F0000704730B4030001249D6920008840854368
:100F100014408C402C439C6130BC704730B40300BB
:100F2000490003241D6C20008840854314408C40F8
:100F30002C431C6430BC7047F8B504000025002C1D
:100F400030D01600002E2DD00F003268390020005E
:100F5000FFF78FFF327A39002000FFF765FF7269D3
:100F600039002000FFF79EFFB26939002000FFF72B
:100F7000A6FFF26939002000FFF7AEFF7268390062
:100F80002000FFF781FFF26839002000FFF7C6FF5D
:100F900039002000FFF7AFFF326939002000FFF76A
:100FA000B0FF00E0034D2800F2BD00000000CFBFFD
:100FB0000000304001005A00F4B588B0C94CCA4A5C
:100FC0001568CA4A12680692C94A1668C94A126860
:100FD0000592C94A12680492C84A12680392C84A24
:100FE00012680292C74A12680192C74A12680092B8
:100FF000C64A1268002800D170E10B00002B00D116
:101000006CE11968022905D12621595C002901D11A
:10101000002101E05968491E24241C5D002C01D0E8
:10102000012400E00024BA4F2F40250480246402EC
:1010300025403D43B74C2C4007940F25079C0F27B4
:10104000BC4329402143B44F39408024A4040C43BD
:10105000046019788C07A40F06990F402406C0215C
:1010600089042140394301642521595C002901D0BC
:10107000012400E0002440218E43A10140242140AE
:101080003143DC7E002C01D0012600E00026B74C65
:101090000C40B1028026F600314021435C7E002CDA
:1010A00001D0012600E00026B14C0C403102802620
:1010B0007600314021439C7E002C01D0012600E0C7
:1010C0000026AC4C214076028027BF003E400E43F4
:1010D000996B491E0D40A84931402E04F0252D037F
:1010E00035400D431969491E4907490F0726B54385
:1010F0004E07760F2E430125596929401027BE431C
:1011000009011027394031435E6976082E402027B7
:10111000B943760120273E400E438664197B00299F
:1011200001D02E0000E00026059F9149394036028B
:1011300080277F003E400E43197E002901D0290000
:1011400000E00021344049028026B60031402143AE
:101150001F249F687F1E27401F26B14327400F434F
:10116000C02189004750197FCFB2049EFF218E43D2
:10117000F9B2314320269E5DF6B2804F0F40310414
:10118000FF2636040E403E43C421890046502721E5
:10119000595C002901D02E0000E00026039F74490D
:1011A0003940360280277F003E400E431969491EB0
:1011B0004907490F0727BE434907490F31430E002E
:1011C000596929401027BE4309011027394031438E
:1011D0005E6976082E402027B943760120273E40DD
:1011E0000E434664197B002901D02E0000E0002642
:1011F000029F5F493940360280277F003E400E4300
:101200009968491E21401F27BE430C40344319688A
:10121000012901D1290000E000213D4E344009049C
:1012200080277F02394021438024A40001513C21C2
:10123000595CC9B2019FFF24A743C9B23943C124F5
:10124000A40001512821595C002901D02C0000E0A4
:101250000024009F4A49394067068024A40427409F
:101260000F43D96A012901D12C0000E0002445492F
:101270003940240680277F043C400C43596B0129E8
:1012800000D00025089926402C0480256D022C40B2
:10129000344330255D5DEEB2FF25AC43F5B2254306
:1012A000056544241C5DE5B2FF24A243ECB214435F
:1012B0008122920084509C6C334A84501B6C334AC8
:1012C0008350002909D00020486008608860C86009
:1012D0000862C86208632E4848630024200009B0F1
:1012E000F0BD00000160AA00D43F0010D83F0010FC
:1012F000DC3F0010E03F0010E43F0010E83F00102A
:10130000EC3F0010F03F0010F43F0010F83F0010D9
:10131000FFFFFEFFFF3FFFFFFFFFFFFC1D490160D6
:10132000C0218903016400218164FF220832C023A7
:101330009B00C250C1239B00C150C4239B00C150DD
:10134000416480239B00C25081229200815001653C
:10135000114A8150114A81500C4A81500A4A8150E9
:101360000F4A81500F4A815070470000FFFBFFFF7A
:10137000FFFEFFFFFFFDFFFFFFFFF0FFFFFF00FF8E
:10138000FFFFFFFDFFFFFFFE880F0000C80F0000FA
:10139000EFCDAB000F000003C80E0000880E000068
:1013A000080F0000480F000000B5010009B2002935
:1013B00005D40121C006C00E81403048016000BD47
:1013C00000B5010009B2002905D40121C006C00EF4
:1013D00081402B48016000BDF0B5020012B2002A26
:1013E0001CD40327274A03001BB29C0804235C4338
:1013F0001359FF2504003C4008267443A540AB4325
:101400008901C9B20400274008246743B940194341
:1014100000B2830804204343D15022E00F251A4A2A
:101420000323040024B22C40083CA408042674437F
:10143000A446040024B22540083DAD0804246543B9
:101440005659FF2705001D4008246543AF40BE43A1
:101450008901C9B20340082043439940314364469F
:101460001151F0BD00B572B608480168002902D0DC
:101470000168491E0160006800BD000000E100E055
:1014800080E200E000E400E01CED00E0EC12002847
:1014900080B5FFF7E7FF00F007FB01BD80B5C9B2DB
:1014A00000B2FFF799FF01BD70B504000D001600F2
:1014B000200000F00BFB29000020205E00F028FB3C
:1014C0003100C9B20220205EFFF7E8FF0220205E53
:1014D000FFF776FF0220205EFFF766FF70BD000079
:1014E000431C0178401C0942FBD1C01A7047F446E6
:1014F000002804D4494200F013F8404260474042BB
:10150000002905D45FD000F00BF840424942604703
:10151000494200F005F84942604703460B43E6D4D0
:101520000022030A8B420BD203098B4219D24308D3
:101530008B422ED2411A00D20146524110467047CA
:10154000FF2209023FD012068B4205D31212090274
:101550008B4201D31212090203098B4219D300E016
:10156000090AC3098B4201D3CB01C01A5241830936
:101570008B4201D38B01C01A524143098B4201D3E4
:101580004B01C01A524103098B4201D30B01C01A0F
:101590005241C3088B4201D3CB00C01A5241830889
:1015A0008B4201D38B00C01A524143088B4201D3B6
:1015B0004B00C01A5241884200D3401A5241CFD248
:1015C00001461046704708B500F0B6FA08BD0000A5
:1015D0000CB418B583B004000A0006A80290019468
:1015E0000020009002AB01A9084878441E3000F0AA
:1015F000B1FA002201990A70002801D40198001B59
:1016000004B0019910BC03B0084700BF13F8FFFFF6
:1016100000B582685118816003E082684169511AFF
:101620008160826841698A42F7D200BD00B5C26814
:101630005118C16003E0C2684169511AC160C268B3
:1016400041698A42F7D200BDF8B50400002C01D0F0
:10165000012000E0002054229049C0B2FFF7F6FAC2
:1016600000273D002178012008432070A760E76033
:10167000606920616078002803D0022811D007D368
:1016800017E061693A0066683000FFF761FB10E01F
:101690006169022041433A0066683000FFF758FB59
:1016A00007E06169042041433A0066683000FFF7B3
:1016B0004FFB27702800C0B2F2BD10B50400002C0B
:1016C00001D0012000E0002070227449C0B2FFF771
:1016D000BDFA60692169401A10BDFEB5040017000B
:1016E000002C01D0012000E000200D00AA226B494F
:1016F000C0B2FFF7ABFA00200600002D01D103268F
:10170000C8E005202178014201D00426C2E00097FC
:10171000217804220A432270226900998A4200D269
:10172000B3E06169A0680F1A0098874271D26078AF
:10173000002803D0022845D01DD3A1E03A0029009B
:101740006068A368C0180190019800F0CDFA019874
:1017500039002000FFF75CFF0098C21BE91963689D
:10176000A0681D18280000F0BFFA0098C11B2000D7
:10177000FFF74EFF84E002227A4302956168A06879
:1017800002235843081801900299019800F0ACFA1E
:10179000019839002000FFF73BFF0098C21B022090
:1017A00042430220784329186568A0680223584301
:1017B0002D18280000F098FA0098C11B2000FFF7B0
:1017C00027FF5DE004227A4302956168A068042344
:1017D0005843081801900299019800F085FA019881
:1017E00039002000FFF714FF0098C21B0420424379
:1017F0000420784329186568A068042358432D18ED
:10180000280000F071FA0098C11B2000FFF700FFCC
:1018100036E06078002803D0022821D00FD32FE0D3
:101820000098019029006068A2688518019A280034
:1018300000F05AFA00992000FFF7EAFE20E0009A33
:101840000220424329006568A068022358432D18EE
:10185000280000F049FA00992000FFF7D9FE0FE0B8
:10186000009A0420424329006568A0680423584375
:101870002D18280000F038FA00992000FFF7C8FE64
:1018800020690099401A206100E006002178FB20C1
:10189000084020703000C0B2FEBD0000243D0010A2
:1018A000FEB505000C00002D01D0012000E0002055
:1018B00000926B4EFF225C323100C0B2FFF7C6F9D6
:1018C0000098002801D0012000E00020AE22520044
:1018D0003100C0B2FFF7BAF9002006000100002C69
:1018E00001D103269CE029788907890F002903D0BC
:1018F000009908600626AFE02800FFF7DEFE009999
:101900000968884209D2009908600726002804D196
:101910002978F720084028709EE02978082008439D
:1019200028706969E8680F1A00980068874229D30F
:101930006878002803D0022817D009D36CE00098FB
:1019400002686968E8680918200000F0CDF963E0D2
:1019500000980268022042436B68E868022148430D
:101960001918200000F0C0F956E000980268042021
:1019700042436B68E868042148431918200000F0CE
:10198000B3F949E06878002803D002282CD012D39C
:1019900042E03A006968E86809180194019800F08B
:1019A000A3F9019800980068C21B6968E419200037
:1019B00000F09AF930E002227A436B68E86802216D
:1019C000484319180194019800F08EF90198009885
:1019D0000068C21B02204243696802204743E419A1
:1019E000200000F081F917E004227A436868EB6870
:1019F00004214B43C1180194019800F075F9019836
:101A000000980068C21B04204243696804204743D1
:101A1000E419200000F068F92878F72101402970C6
:101A20006846007AC0B2002816D128780B2801D168
:101A3000022611E0287802210143297000980168EC
:101A40002800FFF7F3FD286900990968401828610C
:101A50002878FD21014029703000C0B2FEBD000091
:101A6000243D0010F8B50400002C01D0012000E056
:101A700000201D0016000F00872292000849C0B206
:101A8000FFF7E4F80021080066600A002270677022
:101A9000A160E16025616561C0B2F2BD0000000097
:101AA000243D00107047000000B5002009E0064901
:101AB000802242438A5853005B08802242438B5065
:101AC000401C3F28F3DB00BD0000584070B501000A
:101AD00000221000154B1B68002917D0072502248F
:101AE0000E5F2E400724A34335401D430B79002B86
:101AF00001D00122FFE76B005B08D2071A430C4BB1
:101B000000240C5F042161435A5000E0064870BD78
:101B100000B5084B1A68002A04D01B6800B20422E2
:101B20004243995000BD000001005600FC3F0010E8
:101B300000802040EC0E0028704770B506000800B9
:101B4000002B06D015001C002978B0476D1C641EC0
:101B5000FAD170BDF8B588B002900091039201935C
:101B600009E00123039A00990298FFF7E6FF00902D
:101B70000398401C039003980078002820D0252863
:101B8000EFD103984778801C0390252F12D0582F4F
:101B90006DD0632F16D0642F1CD0692F1AD06F2FF1
:101BA00065D0702F6AD0732F70D0752F5FD0782FCB
:101BB0005DD0E0E725210098029A90470090DAE78F
:101BC00009B0F0BD0198016808680A1D01990A6012
:101BD000C1B2F0E7019800680468011D0198016036
:101BE000002C04D52D210098029A9047009064277C
:101BF0006F2F01D1082006E020203843782801D03B
:101C00000A2000E010200B252600642F03D1002CB1
:101C100001D571420E0004006D1E049530002100B4
:101C2000FFF77EFC30313A290ADA05AA50190490F0
:101C3000017030002100FFF773FC060005D002E0C0
:101C40007918AF31F1E7002DE6DC2900049D0098FA
:101C50004B420A22D2439342B0D00B22541A029E26
:101C60002978B0476D1C641EFAD10296A6E7019848
:101C700000680468011D01980160B9E701980068D7
:101C80000468011D019801607827B1E70198006898
:101C90000568011D019801602800FFF721FC040080
:101CA00000988BD0029E2978B0476D1C641EFAD133
:101CB000029683E770B4103A03D378C9103A78C01B
:101CC000FBD2530701D318C918C001D508C908C0F1
:101CD000D20704D30B880380891C801C002A01D5FD
:101CE0000B78037070BC70478B0701D18307E1D07C
:101CF000124205D00B78491C0370401C521EF9D1CA
:101D00007047000000B5012029490A6852080240C6
:101D1000002A01D0022001E00968084000BD2948DE
:101D200001680800C007C00F704700B5C21E022A34
:101D300001D3012002E0C01E0860002000BD1CB5D8
:101D4000FF246946FFF7F1FFC0B2002802D020004F
:101D5000C0B208E03F4A00980421484311580800E7
:101D6000C007C00FC0B216BD000000B5002801D0EA
:101D7000032801D3012002E0401E0860002000BDBE
:101D80001CB5FF246946FFF7F0FFC0B2002802D05F
:101D90002000C0B209E0334A0098102148431018CF
:101DA000C1680800C007C00FC0B216BD0000000027
:101DB000241526402C48006881080800C007C00F81
:101DC000704700004015264038B504002000C0B21E
:101DD00008280DD3254D18222549280000F0BCFB0A
:101DE0000020E875234924480160002000F014FC1D
:101DF00022482200D2B204214A4382581100C90568
:101E0000C90F002906D0E4B204214C430059000751
:101E1000000F00E0FF2032BD38B505002800C0B239
:101E200008280ED3114C18221149200000F094FB11
:101E30000020E075892109010F480160002000F0B1
:101E4000EBFB0E49EDB204204543485900098007D9
:101E5000800F32BD401626400C480068000AC0B210
:101E60007047000000192640100027403812002853
:101E70001C3C00105B080000D412002840122640D1
:101E800003480068000AC0B27047000010102040EC
:101E90000810204038B50400072C0ED3134D18222B
:101EA0001349280000F058FB0020E875CE214900B6
:101EB00010480160002000F0AFFB0B490420604394
:101EC00008584007400F010009B2042908D105490C
:101ED000042044430859C106C90E8020400008432D
:101EE00000B232BD00012640001226403812002800
:101EF000743C0010D41200281E490A689103890B13
:101F00000160120E1100C907C90FC1711749096894
:101F10000A00D204D20C82800A00120CD2B20281D2
:101F2000090CC9B24181274909680F220B001340EF
:101F300003730B091A4042730A0AD204D20CC281FD
:101F4000090F8907890F0174094909680A0A5207AC
:101F5000520F82710A00120CD205D20D42828A0FF2
:101F60001100C907C90F01757047000034152640DC
:101F70003C152640301526401CB50C006946FFF77D
:101F8000D4FE0100C9B2002901D0C0B218E00E4A47
:101F900000980421484310584106490E21601F2132
:101FA000020A0A406260020C1140A160010F890719
:101FB000890F6173C10E0800C007C00F2073002095
:101FC00016BD000038152640001626401CB50C0032
:101FD0006946FFF7CAFE0100C9B2002901D0C0B2AC
:101FE00036E01C49009A102042438858C2B2226051
:101FF0001F22030A13406360030C1A40A260000F03
:102000008007800F2073009A10204243881842688E
:10201000D00F60730720130F0340002B01D0012362
:1020200000E00023A3731202120A2261009B102217
:102030005343C9188968CA0F22750B0E1A00D207BC
:10204000D20F62750A00A275090C0840E0750020E5
:1020500016BD00000019264080B5010086481822F0
:10206000FFF728FE012185480170002002BD000015
:1020700000B583490968C90F002907D07F4909784D
:10208000002907D100210160032000BD002101606B
:102090000320FAE77849096801600020F5E70000AD
:1020A00010B50400FFF72EFE002803D100202060A9
:1020B00003200BE071480078002804D06E48806847
:1020C0002060002002E000202060032010BD00B549
:1020D0006A490978002904D06749496801600020ED
:1020E00002E000210160032000BD000000B5654949
:1020F0000968C90F002907D060490978002907D16C
:1021000000210160032000BD002101600320FAE7E7
:102110005949C96801600020F5E7000000B55A4937
:102120000968C90F002907D054490978002907D147
:1021300000210160032000BD002101600320FAE7B7
:102140004D49096901600020F5E7000010B5040061
:10215000FFF730FE002803D10020206003200BE0B1
:1021600046480078002804D0434840692060002099
:1021700002E000202060032010BD000010B50C001C
:10218000C0B2FFF787FE00280CD0401E0ED0401EC4
:1021900010D087214900401A10D0401E12D0C01E16
:1021A00014D017E02000FFF763FF16E02000FFF7D0
:1021B0008EFF12E02000FFF773FF0EE02000FFF714
:1021C00095FF0AE02000FFF7C1FF06E02000FFF7BF
:1021D000A5FF02E000202060032010BD80B50100B3
:1021E0000020FFF7CBFF02BD80B50322D2B28242AE
:1021F00003D200200860012003E0401CC0B2FFF7BA
:10220000BDFF02BD30B587B004006846FFF7E6FFAA
:102210000100C9B2002903D000212160C0B228E02A
:1022200001A8FFF769FE01AD287C022803D10098C0
:10223000206000201DE07C480068C00F002808D006
:10224000FFF76DFDC0B2002807D1002020600320F9
:102250000FE00098206000200BE0009801994843AF
:10226000A988FFF75DF9E979491CFFF759F9206062
:10227000002007B030BD000020120028F012002816
:1022800018152640081526400C152640F0B58BB0D1
:1022900004000D0069462000C0B2FFF7A5FF010051
:1022A000C9B2002903D000212960C0B2B9E02000E2
:1022B000C0B2022849D307A92000C0B2401CFFF7D2
:1022C0005BFEC0B200280DD0834E18228349300037
:1022D00000F042F90020F075814982480160002039
:1022E00000F09AF980492000C0B204225043081837
:1022F00008380068C00F002807D007A8407B0228D4
:1023000007D10098286000208BE00098286000200A
:1023100087E0E4B2641C2000FFF711FD0100C9B2A0
:10232000002902D0C0B2FF2803D10020286003207A
:1023300077E00098079948430899FFF7F1F8099961
:10234000FFF7EEF8286000206BE001A92000C0B282
:10235000401CFFF73BFEC0B200280DD05E4E182295
:102360005E49300000F0F8F80020F0755F495D48E4
:102370000160002000F050F95D4A2000C0B2102139
:1023800048431058C00F002807D001AE307B022808
:1023900007D100982860002043E0009828600020C2
:1023A0003FE0E4B2641C2000FFF7EAFC0100C9B280
:1023B000002902D0C0B2FF2803D1002028600320EA
:1023C0002FE0707B012821D100980021019E002779
:1023D0003F06320A17433606059A002392197B41BD
:1023E00000F03EF906000F0002980021039A002336
:1023F00000F036F902000B0030003900FEF7D1FC86
:10240000000E0A021043090E286009E000980199A5
:1024100048430299FFF784F80399FFF781F8286091
:1024200000200BB0F0BD00003015264010B503238E
:10243000421E0400E4B2002C03D10800FFF7E2FEC4
:102440000CE01400DBB2E4B2A34204D31000C0B22B
:10245000FFF71CFF02E0C0B2FFF790FE10BD38B5D9
:1024600005000C002800C0B2FFF7AEFC0100C9B2A5
:10247000FF2904D12000FFF7FBFDC0B21BE0694635
:10248000C0B2FFF7D3FF0100C9B2002903D0002179
:102490002160C0B20FE02800C0B2FFF7BDFCC0B29F
:1024A000002805D002280BD006D303280CD00FE05B
:1024B00000982060002032BD009840082060F9E7B5
:1024C000009880082060F5E70098C0082060F1E7D8
:1024D000002020600320EEE738120028743C001032
:1024E00063090000D4120028001626407F0900006E
:1024F000001926401CB5040069460020FFF7AFFF15
:102500000100C9B2002903D000212160C0B208E057
:10251000FFF7A2FC01000098491CFFF701F82060BA
:10252000002016BD1CB504006846FFF7E3FF01005C
:10253000C9B2002901D0C0B208E0FFF7A1FC010038
:102540000098491CFEF7ECFF2060002016BD80B506
:10255000FFF7E8FF02BD000071B58B0709D0521EDE
:1025600028D30B780370401C1B421FD0491C8B07DB
:10257000F5D1121F3ED3274CE50140C9331BB343AD
:102580002B4209D1830716D140C0121F32D340C954
:10259000331BB3432B42F7D0121DFF231E4205D03D
:1025A0000670401C360A521E1E42F9D1110000224C
:1025B000FEF7D4FB71BDDB4216D0401E4670360AD2
:1025C0004680360C0671001D121F06D340C9331B0E
:1025D000B3432B42F2D0401CDEE7401C0AE040C966
:1025E000331BB3432B42D7D10680360C4680001DE7
:1025F000121FF4D2121D0BD00B780370521E07D09D
:10260000401C491C1B42F7D10370401C521EFBD1D9
:1026100071BD00000101010100B501BEFEE780B5FA
:102620000C4B0D490A689A4210D00B6002684A6050
:1026300042688A608268CA60C2680A6102694A6147
:1026400042698A618269CA61C069086200F021F842
:1026500001BD0000F3F2F1F0FC1100287047704753
:1026600030B4434351435D18010C0C00130C5C4320
:102670002D1980B2434392B251430024C9186441DA
:1026800024040B04090C09195043C018694130BCDB
:10269000704700B5FEE70000F8B584B000F09EFB7F
:1026A000B54901270A68032082433A430A60B348C8
:1026B0000A6802400A60B2490B68032293433B4315
:1026C0000B600A6802400A60AE490B68032293431C
:1026D0003B430B600A6810400860E24A10680F2113
:1026E000884338431060E04A10680721884310602F
:1026F000DE4801680722914304220A430260016810
:10270000F0229143C0220A4302600268C02189007E
:10271000114301600268C021090111430160026890
:10272000D3491140802252010A430260D14A106805
:102730008021090601431160CF4801683940002912
:10274000FAD00168490839400029FAD0DC4A1068FB
:10275000DC4901401160DC480268DA4911408022FE
:1027600052000A430260D9480268D64911408022CB
:1027700052000A430260D64A1068D24901401160F3
:10278000D44801680722914302220A430260D248DA
:102790000168490049080160D04801688A0A92022C
:1027A0002921114301600268CD491140016002688E
:1027B00080214904114301600268CA491140016047
:1027C00002688021090611430160C7480268C749B1
:1027D00011408022D2000A4302600168FF22914327
:1027E0007D220A4302608025AD020268C049114083
:1027F00029430160802189040268BE4B13400B43CA
:102800000360BD4A036813400360046880231B060D
:1028100023430360B94803680724A34302241C43ED
:102820000460B74803681C0E2406B64B23430360BC
:102830000468B54B2340802464051C43046003688E
:10284000802424061C430460B04803685B005B08D6
:102850000360AF4B8024A4001868A44E06402643B2
:102860001E601868FF26B043622606431E601E687D
:102870009F4830408026F60206431E6018689D4E31
:1028800006403143196018681040186019688020AC
:102890000006084318609F480168072399430223F4
:1028A0000B4303609C4803687F218B432821194315
:1028B000016001688D4B0B402343036003688C4922
:1028C00019400D43056003688A4919400160934926
:1028D00003680B40036003681340036005688023AE
:1028E0001B062B4303608E4803680725AB43022574
:1028F0001D4305608B4803687F25AB431E251D43A0
:1029000005600568794B2B401C4304600468784BD4
:102910002340C024A4021C4304600468754B234078
:10292000036003681940016001680A4002600168A1
:10293000802212060A430260A2480068384000283C
:10294000FAD0A148006838400028FAD09F480068B3
:1029500038400028FAD0B248006838400028FAD041
:10296000B04801680722914301606846AE491022D1
:10297000FFF7A0F900262CE0C4132040FFFCFFFF66
:1029800000132040801320403220002100F036FA4E
:10299000310049B2042041436B1818683021884344
:1029A000210049B2090130220A4002431A60641E24
:1029B00023005BB26A46300040B202214843105CFB
:1029C0001BB200B28342DFDA3220002100F016FA97
:1029D000761C300040B2082850D2300040B20428A3
:1029E0000CD1EFF31084002080F310888F4B00226D
:1029F0000121102000F061FB84F310888C4D300021
:102A000040B2042148432C1821680F2081436A46B4
:102A1000300040B202235843101840780007000FDE
:102A200008432060300040B2042148432818016860
:102A300030220A430260310049B204204143681841
:102A40000168802252000A430260310049B204202A
:102A500041436A181068802109060143116002246D
:102A6000A6E700BF0000244000152640441526407C
:102A7000FF8FFFFF1C15264024152640964A11485B
:102A8000116801401160F821C94313680B401360BD
:102A9000924A13681840106010680140116000F0FD
:102AA0008AF98F480168802212060A430260016891
:102AB0000F43076000F074F900F036F805B0F0BD80
:102AC00010102040FF00FFFF081020400C10204095
:102AD00020032040041226400419264008192640ED
:102AE000FFFFF8FFFFFFFFEF00192640FFE0FFFFA9
:102AF000FFFFE0FFFFFFFFF9FFFFFFCF08122640B7
:102B000014192640F1D24D00FFFFFF8F18192640FF
:102B1000101926400C12264000162640FFFFFFF732
:102B2000101226400416264038B586B068466D4916
:102B30001822FFF7BFF86846FFF78EFAC0B20028E8
:102B40000ED0694C182269492000FFF705FD0020CE
:102B5000E075FF218C31664801600020FFF75CFDC5
:102B6000644D2800FFF7F3FCC0B200280ED05E4C85
:102B700018225E492000FFF7EFFC0020E075FF21DE
:102B80008E315B4801600020FFF746FD724C2868DB
:102B900020602168714808187149FEF7C1FC71492D
:102BA0000860714D216871480818FA218900FEF704
:102BB000B7FC286028688021090248436C490860F6
:102BC00007B030BD0C1926401C192640401626407F
:102BD000F8B50400002637002000C0B202280DDB43
:102BE000414D182241492800FFF7B6FCEE75FF2140
:102BF000A4313F4801600020FFF70EFD2000C0B265
:102C0000002804D15B4800688707BF0F06E0E4B2E4
:102C1000012C03D1584800688707BF0F3800F2BD68
:102C200044162640141226404C3F001050C30000AA
:102C300040122640F8B504000E002000C0B2022861
:102C40000EDB294D182229492800FFF785FC0020BA
:102C5000E875FF21C831264801600020FFF7DCFC41
:102C600000F042FA05002000C0B2FFF7B1FF0328D0
:102C700003D12000C0B200F03FF8404A1068802124
:102C80000906014311602000C0B200280FD13C4862
:102C90000660009880B23B49014303200843354950
:102CA0000860394A106810218843106010E0E4B2CF
:102CB000012C0DD135480660B8B2324901430320DA
:102CC00008432D490860324A10681021884310607B
:102CD000280000F00DFAF1BD080020400804204053
:102CE000081526401C3F001038120028C03B001079
:102CF000D4120028D8120028F8B504002000C0B271
:102D000002280EDB234D182223492800FFF724FC5C
:102D10000020E87596218900204801600020FFF717
:102D20007BFC2000C0B2002809D1B8B2154901438C
:102D300003208143012008430E4908600BE0E4B200
:102D4000012C08D1B0B20F49014303208143012077
:102D5000084309490860F1BDDC1200283F420F001A
:102D600040420F00E4120028E0120028E7030000B0
:102D7000E812002800122040101220404412264081
:102D8000000220400000FA050C0020400006204010
:102D90000C04204038120028C03B0010D412002838
:102DA00080B500F0B5F9134B196803220A431A6085
:102DB00000F0B2F901BD80B500F0AAF90D490A682A
:102DC00003239A43012313430B600A6803239A43A6
:102DD000022313430B6000F09FF901BD80B5FFF79C
:102DE000EAFF05480168490049080160FFF7D8FF7C
:102DF00001BD000040C0264000C02640F8B50400D8
:102E00000D00224F387800280ED01C4E18221C4985
:102E10003000FFF7A1FB0020F075CF2149001948D1
:102E200001600020FFF7F8FB2000290001223A7022
:102E300080225204002399420AD301D8904207D33A
:102E4000134C02000B0013A003C88018594102E084
:102E50000400002000210C4A002313600F4D2C6059
:102E60000F4C2360052414601468E403FCD5136040
:102E70000029DDD10028DBD13B70F1BD38120028DC
:102E8000CC3C0010D412002810E000E0F112002821
:102E9000FFFFFF00010000FFFFFFFFFF14E000E065
:102EA00018E000E0F3B595B01700180000210D0000
:102EB0000A006A46118080B20421FEF72EFB04004E
:102EC000200080B280218900884203D30125684612
:102ED00004807F4C1C9E00F02EF9002800D099E061
:102EE0006846877016A8077801A81021FDF740FFF3
:102EF0000199022081433000C0B2400002221040FC
:102F000008430190019804218843FFB2B9000422CC
:102F1000114001430191019908208143684680785E
:102F2000C0000822104008430190019810218843F6
:102F30000190019820218843019001984021884305
:102F400001900199802008430190624F0199394016
:102F500015A800780202F8204001104008430190B3
:102F600001995D480840019001980102090AA820D2
:102F700040050843019011A81021FDF7F9FE1198B2
:102F8000800A8002A4B2A105890D01431191534822
:102F90000068002806D101980740D020400138433E
:102FA000019007E0002805D00198074080204001EB
:102FB00038430190002211A901A800F031F9EDB2C7
:102FC000002D03D06846008800F0AAF809A8102157
:102FD000FDF7CEFE099802218843F6B27100022265
:102FE00011400143099109993D4808400990099908
:102FF0003C48084080214902014309910998010297
:10300000090A8820400508430990002109A800F01A
:10301000AFF850E000F09AF80128FBD000F090F8EB
:103020000128F7D10DA81021FDF7A2FE0DA8017807
:10303000FD2008400DA908700DA801780C20084358
:103040000DA908700D980102090AB0204005084337
:103050000D9000210DA800F08BF800F071F8002809
:1030600029D1EDB2002D03D06846008800F058F851
:1030700005A81021FDF77CFE059802218843F6B2D1
:10308000710002221140014305910599144808403E
:10309000059005981349014080204002084305909F
:1030A00005980102090A882040050843059000217F
:1030B00005A800F05DF817B0F0BD1CB50124009420
:1030C0009BB2D2B2C9B2C0B2FFF7ECFE13BD000092
:1030D000FF010000FFE0FFFFFF1FFFFF30070017A9
:1030E000FF00FFFFFFFF00FFEFF3108072B6704795
:1030F00080F310887047000000000000000000000E
:10310000801C800803D0401C801EFCD100BF70478B
:10311000EFF3108072B6704780F31088704700009C
:103120000D490B680D4A1A4080B203050C4818403F
:1031300010430860704708480068C00FC0B270476D
:10314000084801680800C007C00F704705480068BC
:10315000C00FC0B27047000028102640FFFF0FC00C
:103160000000F03F2C102640C069C00FC0B270476D
:10317000F8B502000E00002A01D105204FE00F2013
:103180006A490B681B0A0340002B01D1002307E0AA
:103190000968090A08400E2801D1012300E0022332
:1031A000634820214B43C718624C634D280011002F
:1031B0001022FEF799FD2968012081432960102122
:1031C0002800FFF74CFA5D4B2A000121380000F07F
:1031D000D0F8002804D0012021E0641E002C15D076
:1031E0003800FFF7C1FF0028F7D1002E08D01021CA
:1031F0002800FFF733FA300029001022FEF774FD93
:1032000000F07AF8012803D1032008E0022006E04C
:1032100000F072F8002801D1002000E00420F2BD87
:10322000FEB503001600002B03D001910198002881
:1032300001D105205EE00F203C490A68120A0240D5
:10324000002A01D1002207E00968090A08400E2877
:1032500001D1012200E00222354820214A43801892
:103260000090374C344D280019001022FEF73CFD29
:10327000344F380001991022FEF736FD29680120ED
:103280008143296039680120814339601021280079
:10329000FFF7E5F910213800FFF7E1F93B002A00BC
:1032A0000121009800F065F8002804D0012021E0F9
:1032B000641E002C15D00098FFF756FF0028F7D1A8
:1032C000002E08D010212800FFF7C8F9300029008F
:1032D0001022FEF709FD00F00FF8012803D10320AA
:1032E00008E0022006E000F007F8002801D10020E5
:1032F00000E00420FEBD000010B50F4C102120009E
:10330000FFF7ACF92068010F0907A02000068142F1
:1033100001D1002009E02068010F0907F020000614
:10332000814201D1012000E0022010BD00002040B8
:1033300000002240FFFFFF0FA0120028D01200283B
:10334000FFFFFF00C0120028174A1268120C120477
:1033500089B2114381607047C16070470161704755
:1033600000B50068C00F002801D1104800E000201F
:1033700000BDF8B507000C0015001E003800FFF76F
:10338000EFFF00280DD129003800FFF7E5FF3100DD
:103390003800FFF7E3FF21003800FFF7D5FF0020DA
:1033A00000E00248F2BD0000D03F001001008A009A
:1033B00000B5010009B2002905D40121C006C00EE4
:1033C00081409C48016000BDF0B5020012B2002AA5
:1033D0001CD40327984A03001BB29C0804235C43B7
:1033E0001359FF2504003C4008267443A540AB4315
:1033F0008901C9B20400274008246743B940194332
:1034000000B2830804204343D15022E00F258B4AA9
:103410000323040024B22C40083CA408042674436F
:10342000A446040024B22540083DAD0804246543A9
:103430005659FF2705001D4008246543AF40BE4391
:103440008901C9B20340082043439940314364468F
:103450001151F0BD80B500F012F8794A7948116831
:1034600001401160784A116801401160774A116883
:103470000840106000F09CF800F0B5F801BDFEB502
:103480006B46734A03CA03C3083A083B002631005F
:103490000BE06C460A00D2B208235A43A2185268C5
:1034A000521C104000280FD1491C0800C0B200284F
:1034B0000BD107206C460A00D2B208235A43A25807
:1034C0000240002AE5D0FEE7FEE7624D07202968AA
:1034D0000140002900D0FEE75F4F3968491C0840D1
:1034E000002800D0FEE7340028E06A462000C0B281
:1034F00008214843101841686B462000C0B20822DA
:103500005043185800F04AF817E030000028ECD07B
:103510002968491E6B462000C0B208225043185843
:1035200000F03CF869462000C0B208225043081859
:1035300041683868401C00F031F8641C2000C0B2BB
:1035400000282AD16A462000C0B2082148431058FA
:10355000002816D02B686A462000C0B208214843D4
:10356000105883420BD36A462000C0B2082148435A
:10357000101841682868814201D30120C6E7300055
:10358000C4E76A462000C0B20821484310184168C9
:1035900028688142B9D30120B8E7F7BD80B5002281
:1035A000002302E00CC0083808308842FAD301BD7D
:1035B00070B52A4880082A492A4A00230AE01D00DB
:1035C000EDB20424654356591C00E4B204256C4353
:1035D0000E515B1C1D000400EDB2E4B2A542EED317
:1035E0002148016070BD38B5102311201C4900220C
:1035F0001D00EDB2042465435559DBB20424634336
:10360000CD500400E4B204235C431359C0B2042239
:1036100050430B5001210020FFF7D6FE002101206E
:10362000FFF7D2FE0020FFF7C3FE0120FFF7C0FE28
:1036300031BD000000E100E000E400E01CED00E02E
:1036400000132040FFFFF7FF80132040A01320400D
:10365000A83F0010B83B0010BC3B001080000000E9
:10366000001300280000001008ED00E000B5010084
:1036700009B2002905D40121C006C00E81404E4880
:10368000016000BD00B5FEE780B54C4800684C48BD
:103690000168C80F002806D04A488A05920D042107
:1036A0004A43805880470020FFF7E0FF01BD80B506
:1036B0004548006845480168C80F002806D04148C1
:1036C0008A05920D04214A43805880470120FFF764
:1036D000CDFF01BD80B53E4800683E480168C80F77
:1036E000002806D037488A05920D04214A438058A5
:1036F00080470220FFF7BAFF01BD80B53648006859
:1037000036480168C80F002806D02E488A05920D59
:1037100004214A43805880470320FFF7A7FF01BDDB
:1037200080B52F4800682F480168C80F002806D0D0
:1037300024488A05920D04214A438058804704207A
:10374000FFF794FF01BD80B527480068274801684E
:10375000C80F002806D01B488A05920D04214A4351
:10376000805880470520FFF781FF01BD80B52048C4
:10377000006820480168C80F002806D011488A0553
:10378000920D04214A43805880470620FFF76EFFC0
:1037900001BD80B51848006818480168C80F0028A6
:1037A00006D008488A05920D04214A438058804774
:1037B0000720FFF75BFF01BD80E200E0B03F001093
:1037C0000011204000080028B43F001004112040E0
:1037D000B83F001008112040BC3F00100C112040E1
:1037E000C03F001010112040C43F001014112040B1
:1037F000C83F001018112040CC3F00101C11204081
:103800005F4940587047FC2212018150FC21090198
:10381000405870475B4940587047F8221201815068
:10382000F82109014058704710B50020FCF714FE3C
:10383000FFF7E6FF400708D50020FCF70DFE042146
:10384000FFF7E1FFFDF7EEF90FE00020FCF704FEC3
:103850008024A400FFF7DEFF2040002805D00020D0
:10386000FCF7FAFD2100FFF7D8FF10BD10B50120CD
:10387000FCF7F2FDFFF7C4FF400709D50120FCF774
:10388000EBFD0421FFF7BFFF3F48006880470FE0D2
:103890000120FCF7E1FD8024A400FFF7BBFF2040DE
:1038A000002805D00120FCF7D7FD2100FFF7B5FF68
:1038B00010BD10B50220FCF7CFFDFFF7A1FF4007B8
:1038C00008D50220FCF7C8FD0421FFF79CFF00F09B
:1038D0005FF80FE00220FCF7BFFD8024A400FFF793
:1038E00099FF2040002805D00220FCF7B5FD2100FB
:1038F000FFF793FF10BD10B50320FCF7ADFDFFF7F8
:103900007FFF400706D50320FCF7A6FD0421FFF743
:103910007AFF0FE00320FCF79FFD8024A400FFF74F
:1039200079FF2040002805D00320FCF795FD2100F9
:10393000FFF773FF10BD10B50420FCF78DFDFFF7F6
:103940005FFF400709D50420FCF786FD0421FFF73F
:103950005AFF0E48006880470FE00420FCF77CFD0A
:103960008024A400FFF756FF2040002805D0042043
:10397000FCF772FD2100FFF750FF10BD00000000B2
:10398000C80F0000880F0000F00E0028F40E002879
:1039900038B584B0002001903C480078002866D0FB
:1039A00004E0012269463A48FDF797FE6946022085
:1039B000FCF794FD0028F4D1684600780A2856D117
:1039C00006200190324D012301AA02A92800FDF72B
:1039D00067FF02AC03222FA1E01C00F063F800286F
:1039E00010D12448017802293BD001210170280020
:1039F000FDF763FE0190002301AA1F492800FDF78F
:103A00004FFF2EE0032224A1E01C00F04BF8002819
:103A100010D11A480178022923D001210170280011
:103A2000FDF74BFE0190002301AA15492800FDF780
:103A300037FF16E0032219A1E01C00F033F800283C
:103A40000FD11048017802290BD001210170280004
:103A5000FDF733FE0190002301AA0B492800FDF772
:103A60001FFF2800FDF7F0FD01210D48017005B092
:103A700030BD0000F8120028BC100028F712002802
:103A80003C100028F91200283C110028F6120028EA
:103A900068120028524D43004747410054485300E4
:103AA000F512002810B4002A10D00B7804789C423C
:103AB00006D1002C0AD0401C491C521EF5D105E04D
:103AC00002D20020C04302E0012000E0002010BC30
:103AD0007047F1B401684118436858080A18009803
:103AE0008068DB0701D54B46C01891422DD00D7878
:103AF000491C032403262E4002D10E78F61C491CD3
:103B00002B090F2B07D10B780F33491C03E00F78DB
:103B1000491C0770401C761EF9D1002BE5D00E78A9
:103B2000491CAD082C40032C01D10C78491C2402FF
:103B300035196C4205190024A61E9E42D5D02E7858
:103B40006D1C0670401C641CF6E700980C30F2BC3B
:103B50007047000072B6104810490860BFF34F8FDD
:103B60000120C0040E490A6802430A600D490A6830
:103B700002430A600C490A6802430A6000200021DF
:103B80000D4A03C26A45FCD1084FB847084FB847F1
:103B9000084FB847FEE700000000001008ED00E005
:103BA0000013204080132040A01320405534001003
:103BB000E93D0010013F001000FF0128FFFF012830
:103BC000453A5C70726F6A6563745C736D617274A0
:103BD000206361725C6F6B5C39363372612D5C6C93
:103BE00069627261726965735C73646B5C74766937
:103BF000696268346D5C7372635C73797374656D4C
:103C00005C73797374656D5F747669696268346D2D
:103C10005F636D30706C75732E630000453A5C70A5
:103C2000726F6A6563745C736D6172742063617234
:103C30005C6F6B5C39363372612D5C6C69627261EA
:103C4000726965735C73646B5C747669696268340D
:103C50006D5C7372635C647269766572735C7379B0
:103C600073636C6B5C63795F737973636C6B2E68E1
:103C700000000000453A5C70726F6A6563745C73A3
:103C80006D617274206361725C6F6B5C3936337284
:103C9000612D5C6C69627261726965735C73646BDF
:103CA0005C747669696268346D5C7372635C6472BB
:103CB00069766572735C737973636C6B5C63795F4F
:103CC000737973636C6B2E6300000000453A5C707F
:103CD000726F6A6563745C736D6172742063617284
:103CE0005C6F6B5C39363372612D5C6C696272613A
:103CF000726965735C73646B5C636F6D6D6F6E5C32
:103D00007372635C647269766572735C73797374E1
:103D100069636B5C63795F7379737469636B2E633A
:103D200000000000453A5C70726F6A6563745C73F2
:103D30006D617274206361725C6F6B5C39363372D3
:103D4000612D5C6C69627261726965735C7A665F31
:103D5000636F6D6D6F6E5C7A665F636F6D6D6F6EB6
:103D60005F6669666F2E6300453A5C70726F6A65C4
:103D700063745C736D617274206361725C6F6B5C01
:103D800039363372612D5C6C696272617269657378
:103D90005C7A665F6472697665725C7A665F64728B
:103DA000697665725F756172742E630070B401216B
:103DB000002213E00368001D0B4202D04D46EB18B1
:103DC0005B1E1A601B1D241F042CFAD21D00A607BF
:103DD00001D51A80AD1C0C4000D02A700468001D6B
:103DE000002CE7D170BC704710B5034A7A44083202
:103DF000024C7C44A41D03E044000000600000006D
:103E000004E0101D1168511888470200A242F8D141
:103E100010BD000080B562B6FEF73EFCFCF768FFFF
:103E200004490020FEF706FF03490120FEF702FFC8
:103E3000FEE700BF000008100000281071FFFFFF20
:103E4000D8030000240F00280000000087FCFFFFBB
:103E5000DE010000960000000008002804207146E2
:103E6000084202D0EFF3098001E0EFF3088000B5CB
:103E70000149884700BD00001F26001000F00EF821
:103E8000002801D0FFF7B0FF00BF00BF002000BF37
:103E900000BFFFF7BFFF00F003F8000000207047ED
:103EA00080B500F001F801BD0746384600F002F881
:103EB000FBE7000080B500BF00BF024A11001820D8
:103EC000ABBEFBE7260002000D0A66696C65202583
:103ED00073206C696E652025643A2025732E0D0AC7
:103EE0000000000004207146084201D0EFF3098071
:103EF000EFF3088000B50149884700BD953F0010E9
:103F00000548014603B4684680F3098800BF00BF36
:103F100000BF00BFFFF7B2FFA5EDF5FE00127A006B
:103F2000000000000024F400008000000080000079
:103F3000008000000D0A66696C65202573206C699D
:103F40006E652025642E0D0A0000000000030001AC
:103F500000040104020400020004000566696C65A7
:103F60003A206D646B2F2573000000004173736568
:103F70007274206572726F720000000066696C6571
:103F80003A202573000000006C696E653A202564B4
:103F9000000000008169891E0978C9B2016070477C
:103FA000030100001011001000080028FFFF012885
:103FB0000000000000000000000000000000000001
:103FC00000000000000000000000000000000000F1
:103FD00000000000000000000000000000000000E1
:103FE00000000000000000000000000000000000D1
:103FF00000000000000000000000000000000000C1
:10400000FEE70000FEE70000FEE70000FEE700001C
:10401000FEE70000FEE70000FEE70000FEE700000C
:10402000FEE70000FEE70000FEE700007047F00238
:10403000FF8536001004F1FF04F1FF04F1FF04F1E5
:10404000FF04F1FF04F177042006000800282D404A
:104050000010041003293800106D0412B30412F785
:104060000413373920100400604000006504126416
:10407000041263040001624001000000000000001F
:104080000000000000000000000000000000000030
:104090000000000000000000000000000000000020
:1040A0000000000000000000000000000000000010
:1040B0000000000000000000000000000000000000
:1040C00000000000000000000000000000000000F0
:1040D00000000000000000000000000000000000E0
:1040E00000000000000000000000000000000000D0
:1040F00000000000000000000000000000000000C0
:1041000000000000000000000000000000000000AF
:10411000000000000000000000000000000000009F
:10412000000000000000000000000000000000008F
:10413000000000000000000000000000000000007F
:10414000000000000000000000000000000000006F
:10415000000000000000000000000000000000005F
:10416000000000000000000000000000000000004F
:0400000510003F01A7
:00000001FF
