:020000041008E2
:1000000000000828A1940810BD9C0810ED98081065
:10001000C19C0810C59C0810C99C08100000000075
:10002000000000000000000000000000F59908102A
:10003000CD9C081000000000D19C0810D59C081031
:10004000DF910810059208102B92081051920810A9
:10005000779208109D920810C3920810E992081038
:10006000D99C0810DD9C0810E19C0810E59C081044
:10007000E99C0810ED9C0810F19C0810F59C0810F4
:10008000022801D3012010E00B00DBB2042B01DBBE
:1000900001200AE0DFF8283803EB8000C9B2405C99
:1000A000824201D3012000E000207047F8B506002D
:1000B0000F0015001C00022E01D301201DE02A00B4
:1000C0003900C9B23000FFF7DBFF012801D1012060
:1000D00013E03800C0B2002812D1B4F5807F0DD2F1
:1000E000DFF8E0077603304400EB850010F5805020
:1000F000016864F30F2101600020F2BD0120FCE7DC
:10010000FFB2012F11D1B4F5803F0CD2DFF8B40754
:100110007603304400EB850010F5A050016864F3CD
:1001200017210160E8E70120E7E70120E5E700B2D9
:100130000012C0B27047F8B505000E001700280085
:1001400000B2FFF7F4FF04002000C0B2022801D380
:10015000012024E03A003100C9B22000C0B2FFF70C
:100160008FFF012801D1012019E0DFF85817200086
:10017000C0B2400308442A00D2B200EB8200D0F89B
:10018000000CF6B266F3092067F30700E4B26403DB
:100190002144EDB201EB8501C1F8000C0020F2BD55
:1001A00070B504000D001600022C01D301201DE0E3
:1001B00032002900C9B22000FFF762FF012801D1F7
:1001C000012013E0DFF8FC166003085850F00040EF
:1001D00050F0407050F47F00EDB265F3092066F3F3
:1001E00007006203885064030859002070BD10B5F1
:1001F000C0B2002800F0EA80022800F0EB80C0F0D6
:10020000E780042800F0EA80C0F0E680062800F0CD
:10021000E980C0F0E580082800F0E880C0F0E480C4
:100220000A2800F0E780C0F0E3800C2800F0E680A8
:10023000C0F0E2800E2800F0E580C0F0E1801028D8
:1002400000F0E480C0F0E080122800F0E380C0F00D
:10025000DF80142800F0E280C0F0DE80162800F075
:10026000E180C0F0DD80182800F0E080C0F0DC8084
:100270001A2800F0DF80C0F0DB801C2800F0DE8050
:10028000C0F0DA801E2800F0DD80C0F0D980202880
:1002900000F0DC80C0F0D880222800F0DB80C0F0C5
:1002A000D780242800F0DA80C0F0D680262800F01D
:1002B000D980C0F0D580282800F0D880C0F0D48044
:1002C0002A2800F0D780C0F0D3802C2800F0D680F8
:1002D000C0F0D2802E2800F0D580C0F0D180302828
:1002E00000F0D480C0F0D080322800F0D380C0F07D
:1002F000CF80342800F0D280C0F0CE80362800F0C5
:10030000D180C0F0CD80382800F0D080C0F0CC8003
:100310003A2800F0CF80C0F0CB803C2800F0CE809F
:10032000C0F0CA803E2800F0CD80C0F0C9804028CF
:1003300000F0CC80C0F0C880422800F0CB80C0F034
:10034000C780442800F0CA80C0F0C680462800F06C
:10035000C980C0F0C580482800F0C880C0F0C480C3
:100360004A2800F0C780C0F0C3804C2800F0C68047
:10037000C0F0C2804E2800F0C580C0F0C180502877
:1003800000F0C480C0F0C080522800F0C380C0F0EC
:10039000BF80542800F0C280C0F0BE80562800F014
:1003A000C180C0F0BD80582800F0C080C0F0BC8083
:1003B0005A2800F0BF80C0F0BB805C2800F0BE80EF
:1003C000C0F0BA805D2800F0BB80BBE01924BFE01C
:1003D0003124BDE01824BBE03324B9E03524B7E074
:1003E0001424B5E03724B3E01324B1E02024AFE0B7
:1003F0001224ADE02124ABE01124A9E01024A7E0F1
:100400002824A5E02924A3E02A24A1E009249FE0D0
:100410002B249DE008249BE02C2499E0032497E002
:10042000022495E0392493E03B2491E03D248FE0C1
:1004300001248DE03F248BE0002489E0402487E004
:10044000412485E0422483E0432481E0BF247FE00F
:1004500048247DE049247BE0BC2479E0992477E0BE
:100460009A2475E0502473E09B2471E0B6246FE079
:1004700051246DE09C246BE0B52469E0522467E0D0
:10048000A02465E0B42463E0532461E0B3245FE07A
:1004900054245DE0B2245BE0B12459E0AD2457E080
:1004A000602455E0AE2453E0612451E0AD244FE0D8
:1004B00062244DE063244BE0AB2449E0642447E030
:1004C000AA2445E0652443E0A92441E0A8243FE0B4
:1004D00069243DE06B243BE06D2439E06F2437E074
:1004E000A32435E0702433E0A22431E071242FE00E
:1004F000A1242DE097242BE0962429E0742427E002
:10050000952425E0752423E0942421E093241FE022
:1005100092241DE078241BE0792419E08C2417E054
:100520007A2415E08B2413E07B2411E08A240FE069
:100530005A240DE059240BE0892409E0582407E0EF
:10054000882405E09D22DFF84019002000F03CFEE1
:100550002000C0B210BD10B5C0B2002800F0EA8083
:10056000022800F0EB80C0F0E780042800F0EA8069
:10057000C0F0E680062800F0E980C0F0E580082899
:1005800000F0E880C0F0E4800A2800F0E780C0F0C6
:10059000E3800C2800F0E680C0F0E2800E2800F036
:1005A000E580C0F0E180102800F0E480C0F0E08039
:1005B000122800F0E380C0F0DF80142800F0E28011
:1005C000C0F0DE80162800F0E180C0F0DD80182841
:1005D00000F0E080C0F0DC801A2800F0DF80C0F07E
:1005E000DB801C2800F0DE80C0F0DA801E2800F0DE
:1005F000DD80C0F0D980202800F0DC80C0F0D880F9
:10060000222800F0DB80C0F0D780242800F0DA80B8
:10061000C0F0D680262800F0D980C0F0D5802828E8
:1006200000F0D880C0F0D4802A2800F0D780C0F035
:10063000D3802C2800F0D680C0F0D2802E2800F085
:10064000D580C0F0D180302800F0D480C0F0D080B8
:10065000322800F0D380C0F0CF80342800F0D28060
:10066000C0F0CE80362800F0D180C0F0CD80382890
:1006700000F0D080C0F0CC803A2800F0CF80C0F0ED
:10068000CB803C2800F0CE80C0F0CA803E2800F02D
:10069000CD80C0F0C980402800F0CC80C0F0C88078
:1006A000422800F0CB80C0F0C780442800F0CA8008
:1006B000C0F0C680462800F0C980C0F0C580482838
:1006C00000F0C880C0F0C4804A2800F0C780C0F0A5
:1006D000C3804C2800F0C680C0F0C2804E2800F0D5
:1006E000C580C0F0C180502800F0C480C0F0C08038
:1006F000522800F0C380C0F0BF80542800F0C280B0
:10070000C0F0BE80562800F0C180C0F0BD805828DF
:1007100000F0C080C0F0BC805A2800F0BF80C0F05C
:10072000BB805C2800F0BE80C0F0BA805D2800F07D
:10073000BB80BBE00824C0E00824BEE00824BCE085
:100740000824BAE00824B8E00824B6E00824B4E09D
:100750000824B2E00824B0E00824AEE00824ACE0AD
:100760000824AAE00824A8E00824A6E00824A4E0BD
:100770000824A2E00824A0E008249EE008249CE0CD
:1007800008249AE0082498E0082496E0082494E0DD
:10079000082492E0082490E008248EE008248CE0ED
:1007A00008248AE0082488E0082486E0082484E0FD
:1007B000082482E0082480E008247EE008247CE00D
:1007C00008247AE0082478E0082476E0082474E01D
:1007D000082472E0082470E008246EE008246CE02D
:1007E00008246AE0082468E0082466E0082464E03D
:1007F000082462E0082460E008245EE008245CE04D
:1008000008245AE0162458E0082456E0082454E04E
:10081000082452E0082450E008244EE008244CE06C
:1008200008244AE0082448E0082446E0082444E07C
:10083000082442E0082440E008243EE008243CE08C
:1008400008243AE0082438E0082436E0082434E09C
:10085000082432E0082430E008242EE008242CE0AC
:1008600008242AE0082428E0082426E0082424E0BC
:10087000082422E0082420E008241EE008241CE0CC
:1008800008241AE0082418E0082416E0082414E0DC
:10089000082412E0082410E008240EE008240CE0EC
:1008A00008240AE0082408E0082406E04FF48672D1
:1008B000DFF8D415002000F087FC2000C0B210BD86
:1008C0000C9C08100000044080B5C0B2002800F065
:1008D000EA80022800F0EB80C0F0E780042800F0F6
:1008E000EA80C0F0E680062800F0E980C0F0E580EC
:1008F000082800F0E880C0F0E4800A2800F0E780D3
:10090000C0F0E3800C2800F0E680C0F0E2800E2802
:1009100000F0E580C0F0E180102800F0E480C0F035
:10092000E080122800F0E380C0F0DF80142800F09F
:10093000E280C0F0DE80162800F0E180C0F0DD80AB
:10094000182800F0E080C0F0DC801A2800F0DF807A
:10095000C0F0DB801C2800F0DE80C0F0DA801E28AA
:1009600000F0DD80C0F0D980202800F0DC80C0F0ED
:10097000D880222800F0DB80C0F0D780242800F047
:10098000DA80C0F0D680262800F0D980C0F0D5806B
:10099000282800F0D880C0F0D4802A2800F0D78022
:1009A000C0F0D3802C2800F0D680C0F0D2802E2852
:1009B00000F0D580C0F0D180302800F0D480C0F0A5
:1009C000D080322800F0D380C0F0CF80342800F0EF
:1009D000D280C0F0CE80362800F0D180C0F0CD802B
:1009E000382800F0D080C0F0CC803A2800F0CF80CA
:1009F000C0F0CB803C2800F0CE80C0F0CA803E28FA
:100A000000F0CD80C0F0C980402800F0CC80C0F05C
:100A1000C880422800F0CB80C0F0C780442800F096
:100A2000CA80C0F0C680462800F0C980C0F0C580EA
:100A3000482800F0C880C0F0C4804A2800F0C78071
:100A4000C0F0C3804C2800F0C680C0F0C2804E28A1
:100A500000F0C580C0F0C180502800F0C480C0F014
:100A6000C080522800F0C380C0F0BF80542800F03E
:100A7000C280C0F0BE80562800F0C180C0F0BD80AA
:100A8000582800F0C080C0F0BC805A2800F0BF8019
:100A9000C0F0BB805C2800F0BE80C0F0BA805D284A
:100AA00000F0BB80BBE00020C0E00020BEE00120E1
:100AB000BCE00120BAE00220B8E00320B6E0032049
:100AC000B4E00420B2E00420B0E00520AEE0052050
:100AD000ACE00620AAE00720A8E00920A6E00A2052
:100AE000A4E00B20A2E00B20A0E00C209EE00C2054
:100AF0009CE00D209AE00D2098E00E2096E00F205B
:100B000094E0102092E0112090E011208EE012205D
:100B10008CE012208AE0132088E0142086E0152063
:100B200084E0162082E0162080E018207EE0192064
:100B30007CE019207AE01A2078E01B2076E01C2067
:100B400074E01C2072E01C2070E01D206EE01D206F
:100B50006CE01D206AE01E2068E01E2066E01E207A
:100B600064E01F2062E01F2060E020205EE0202083
:100B70005CE021205AE0222058E0242056E0242086
:100B800054E0252052E0252050E026204EE027208A
:100B90004CE027204AE0282048E0282046E0292091
:100BA00044E0292042E02A2040E02C203EE02D2095
:100BB0003CE02E203AE02F2038E02F2036E0302095
:100BC00034E0302032E0312030E031202EE032209D
:100BD0002CE033202AE0342028E0342026E03520A1
:100BE00024E0352022E0362020E037201EE03820A7
:100BF0001CE039201AE0392018E03A2016E03A20AB
:100C000014E03B2012E03B2010E03B200EE03C20B3
:100C10000CE03C200AE03D2008E03D2006E040F2E8
:100C20007B129949002000F0CFFA0020C0B202BD2B
:100C3000002007E09549C2018A5822F00042C30112
:100C4000CA50401C3F28F5DB704770B504000E0009
:100C5000002000202000C0B2FFF736FE8B4DC0B24E
:100C6000C0012844006A80B206FB00F642F2107010
:100C7000B6FBF0F62000C0B2FFF726FEC001284404
:100C8000B6B246612000C0B2FFF71EFE0100C9B235
:100C9000C9012944096C51F00101C0B2C0012844C6
:100CA000016470BD2DE9F041AAB004000D001600EA
:100CB000342100221DAF380000F002FB0020742117
:100CC00000226F46380000F0FBFA0E201E90200034
:100CD000C0B2FFF740FC8DF87C002000C0B2FFF7E7
:100CE00086FA07005FF008082000C0B2FFF77FFA1D
:100CF0001DAA97FBF8F108FB11773900644BC0B2CD
:100D0000C010C001184400F0D8FB2000C0B2FFF7AB
:100D1000DBFD00220121C0B210F5937000B2FFF795
:100D20000AFA2000C0B2FFF7CFFDC0B210F59370F1
:100D300000B2FFF7FCF9092300220121C0B2FFF73E
:100D4000B5F92000C0B2FFF7BFFDC0B210F5937037
:100D500000B2FFF7ECF900220121C0B2FFF720FA40
:100D60004C48B0FBF5F1090C4A482A04B0FBF2F3F9
:100D700002FB1300002800D0491C022903D20020E6
:100D80008DF801002FE0032903D201208DF8010026
:100D900029E0052903D202208DF8010023E009296A
:100DA00003D203208DF801001DE0112903D2042095
:100DB0008DF8010017E0212903D205208DF80100EC
:100DC00011E0412903D206208DF801000BE08129B2
:100DD00003D207208DF8010005E040F2C9122A492C
:100DE000002000F0F1F904208DF8000001208DF8BA
:100DF000100000208DF8110003208DF81200032050
:100E00008DF8130000208DF80800224901229DF979
:100E100001008240B1FBF2F0B0FBF5F0401E0590FE
:100E20000598401C06FB00F642F21070B6FBF0F08D
:100E3000089002208DF8400003208DF86800012002
:100E40001B9001208DF828002000C0B2FFF73CFD68
:100E50000E4D6946C0B2C001284400F06DFB200071
:100E6000C0B2FFF731FDC0B2C001284400F064FCFD
:100E70002000C0B2FFF728FDC0B2C001284400F036
:100E800060FC2AB0BDE8F081789708100000584057
:100E90000000314000127A0082B000200190002052
:100EA00000900020019009E00098401C00900098FC
:100EB000B0F5005FF8D30198401C01900198B0F59F
:100EC000805F02D200200090F1E702B0704780B549
:100ED0000100002000F034FE01BD2DE9F043ADF526
:100EE000137D0700884616001C000020ADF80200A4
:100EF0000020ADF80000002002900020ADF80400B2
:100F00000020ADF80600404601F03AF80290DFF804
:100F100078532888002801D028698047DFF86C03BF
:100F20000078002800F033812888002800F0118123
:100F3000BDF90600411CADF806103A00010089B267
:100F40000020EB6898474746404601F019F80290A8
:100F50006888A97990FBF1F0ADF804003800471CCF
:100F600000780028FAD10020ADF800000EE07F1EC6
:100F700038782F2802D038785C2804D1BDF80000DA
:100F8000401CADF800000298401E0290BDF8000021
:100F9000022802DA02980028E9D50298002806D42F
:100FA0007A1CDFF8EC1253A801F006F80EE0BDF849
:100FB0000000002805D13A00B64953A800F0FCFF14
:100FC00004E03A00B24953A800F0F6FF0020ADF863
:100FD000020042E0BDF80010BDF80020BDF802306C
:100FE00053AF9BB2BDF90400434313FA82F0385C5F
:100FF00043AA89B25054BDF80000401CADF800006F
:10100000BDF8000080B2BDF9041088420EDA53A882
:1010100000F0B6FFBDF80020BDF802309BB2BDF96C
:1010200004104B4313FA82F18842D3D2002043A923
:10103000BDF800208854BDF90600411CADF806102B
:1010400043AAE97911FB00F189B20020EB689847C7
:10105000BDF80200401CADF80200BDF8027053A8B4
:1010600000F08EFFBDF90410B0FBF1F0401CBFB2E0
:10107000874203D20020ADF80000C1E73200864964
:1010800053A800F099FFBDF90600411CADF8061009
:1010900053AAE97911FB00F189B20020EB68984767
:1010A000002C74D00020ADF8020041E0BDF8001023
:1010B000BDF80020BDF802309BB2BDF904004343E7
:1010C00013FA82F0205C43AA89B25054BDF80000A4
:1010D000401CADF80000BDF8000080B2BDF904105E
:1010E00088420EDA200000F04BFFBDF80020BDF86A
:1010F00002309BB2BDF904104B4313FA82F18842CF
:10110000D4D2002043A9BDF800208854BDF90600C0
:10111000411CADF8061043AAE97911FB00F189B230
:101120000020EB689847BDF80200401CADF80200B3
:10113000BDF80260200000F023FFBDF90410B0FBF1
:10114000F1F0401CB6B2864221D20020ADF800007A
:10115000C1E74FF4807100220DF10C09484600F000
:10116000AFF83800A9688847002C07D000943300F6
:1011700042464A4903A800F01FFF05E033004246FB
:10118000474903A800F018FF03A8A96888470DF590
:10119000137DBDE8F08310B53C480078002809D0E5
:1011A000414C2100002000F0D9FC012221003D48E3
:1011B00000F087FF10BD10B514002200D2B200204D
:1011C00000F0AFFC200010BD38B50C001500C0B217
:1011D000002803D135480078002800D131BD3449BA
:1011E0000878002800D0FEE70878401C087001F05D
:1011F00071F900232A0021002E48FFF76EFEFFF749
:101200004BFEF6E710B514001A00C0B2002808D152
:101210001E480078002804D00B0021002648FFF764
:101220005CFE10BD002101804FF6FF71418081807E
:10123000FF218171C171002181600021C160002105
:1012400001617047104902880A8042884A8082887A
:101250008A8082798A71C279CA7182688A60C2681A
:10126000CA6000690861012008490870704700B52C
:1012700085B06846FFF7D6FF104802906846FFF732
:10128000E1FF05B000BD0000AC8F02283A920228B1
:10129000589B0810389B0810649B0810BC990810D4
:1012A000BC9A0810509102283B9202289E070228FF
:1012B0003C920228489B0810709B0810CF0E081023
:1012C00062F30F2262F31F42401810F0030308D0AC
:1012D000C91A1FD3DB0748BF00F8012D28BF20F82B
:1012E000022D130030B414461546103928BF20E9EA
:1012F0003C00FAD8490728BF20E90C0048BF40F855
:10130000042D890028BF20F8022D48BF00F8012DC8
:1013100030BC7047C91818BF00F8012DCB0728BF93
:1013200000F8012D7047F0B4024610689568131854
:10133000506803EB5004C00748BF4D44A3422DD072
:1013400013F8016B16F0030004BF13F8010BC01C67
:1013500031090F2907D113F8011B0F3103E013F8EE
:10136000017B05F8017B401EF9D10029E6D013F876
:10137000010BC6F38106032E08BF13F8016B00EBC7
:101380000620404228440026B71E8F421EBF10F898
:10139000017B05F8017B761CF6D1CFE7F0BC02F1AA
:1013A0000C00704730B4614B1818C009604C14EB46
:1013B000001404290DD223681F25C8008540AB43C3
:1013C000D2B212F01F02C90012FA01F119432160D2
:1013D0000CE0091F63681F25C8008540AB43D2B2EB
:1013E00012F01F02C9008A401A43626030BC704785
:1013F000002A04D1012212FA01F1416003E0012226
:1014000012FA01F18160704710B48900436C0F2417
:101410008C40A34312F00F0212FA01F11943416408
:1014200010BC704710B4836C01248C40A34312F0AD
:10143000010212FA01F11943816410BC704710B423
:10144000C36C01248C40A34312F0010212FA01F193
:101450001943C16410BC704710B449001031C36C0B
:1014600003248C40A34312F0030212FA01F1194342
:10147000C16410BC70474269012212FA01F1416156
:101480004069704710B4836901248C40A34312F073
:10149000010212FA01F11943816110BC704710B4C6
:1014A0004900036C03248C40A34312F0030212FA98
:1014B00001F11943016410BC7047F8B505000E0036
:1014C00014000027002D2ED0002C2CD022683100D3
:1014D0002800FFF78DFF227A31002800FFF762FF16
:1014E000626931002800FFF79DFFA26931002800E2
:1014F000FFF7A5FFE26931002800FFF7ADFF626842
:1015000031002800FFF780FFE26831002800FFF774
:10151000C6FF31002800FFF7AEFF22693100280026
:10152000FFF7B0FF00E0034F3800F2BD0000CFBF6F
:101530000000304001005A000122002800F0EC8039
:10154000002900F0E980754A12680B7A63F3924231
:101550000B7B13F0030363F311420B7813F00703C3
:1015600063F31A628B7863F39E7291F8283063F309
:10157000000291F8343063F341020B7F63F382027F
:101580004B7F63F3C30291F8403063F38A2291F8F2
:101590004030DBB25B08DBB263F3492291F8703074
:1015A00063F3082291F8713013F0030363F30D32F3
:1015B00002600A7A002A02D10022826007E00A7AD9
:1015C000012A02D14A69826001E0012282600A6A2E
:1015D00002614A6A4261CA6A82610A6BC2614A69EF
:1015E00002628A6942624E4A126891F8443003F0FE
:1015F000FF03120A12021A4391F84C3003F0FF0362
:1016000063F3174291F85C3003F0FF0363F31F624A
:1016100091F86C3003F0FF0363F30F224264414AF8
:10162000126891F8643003F0FF0363F30F2291F81E
:10163000543003F0FF03120A12021A4382643A4A3A
:10164000126891F8413013F00303920892001A4394
:1016500091F8603013F0030363F38B2291F8483064
:1016600013F0030363F3051291F8503013F00303F2
:1016700063F3092291F8583013F0030363F38712E0
:1016800091F8683013F0030363F38302C264274ABE
:10169000126891F8723013F00703D208D2001A438F
:1016A00091F8733013F0070363F30612426591F863
:1016B000352082671E4A12680B7C13F003039208E0
:1016C00092001A43CB7C13F0030363F387124B7C25
:1016D00013F0030363F383028B7C13F0030363F3C0
:1016E00005120265134A1268CB8863F31F428B8888
:1016F0009BB21B0A9BB263F30F220B78052B06D11A
:10170000097901F0FF01120A12020A4302E0497846
:1017100061F307020263002210007047A09C0810CA
:10172000A49C0810A89C0810AC9C0810B09C081041
:10173000B49C0810B89C0810016851F00041016089
:1017400070474030016851F0100101607047026835
:10175000531C036011707047022801D3012010E070
:101760000B00DBB2042B01DB01200AE0DFF8CC37F1
:1017700003EB8000C9B2405C824201D3012000E04B
:1017800000207047F8B504000F0015001E00022C61
:1017900001D301202AE02A003900C9B22000FFF756
:1017A000DBFF012801D1012020E006983900C9B2F1
:1017B00002291ED1B6F5803F19D2202817D24FF446
:1017C000C052DFF87C1763030B4403EB850313441B
:1017D0001F6866F317271F606403214401EB85012E
:1017E00011440A6860F3C7020A600020F2BD0120BC
:1017F000FCE7FFB2032F1FD1B6F1807F1AD2202859
:1018000018D24FF4E052DFF8381763030B4403EBB0
:10181000850313441F6807F0FF0757EA06271F6078
:101820006403214401EB850111440A6860F3C70297
:101830000A60DAE70120D9E70120D7E700B20012F9
:10184000C0B27047F8B505000E001700280000B2BE
:10185000FFF7F4FF04002000C0B2022801D30120EA
:1018600024E03A003100C9B22000C0B2FFF774FF93
:10187000012801D1012019E0DFF8C4162000C0B210
:10188000400308442A00D2B200EB8200D0F8000CDA
:10189000F6B266F3092067F30700E4B2640321445B
:1018A000EDB201EB8501C1F8000C0020F2BD70B56E
:1018B00004000D001600022C01D301201DE03200AF
:1018C0002900C9B22000FFF747FF012801D10120FC
:1018D00013E0DFF86C166003085850F0004050F039
:1018E000407050F47F00EDB265F3092066F3070005
:1018F0006203885064030859002070BDD0F840038B
:101900007047D0F80803C005C00D7047C0F84012FA
:101910007047D0F80802C005C00D7047D0F8080223
:10192000C0F3C030704738B505002800FFF7F1FF5D
:1019300004002800FFF7F2FF0419002C01D1012058
:1019400000E00020C0B232BDC0F8C81F7047D0F818
:10195000C80F7047C0F8881F7047D0F8880F7047CD
:10196000016851F000410160704738B5040015006E
:10197000C9B2002906D002291ED010D3042935D0BF
:1019800027D340E0DFF8BC05A060012020731120C0
:1019900060734FF48C70E0811220208239E0DFF810
:1019A000A805A060012020731120607340F21D1073
:1019B000E0816B2020822CE0DFF89005A060012000
:1019C0002073112060734FF48E70E0816A202082B2
:1019D0001FE0DFF87C05A0600220207311206073F7
:1019E00040F21B10E0816920208212E0DFF86405DC
:1019F000A06001202073132060734FF48D70E0818C
:101A00006820208205E07C22DFF84C150020FFF7DB
:101A1000DBFBEDB2002D06D0022D1ED010D3042D1D
:101A200035D027D340E0DFF81C052060002020716E
:101A3000112060714FF48C70E0811220208239E017
:101A4000DFF804052060002020711120607140F251
:101A50001D10E0816B2020822CE0DFF8F004206074
:101A600000202071112060714FF48E70E0816A2097
:101A700020821FE0DFF8D8042060012020711120AF
:101A8000607140F21B10E0816920208212E0DFF8D3
:101A9000C404206000202071132060714FF48D7009
:101AA000E0816820208205E0A822DFF8AC14002045
:101AB000FFF78AFB31BD10B5C0B2002806D002285E
:101AC0000AD006D304280DD009D30EE0DFF88C44E9
:101AD00011E0DFF88C440EE0DFF888440BE0DFF81B
:101AE000884408E0DFF8844405E0BD22DFF868148C
:101AF0000020FFF769FB200010BD38B50400DFF8B7
:101B00007054C9B22000C0B255F82000FFF7FEFEA5
:101B10002000C0B255F82000FFF705FF0028F7D0DD
:101B200031BD70B505000E00140006E031782800C4
:101B3000C0B2FFF7E2FF641E761C002CF6D170BD28
:101B400038B504000D0005E029782000C0B2FFF789
:101B5000D4FF6D1C28780028F6D131BD70B5040083
:101B60000D000020DFF808642000C0B256F8200005
:101B7000FFF7C7FE002807D0E4B256F82400FFF7AD
:101B8000BDFE2870012000E00020C0B270BD70B51D
:101B900005000C00DFF8D8632800C0B256F820001A
:101BA000FFF7DBFE4008400001002800C0B256F8F5
:101BB0002000FFF7CFFE2800C0B256F82000FFF744
:101BC000CCFE30F0020001002800C0B256F8200020
:101BD000FFF7C0FE2800C0B256F82000FFF7BDFE98
:101BE00030F0200001002800C0B256F82000FFF7B6
:101BF000B1FE2800C0B256F82000FFF7AEFE30F06C
:101C0000400001002800C0B256F82000FFF7A2FEF5
:101C10002800C0B256F82000FFF79FFE30F01000F9
:101C200001002800C0B256F82000FFF793FE2800FC
:101C3000C0B256F82000FFF790FE30F4807001002B
:101C40002800C0B256F82000FFF784FE2800C0B27A
:101C500056F82000FFF781FE30F480600100280074
:101C6000C0B256F82000FFF775FE002C0ED02800F9
:101C7000C0B256F82000FFF76AFE50F40070010071
:101C8000EDB256F82500FFF765FE0DE02800C0B262
:101C900056F82000FFF75BFE30F400700100EDB253
:101CA00056F82500FFF756FE70BD70B505000C0014
:101CB000DFF8BC622800C0B256F82000FFF747FEEC
:101CC0004008400001002800C0B256F82000FFF78D
:101CD0003BFE2800C0B256F82000FFF738FE30F077
:101CE000080001002800C0B256F82000FFF72CFEC3
:101CF0002800C0B256F82000FFF729FE30F020007F
:101D000001002800C0B256F82000FFF71DFE280091
:101D1000C0B256F82000FFF71AFE30F480700100C0
:101D20002800C0B256F82000FFF70EFE2800C0B20F
:101D300056F82000FFF70BFE30F400700100280079
:101D4000C0B256F82000FFF7FFFD2800C0B256F8D9
:101D50002000FFF7FCFD30F4006001002800C0B255
:101D600056F82000FFF7F0FD002C0ED02800C0B27E
:101D700056F82000FFF7EBFD50F004000100EDB233
:101D800056F82500FFF7E0FD0DE02800C0B256F838
:101D90002000FFF7DCFD30F004000100EDB256F842
:101DA0002500FFF7D1FD70BD2DE9F841A7B0050072
:101DB0000F00160028003100C0B2C9B2884201D11C
:101DC000012000E000201C00DFF88C814FF4CE726F
:101DD0004146C0B2FFF7F8F928002100C0B2C9B2ED
:101DE000884201D1012000E0002040F29D124146CE
:101DF000C0B2FFF7E9F902A8142100F093FB3421E7
:101E000000220DF168084046FFF75AFA4C210022E3
:101E10000DF11C084046FFF753FAFF003A0000237B
:101E20005448002100F082FB07002200D2B23100AA
:101E3000C9B202A8FFF799FD08201B909DF80D007C
:101E40008DF870001AAA9DF80C100298FFF735FB68
:101E500006201B909DF80D008DF870001AAA9DF8C1
:101E600014100498FFF729FB002007900820089021
:101E70000820099002200B9000200C900020129066
:101E8000002014903A4C2800C0B254F8200000F012
:101E9000A7FD39492A00D2B2382042430A4407A993
:101EA0002800C0B254F8200000F058FC2800C0B24E
:101EB00054F82000FFF754FD2A00D2B20321BDF9E7
:101EC0001600FFF7BFFCBDF91600FFF7B7FC17F0CF
:101ED0001F010091C7F357132A00D2B20321C0B2E9
:101EE000FFF750FCBDF91600FFF7A8FC2A00D2B29C
:101EF0000321C0B2FFF7DBFCBDF91800ADF800000C
:101F00000320ADF8020001208DF8040007221B48D1
:101F10002900C9B250F82110684600F0E7FA002104
:101F20002800C0B2FFF7C1FE00212800C0B2FFF7B1
:101F30002EFE28B0BDE8F081000000000C9C0810C7
:101F400000000440000031400002314000053140F3
:101F50008008314000073140BC9708100000604005
:101F600000006540000064400000634000006240E3
:101F70008007022800809698008802286C070228B3
:101F800000F10103810704D010F8011B820781B121
:101F9000FAD10268A2F10131914311F0803104BFFE
:101FA00050F8042FF6E709BAB1FA81F100EBD1003D
:101FB000401CC01A704700000CB430B583B00A460C
:101FC00006A90291044600250194009502AB01A9DF
:101FD000084878441E3000F04EFD019A1570002824
:101FE0004EBF04460198041B204603B030BC5DF888
:101FF0000CFB00BF5BF7FFFF82688918816003E07C
:1020000082684169521A8260816842699142F7D2BE
:102010007047C2688918C16003E0C2684169521AFA
:10202000C260C16842699142F7D2704770B504003E
:10203000002C01D0012000E000205422DFF8FC1326
:10204000C0B2FFF7C1F80025207850F001002070E1
:102050000020A0600020E0606069206160780028B6
:1020600003D0022810D007D315E06169002266680A
:102070003000FFF725F90EE061694900002266682B
:102080003000FFF71DF906E06169890000226668EB
:102090003000FFF715F9002020702800C0B270BD95
:1020A00010B50400002C01D0012000E000207022B7
:1020B000DFF88813C0B2FFF787F860692169401A1A
:1020C00010BD2DE9F84305001600002D01D00120B8
:1020D00000E000200C00AA22DFF86013C0B2FFF776
:1020E00073F800270020002C01D10327B5E02878E1
:1020F00010F0050F01D00427AFE0287850F004005D
:1021000028702869B042C0F0A380D5F81480A86870
:10211000B8EB0008B04567D26878002803D00228E1
:1021200041D01FD390E0424621006868AB6800EBC5
:102130000309484601F026FB41462800FFF75CFFF3
:10214000B6EB080204EB08016868AB6800EB030417
:10215000200001F017FBB6EB080841462800FFF706
:102160004BFF71E05FEA480221006868AB6800EB52
:102170004309484601F006FB41462800FFF73CFFB3
:10218000B6EB0802520004EB48016868AB6800EB4C
:102190004304200001F0F6FAB6EB08084146280097
:1021A000FFF72AFF50E05FEA880221006868AB6809
:1021B00000EB8309484601F0E5FA41462800FFF7A5
:1021C0001BFFB6EB0802920004EB88016868AB685D
:1021D00000EB8304200001F0D5FAB6EB0808414675
:1021E0002800FFF709FF2FE06878002803D00228B5
:1021F0001DD00ED328E0320021006868AB6800EBE8
:102200000304200001F0BEFA31002800FFF7F4FEBD
:102210001AE0720021006868AB6800EB43042000FC
:1022200001F0B0FA31002800FFF7E6FE0CE0B20042
:1022300021006868AB6800EB8304200001F0A2FA7B
:1022400031002800FFF7D8FE2869861B2E6100E0C8
:102250000527287810F0FB0028703800C0B2BDE8D0
:10226000F2832DE9F04705000E001F00002D01D07C
:10227000012000E000201400DFF8C08140F25B1272
:102280004146C0B2FEF7A0FF002C01D0012000E0C3
:1022900000204FF4AE724146C0B2FEF795FF5FF0EA
:1022A000000800200020002E02D15FF003088BE020
:1022B000297811F0030F03D020605FF006089CE03E
:1022C0002800FFF7EDFE2168884209D220605FF008
:1022D0000708002804D1287810F0F70028708CE057
:1022E000287850F008002870D5F81490E868B9EB09
:1022F00000092068814522D36878002803D002288D
:1023000013D008D35CE022686868E96801443000B3
:1023100001F038FA54E0226852006868E96800EB7E
:102320004101300001F02EFA4AE02268920068680C
:10233000E96800EB8101300001F024FA40E06878A0
:10234000002803D0022827D011D339E04A46686814
:10235000E9680144B246504601F014FA2268B2EB33
:10236000090269684E44300001F00CFA28E05FEA87
:1023700049026868E96800EB4101B246504601F045
:1023800001FA2268B2EB09025200696806EB4906BD
:10239000300001F0F7F913E05FEA89026868E96844
:1023A00000EB8101B246504601F0ECF92268B2EB35
:1023B00009029200696806EB8906300001F0E2F933
:1023C000287810F0F7002870FFB2002F15D1287878
:1023D0000B2802D15FF002080FE0287850F00200CD
:1023E000287021682800FFF714FE29692068411829
:1023F0002961287810F0FD0028704046C0B2BDE881
:10240000F087F8B504000E0017001D00002C01D065
:10241000012000E000204FF407720849C0B2FEF727
:10242000D3FE002067600021217066700021A1604A
:102430000021E16025616561C0B2F2BDFC4D08106C
:10244000010009B2002908D4012210F01F018A40BE
:102450001B4900B2400941F820207047010009B231
:10246000002908D4012210F01F018A40154900B24A
:10247000400941F820207047020012B2002A04D41B
:102480004901114A00B2115407E049010F4A00B254
:1024900010F00F00104400F8041C7047002800D111
:1024A00062B60B480168491C0160704772B6084962
:1024B0000868002802D00868401E08600868704755
:1024C00000E100E080E200E000E400E018ED00E060
:1024D0001C92022880B5FFF7E9FFFEF7A9FB01BDBA
:1024E00080B5C9B200B2FFF7C7FF01BD70B50400E7
:1024F0000D001600200001F099F92900B4F9000040
:1025000001F0D3F93100C9B2B4F90200FFF7E8FFD6
:10251000B4F90200FFF7A2FFB4F90200FFF790FF41
:1025200070BD0000002201F0D7B90000BBBBE1B1D3
:10253000B2F5803F80F07E80022A1ED98C46B1FB26
:10254000F2F102FB11C31B0443EA1043B3FBF2FC9C
:1025500002FB1C3380B240EA0343B3FBF2F002FB00
:10256000103240EA0C4000237047022A05D9844605
:10257000B0FBF2F002FB10C270474AB105D100F087
:10258000010249085FEA30007047002200237047CB
:1025900001F0BCB90B0002000021002070479042FE
:1025A00071EB030CF6D3B3F5803F2FD2F0B5B3FA3D
:1025B00083F7B1FA81F4A7F10F0E3D1B5340CEF122
:1025C000200602FA0EF2F3415340B5F10F0746D848
:1025D0000F3C2C444140C4F12006A040F141414051
:1025E000B1FBF3F603FB1611A2FB0645001BA94144
:1025F00002D2761E8018594180EA010221FA0EF3B8
:1026000062FA0EF200215A403046F0BD30B4B1FB00
:10261000F3FC03FB1C11A2FB0C45001BA94103D2D8
:10262000ACF1010C8018594130BC02460B466046A3
:1026300000217047B2F1807F65D3F0B5B2FA82F71E
:10264000B1FA81F4C7F10F063D1B22FA06F307F138
:10265000110EF24120355A40B5F10F07B8D941406B
:10266000C4F12006A040F1414140B1FBF3FC03FB63
:102670001C11A2FB0C45001BA94103D2BCF1010CAB
:10268000801859410F2F12D30F3FC90341EA50411F
:10269000B1FBF3F603FB1611A2FB0645D4EBC030E9
:1026A000A94102D2761E8018594146EACC3C07B3B4
:1026B0004140C7F12006B840F1414140B1FBF3F67B
:1026C00003FB1611A2FB0645001BA94102D2761E90
:1026D0008018594180EA010221FA0EF3C7F1200463
:1026E00062FA0EF20CFA07F05A402CFA04F1304369
:1026F000F0BD80EA010221FA0EF3002162FA0EF227
:1027000060465A40F0BD8C46B1FBF2F102FB11C3AA
:102710001B0243EA1063B3FBF2FC02FB1C331B02F7
:102720004CEA002043EA1063B3FBF2FC02FB1C33CB
:102730001B024CEA002043EA1063B3FBF2FC02FBED
:102740001C331B024CEA002043EA1063B3FBF2FC8B
:1027500002FB1C324CEA0020002370472DE9F44FA5
:10276000DFF8D822DFF8D8321B68DFF8D8422468B7
:10277000DFF8D4522D68DFF8D4623668DFF8D07203
:102780003F68DFF8D0C2DCF800C0DFF8CCE2DEF84A
:1027900000E0DFF8C882D8F80080DFF8C492D9F8EA
:1027A0000090DFF8C0A2DAF800A0002800F0158140
:1027B000002900F012810A68022A06D191F8262029
:1027C000002A02D15FF0000B03E0D1F804B0BBF1A6
:1027D000010B91F82420002A01D0012200E0002200
:1027E00062F3104333F440436BF30303022262F3BA
:1027F000196303600A7812F0030262F31964046437
:1028000091F82520002A01D0012200E0002262F385
:102810008615CA7E002A01D0012200E0002262F360
:102820008A254A7E002A01D0012200E0002262F3BC
:1028300008258A7E002A01D0012200E0002262F3EE
:1028400049258A6B521E12F00F0262F313450A6982
:10285000521E12F00702ED08ED0015434A6962F3BB
:1028600004154A69520862F3451585640A7B002AFB
:1028700001D0012200E0002262F308260A7E002A2D
:1028800001D0012200E0002262F349268A68521E2C
:1028900012F01F02760976011643C0F800630A7F22
:1028A00002F0FF023F0A3F02174391F8202002F096
:1028B000FF0262F31747C0F8107391F82720002A2F
:1028C00001D0012200E0002262F3082C0A69521EA6
:1028D00012F007025FEADC0C5FEACC0C52EA0C0C47
:1028E0004A6962F3041C4A69520862F3451CC0F845
:1028F00044C00A7B002A01D0012200E0002262F3DA
:10290000082E8A68521E12F01F025FEA5E1E5FEAFE
:102910004E1E52EA0E0E0A68012A01D1012200E081
:10292000002262F3104EC0F800E291F83C2002F061
:10293000FF025FEA18285FEA082852EA0808C0F890
:10294000048391F82820002A01D0012200E000220F
:1029500062F35969CA6A012A01D1012200E000220A
:1029600062F318694A6B012A01D1012300E00023B8
:10297000009A63F3104991F8303003F0FF035FEAE7
:1029800019295FEA092953EA0909C0F8509091F81A
:10299000443003F0FF035FEA1A2A5FEA0A2A53EA87
:1029A0000A0AC0F804A28B6CC0F8883F096CC0F812
:1029B000C81F002A10D000205060002010600020A6
:1029C00090600020D060002010620020D0620020C3
:1029D0001063DFF89400506300221000BDE8F28F0E
:1029E000DFF8881001605FF4401101640021816408
:1029F00040F20711C0F800130022C0F8042300229F
:102A0000C0F8102300224264C0F800120021C0F870
:102A10000412002101650021C0F8C81E0021C0F881
:102A2000881E0021C0F8C81F0021C0F8881F00219F
:102A3000C0F8081F0021C0F8481F70470160AA00B5
:102A40005C9C0810609C0810649C0810689C08102E
:102A50006C9C0810709C0810749C0810789C0810DE
:102A60007C9C0810809C0810EFCDAB000F00000389
:102A700040F0200070472DE9F14FB0B0914604912D
:102A80000DF142013A9A21914A7000210DF195020F
:102A90001E460D912F920BE019F8011B0498309AF5
:102AA00090470028049000F063850D98401C0D901D
:102AB00099F8000050B12528EED10021002207919D
:102AC000089209910A920B910C9204E00D9800F083
:102AD00051BD41F0010119F8010F2028F9D0232838
:102AE0000CD02B2804D02D2805D0302809D00BE09D
:102AF00041F00201EFE741F00401ECE741F0080189
:102B0000E9E741F01001E6E72A280DD1326852F8D2
:102B1000040B326000280F9003D540420F9041F023
:102B2000040109F1010914E00F92DFF8A83B0AE063
:102B30000F98984205DA00EB800402EB4402303A29
:102B40000F9209F1010999F80020A2F130000A283A
:102B5000EED399F800002E2803D04FF0FF320E92EA
:102B600027E019F8010F2A2807D1306850F8042B04
:102B700030600E9209F101091BE02D280CBF09F10C
:102B80000109002000220E92DFF8484B0BE040B90B
:102B90000E9AA24205DA02EB820503EB4503303BB5
:102BA0000E9309F1010999F80030A3F130020A2AC5
:102BB000EDD3ADF840100FF6603099F8001000F03A
:102BC000A7FE08B119F8010B8DF842009DF84200EC
:102BD000682805D199F8000068280CD1622106E028
:102BE0006C2804BF99F800006C2804D171218DF87D
:102BF000421009F1010912A9069119F8012B8DF86B
:102C000000201746B7F1250026D02038022840F2D0
:102C10007981133800F0EC830B3800F07684401E85
:102C200000F02B84401E022840F26C81001F00F04F
:102C30002484401F00F0EC80401E00F0D983401E29
:102C400000F0D780C01E0CD0801E00F0D183C01EC3
:102C500000F0CE8300F062BC01220792252100F033
:102C60005ABC306850F8044B3060002C059440F09A
:102C7000AD8021994878002800F0A4804FF0FF34FF
:102C80000FF6CC2000F050FE241A40F0718400F0C2
:102C900053BC01236A4602A9384600F025FD0028EE
:102CA00040F06684641EF4D13097079C0DF148080B
:102CB00074B1309F18F8011B0498B847002804909D
:102CC00000F056840D98401C641E0D90F2D1309790
:102CD0000A9C3021002C8DF800100CDD309F012360
:102CE0006A4602A9384600F0FFFC002840F0408404
:102CF000641EF4D13097DDF81480089C74B1309FC5
:102D000018F8011B0498B8470028049000F030849C
:102D10000D98401C641E0D90F2D130970B9C302111
:102D2000002C8DF800100CDD309F01236A4602A9AB
:102D3000384600F0D9FC002840F01A84641EF4D113
:102D4000309705980899099C00EB010874B1309FF1
:102D500018F8011B0498B8470028049000F0088474
:102D60000D98401C641E0D90F2D130970C9C3021C0
:102D7000002C8DF800100CDD309F01236A4602A95B
:102D8000384600F0B1FC002840F0F283641EF4D114
:102D900030979DF8400041077FF58AAE2020002D36
:102DA0008DF800007FF784AE309C01236A4602A9AB
:102DB000204600F099FC002840F0DA836D1EF4D123
:102DC000309475E60FF6A4100590B5E30E9D002D26
:102DD00004D52046FFF7D4F8044608E02A4600212F
:102DE000204600F0C1FD002814BF041B2C460894A7
:102DF000A2E3316851F8040B316020F00004002197
:102E000021F0FF35CDE9024512AB0593782178E337
:102E10002199487820B14FF0FF340FF6041031E7C4
:102E20009DF84200622853D0682815D06A2836D011
:102E30006C2806D071283CD0742825D07A2818D068
:102E400053E0316851F8040B3160002857D14FF03E
:102E5000FF340FF6E40015E7316851F8040B3160D8
:102E600020B94FF0FF340FF6D0000BE70D99018029
:102E700062E3316851F8040B316000283FD14FF014
:102E8000FF340FF6B400FDE6316851F8040B3160F1
:102E9000002834D14FF0FF340FF69C00F2E6316881
:102EA00051F8040B316070B94FF0FF340FF6880011
:102EB000E8E6316851F8040B316020B94FF0FF3477
:102EC0000FF67400DEE60D9AD317C0E9002333E352
:102ED000316851F8040B316020B94FF0FF340FF620
:102EE0005800CFE60D99017026E3316851F8040BC4
:102EF000316020B94FF0FF340FF63C00C2E60D9967
:102F0000016019E39DF842004C2807BF3168CA1DD3
:102F10003068C21D22F007023260D2E90001083297
:102F20003260CDE90201C80F02D007982D210AE0D6
:102F3000BDF84000810702D507982B2103E0C007A8
:102F400005D50798202112AA1154401C079012A8F9
:102F500007994518DDE90201CDE92201059525AC67
:102F60000E98002848BF062007D402BF9DF8000035
:102F700040F02000672801D101200E90DDE9020118
:102F80004A0042EAD07253154FEAE27B4FF0FF321B
:102F9000934508BF93420FD1090341EA1051000342
:102FA000002908BF002807D0613F03201A2F08908E
:102FB00017D30FF2C0710FE0DDE902014A0052158C
:102FC00012F1010F10D108030ED1613F03201A2F17
:102FD00008901AD30FF2A4710322284600F0D2FB06
:102FE000AAE20FF28C71F7E7DDE9020101AA00F015
:102FF000E7FCCDE9020120F0000231F0004308BFF8
:10300000002A05D100270025B7E00FF26C71E3E735
:103010000199DFF8C42647F29750414391FBF2F241
:103020000192DDE92245C2F10702002A25F00045A0
:1030300004DD2046294600F02AFB0BE05242002026
:10304000DFF8981600F023FB02460B46204629467F
:1030500000F0EEFC04469DF8000040F0200A0D460A
:10306000BAF1660F06BF019800F10A084FF0060892
:103070000E988044B8F1140FC8BF4FF014083020E8
:103080008DF894000DF19507B8F1000F36DD20465C
:10309000294600F0D6FC01460A4607F10803042041
:1030A0000A27B2FBF7F707EB870EA2EB4E0230328E
:1030B00003F8012C0A22B7FBF2F202EB820EA7EB17
:1030C0004E073037401E03F8027DE9D1A8F1080809
:1030D000B8F1000F03F10807D6DD084600F0B8FC90
:1030E00002460B462046294600F0B9FC0022DFF8D4
:1030F000F03500F0BDFC04460D46C8E72F983F1A96
:103100000DF1950404E00198401E7F1E0190641C9F
:1031100020783028F7D0BAF1660F02D10198401C10
:1031200004E0BAF1650F0CBF012000200E99401891
:103130008742B8BF781E00281DD4B84204DA215C4B
:103140003429C8BF392100DC30210246631E9D1896
:1031500000E0401E15F80179521E8F42F9D039293E
:1031600002D1A15C491CA154002A04D50199491C33
:103170001C46401C01910746019D9DF80080DDF82A
:1031800038A038B2002802DC01270FF2F45448F0CE
:103190002000662808BF6D1C17D067280FFA85FB32
:1031A0005AD11BF1040F43DBD34541DA9DF84000AF
:1031B0006D1C010703D438B25045D8BF824628B2EF
:1031C000BAEB000A48BF4FF0000A0FFA85F8B8F1D1
:1031D000000F00F3AA800898411C0891302205993D
:1031E0000A54BAF1000F03DC9DF84000010705D531
:1031F0000898411C08912E2205990A541AEB080FD1
:10320000B8BFCAF100052DB26842AA443AB20B9089
:103210009245B8BF5746059B08983FB209973A4672
:103220002146184400F0AEFAAAEB07000C90C8E063
:1032300038B2504504DA9DF840100A0758BF82465C
:10324000BAF1010A48BF4FF0000AB8F1670F0CBF8E
:103250004FF065084FF045080898411C0891BAF1F5
:10326000000F059914F8012B0A5403DC9DF8400067
:1032700001071BD50898411C08912E2205990A5474
:10328000BAF1000F12DD7F1E38B28245B8BF574633
:103290000598089B3AB22146184400F073FA089842
:1032A0003FB238180890AAEB07000B9005980899D0
:1032B0000844BBF1000F80F8008003D42B22427039
:1032C000811C04E02D2141705D46811C6D4200206F
:1032D00022AA0A2409E02B4693FBF4F505EB8507A7
:1032E000A3EB470302F8013B401C2DB2002DF2DC9A
:1032F000012806DC48F02002652A04BF302201F8CC
:10330000012B002822AA08D1302001F8010B06E089
:10331000401E135C303301F8013B0028F8DC059AAD
:1033200008981044091A09914BE038B229B2884232
:103330001DDA0598089B3AB22146184400F022FA9B
:1033400008993FB279180891A8EB0700BAF1000F6D
:103350000B9003DC9DF84000020705D5059A2E204E
:1033600050540999491C0991CDF830A029E00598DD
:10337000089B2AB22146184400F004FA08987F1BE3
:103380004044BAF1000F089003DC9DF840100A0792
:1033900004D5411C08912E2205990A5438B2824561
:1033A000B8BF57460598089B3AB204EB0801184489
:1033B00000F0E8F908983FB23818AAEB0707089020
:1033C0000B979DF8400000F01400102840F0B480E6
:1033D000079A08980B99821809988A1882180C98ED
:1033E0000F998018884280F2A780081A0A90A3E0FB
:1033F0009DF84200622808D068280CD06A2810D0B6
:103400006C2818D071280CD015E0316851F8040BE5
:103410003160C0B213E0316851F8040B316080B202
:103420000DE03068C21D22F007023260D2E90001CF
:103430000832326004E0316851F8040B3160002139
:10344000CDE902019DF84000010754D5DDE90223D2
:10345000002B08BF002A4ED09DF8000040F020004D
:10346000782848D1079812A930220A54401C431CDE
:103470009DF8002007930A543DE09DF84200622821
:1034800008D068280CD06A2810D06C2818D0712871
:103490000CD015E0316851F8040B316040B213E0F4
:1034A000316851F8040B316000B20DE03068C21D84
:1034B00022F007023260D2E900010832326004E0F3
:1034C000316851F8040B3160C117CDE902010029C0
:1034D00002D507982D210AE0BDF84000810702D5EA
:1034E00007982B2103E0C00705D50798202112AAD1
:1034F0001154401C079012A80799014405919DF8AA
:10350000001002A800F039F816E00120079030689A
:1035100050F8041B30608DF848100DE00121252281
:103520009DF8000007918DF8482028B19DF8000013
:103530008DF84900022107910F9D07990A986D1A8D
:1035400008992D1A0B986D1A09992D1A0C986D1A55
:103550009DF840102D1A48073FF5A7AB2021002DFC
:103560008DF800107FF7A1AB309F2C46FFF791BB81
:103570004FF0FF3031B0BDE8F08F2DE9FC47074632
:103580008A463C6950466F2808BF082505D0FFF7DA
:103590006FFA782814BF0A251025D7E900013C26C8
:1035A00080468946BAF1640F18BFBAF1690F05D198
:1035B000002903D5D8F1000869EB4909B9F1000FDA
:1035C00008BFB8F1000F0CD1386B50B9082D3AD1B3
:1035D00097F83800010736D530223B2684F83B2087
:1035E00031E08DF800A0404649462A46EB17FEF729
:1035F0009DFF3032D0B2761E3A2801960EDAA255DF
:10360000404649462A46EB17FEF790FF80465FEAA0
:10361000010908BFB8F1000F05D108E09DF80000CE
:103620001218513AEBE7F868A1198842DBD3082D4C
:1036300009D197F83800010705D5A05D302802D0E0
:10364000761E3020A055C6F13C03BB61A119F9607C
:10365000386B834208DAC31A3B624FF6EF70398F3A
:1036600001403987BDE8F38700280ED597F8380068
:1036700000F01400102808D17A6B7969386A521A60
:10368000121AD21A002AC8BF3A62BDE8F3872DE9A0
:10369000D04306460F4614464FF00008DFF844902A
:1036A00012E0E00707D542464B463046394600F067
:1036B000DFF906460F464046494642464B4600F073
:1036C000D7F9641080468946002CEAD13046394645
:1036D000BDE8D083CBCCCC0CA08601000000F03F2D
:1036E00084D7974100002440F8B505460E4617469A
:1036F0001C4600205CB117F8011BB068A847B060F9
:1037000030B1F06A401CF0620020641EF3D1F2BDBB
:103710004FF0FF30F2BD0000686A6C747A4C000014
:103720007072696E74665F733A20256E20646973E7
:10373000616C6C6F776564007072696E74663A20B4
:1037400062616420256E20617267756D656E74001C
:103750007072696E74665F733A20626164202573CB
:1037600020617267756D656E7400000000000000D6
:103770006E616E004E414E00696E6600494E460015
:103780003000000062B38B0708D0521E11F8013BD5
:1037900000F8013B00F024808B07F6D1830740F04E
:1037A000208000BF103A07D330B4B1E83810103A87
:1037B000A0E83810F9D230BC530724BFB1E8081094
:1037C000A0E8081044BF51F8043B40F8043BD2077E
:1037D00024BF31F8022B20F8022B44BF0B78037072
:1037E0007047121F17D35B0009D151F8043B20F832
:1037F000023B1B0C121F20F8023BF6D20BE051F8E3
:10380000043B00F8013B1B0A20F8023B1B0C121F73
:1038100000F8013BF3D238BF121D521E24BF11F82D
:10382000013B00F8013BF8D87047000030B400219C
:10383000234A1368234A1468002832D0224A1568A4
:10384000C5F303250E2D0FD01268C2F303220D2AF3
:1038500028D1827812F00F0224092401144302793E
:10386000002A15D0012214E0827812F00F021B0901
:103870001B0113430279002A01D0012200E000223B
:1038800062F3DF73114AB0F9000042F8203009E01A
:10389000002262F3DF740E4AB0F9000042F82040C3
:1038A00000E00649080030BC70470A4B1A68002A3D
:1038B00003D01A6800B242F8201070470100560089
:1038C000849C0810889C08100000204000A0204024
:1038D00000C02040F406022800B500BF1300964641
:1038E0009446103928BFA0E80C50FAD85FEA417C12
:1038F00028BF0CC048BF40F8042BC90728BF20F8D8
:10390000022B48BF00F8012B00BD000070470000EB
:10391000C9B202788A421AB11CBF10F8012FF9E728
:1039200018BF00207047000080B500B906A0054907
:103930000B681BB122220021984701E000F0A1F89A
:10394000222002BD24920228636F6E737472616933
:103950006E742068616E646C65723A2062616420E6
:103960006D65737361676500C9B2830706D0521E27
:1039700022D310F8013B9942F7D11FE0083A13D344
:1039800002F1040241EA012141EA014150F8043BFD
:10399000121F21BF4B40A3F1013C2CEA030C1CF089
:1039A000803FF3D0C9B2001F083210F8013B521E0D
:1039B00028BF91EA030FF8D818BF0120401E7047B6
:1039C00010B5144600F002F8226010BDC1F30A538E
:1039D00043B14A0012F5001F28D2A3F2FE32A1EB38
:1039E0000251704750EA410C20D001F0004C31EAFE
:1039F0000C01B1FA81F204BFB0FA80F3D2180B3A8D
:103A0000B2F120032CBF00FA03F1914041EA0C010E
:103A10003EBFC2F1200C20FA0CF3194390405242F1
:103A200040F2FD33D21A01EB035170470022704778
:103A300041EC100B43EC112B80EE010B51EC100B01
:103A4000704741EC100BBCEEC00B10EE100A704733
:103A500000EE100AB8EE400B51EC100B704741EC31
:103A6000100B43EC112B30EE410B51EC100B704757
:103A700041EC100B43EC112B20EE010B51EC100B21
:103A80007047012000F000B880B5AFF30080024A13
:103A900011001820ABBEFBE726000200F8B50500B8
:103AA0000C00002000260A212000FFF731FF002231
:103AB0000021002802D0001B401C0200002000E072
:103AC000401C03001700DBB2FFB2BB420DD2030063
:103AD000DBB2E35C2C2B00D1761C33002F00DBB271
:103AE000FFB2BB42ECD1401C01000800C0B2F2BDE5
:103AF0003EB504000020002021000120FFF7CEFF8A
:103B0000451E2A00D2B22100684600F0FDFC0020CC
:103B10006946EDB24855684600F02EFD3EBD0000F6
:103B200038B584B0040000209FEDC90A21000120AF
:103B3000FFF7B4FF451E2A00D2B22100684600F00C
:103B4000E3FC00206946EDB24855684600F040FDB0
:103B5000B7EEC00B05B030BD38B584B0040000200E
:103B60009FEDB90B21000120FFF798FF451E2A00A9
:103B7000D2B22100684600F0C7FC00206946EDB2D1
:103B80004855684600F024FD05B030BD10B4002152
:103B90000179083101710179182940DB017918395F
:103BA0000171C178491CC1708178022917D11C228A
:103BB000017811F0030F07D10188642391FBF3F41E
:103BC00003FB1411002908D101884FF4C87391FB3D
:103BD000F3F403FB141100290FD1521C0DE01F2236
:103BE0008178042908D08178062905D081780929AF
:103BF00002D081780B2900D11E22C178D2B28A422C
:103C00000DD20121C1708178491C817081780D2904
:103C100005DB81780C3981700188491C018010BC5A
:103C200070470000F8B52DED028B06000C00002057
:103C300000209FED850B9FED840B9FED830B9FED87
:103C4000820B9FED810B9FED800B9FED810A00257C
:103C500031000220FFF722FFC0B2305C0100C9B280
:103C6000412903D0C0B2442840F0A28001250120A0
:103C7000207231000420FFF711FFC0B2305684F8E3
:103C8000280031000620FFF709FFC0B2305684F843
:103C9000290031000320FFF701FFC0B23044FFF7D5
:103CA0005BFFB0EE408B31000520FFF7F7FEC0B29E
:103CB0003044FFF751FFBDEEC81B11EE100A64211E
:103CC00090FBF1F0608164206189414301EE101A9C
:103CD000B8EEC11B38EE411BBDEEC12B12EE101A1F
:103CE000A1819FEDBA2BA18903EE101AB8EE433BD8
:103CF00031EE433B23EE023BBDEEC33B13EE101A05
:103D0000E181BDEEC03B13EE101A642291FBF2F18B
:103D10002182218A00FB01F003EE100AB8EEC33BBA
:103D200030EE430BBDEEC03B13EE100A6082608A9A
:103D300003EE100AB8EE433B30EE433B23EE022B7A
:103D4000BDEEC22B12EE100AA082608902EE100AAC
:103D5000B8EE422B9FEDD14B81EE041B32EE011BDE
:103D600084ED061B208A01EE100AB8EE411B9FED80
:103D7000CB3B80EE030B31EE000B84ED080B3100E2
:103D80000720FFF78BFEC0B23044FFF7C9FEDFED1E
:103D9000C50A20EE200A84ED0B0A31000820FFF747
:103DA0007DFEC0B23044FFF7BBFE84ED0C0A01E09B
:103DB000002020720A27F179307A07FB0101B1F166
:103DC00010002071717AB07A07FB0101B1F1100087
:103DD0006071F17A307B07FB0101B1F11000A07135
:103DE00031000920FFF75AFE0100C9B2725C0100E0
:103DF000C9B23144497807FB0212B2F11001E170F7
:103E00000100C9B231448A780100C9B23144C9788D
:103E100007FB0212B2F11001A1700100C9B23144D6
:103E2000097911FB07F1C0B23044407951FA80F0B2
:103E300010F5B86020802000FFF7A8FE2800C0B26F
:103E4000BDEC028BF2BD000000000000000000008D
:103E50000000000070B52DED028B05000C00002065
:103E6000002629000220FFF719FEC0B2285CC0B26C
:103E70002C2820D029000720FFF710FEC0B22844CC
:103E8000FFF736FE84F83C0029000920FFF706FE04
:103E9000C0B22844FFF744FEB0EE408A29000B2050
:103EA000FFF7FCFDC0B22844FFF73AFE30EE080AE7
:103EB00084ED100A01263000C0B2BDEC028B70BD4B
:103EC00070B505000C000020002629000220FFF735
:103ED000E5FDC0B2285CC0B241280ED1012084F8B3
:103EE000340029000120FFF7D9FDC0B22844FFF7B4
:103EF00017FE84ED0E0A012602E0002084F834004B
:103F00003000C0B270BD000080B52DED0A8B9FED72
:103F1000AE8B9FEDAF4B9FEDAE4B9FEDAD4B9FED4D
:103F2000AC4B9FEDAB4B9FEDAA4B9FEDA94B9FED8B
:103F3000AA4B20EE040B9FEDAA6B80EE069B22EEAF
:103F4000040B9FEDA75B80EE05AB21EE040B9FED0C
:103F5000A42B80EE020B23EE041B9FEDA13B81EE10
:103F6000031B39EE4A2B30EE41BBB0EE001B82EE54
:103F7000010B00F057FDB0EE40CBB0EE490B00F066
:103F80004FFDB0EE409BB0EE4A0B00F049FDB0EEA5
:103F900040ABB0EE001B8BEE010B00F043FDB0EE2A
:103FA000401B2CEE0C0B29EE0A2B21EE011B02EE1E
:103FB000010B00F039FD00F047FDB0EE002B20EEC4
:103FC000020B20EE080BBDEC0A8B01BD00000000C7
:103FD0000070B74080B52DED0E8B9FED7F4B20EE2E
:103FE000040B9FED7F6B80EE06CB22EE040B9FED62
:103FF0007C5B80EE058B21EE040B9FED792B80EE30
:1040000002AB23EE040B9FED762B80EE02BB3BEE62
:104010004A0B00F007FDB0EE409BB0EE480B00F0FD
:10402000FFFC20EE099BB0EE4C0B00F0F9FCB0EE6B
:1040300040DBB0EE480B00F0F5FCB0EE40EBB0EE2C
:104040004C0B00F0EFFCB0EE40CBB0EE480B00F0B4
:10405000E7FC2DEE0E8B2CEE00CB3BEE4A0B00F076
:10406000DFFC0CEE408BB0EE481BB0EE490B00F0CD
:104070002FFD9FED5B2B20EE020B9FED572B80EE6B
:10408000020BB5EE400BF1EE10FA03DC9FED8F2B27
:1040900030EE020BBDEC0E8B01BD000000000000F5
:1040A00000004E40CDCCEC3F7CB500246846DFF8E4
:1040B000F813D1E90023C0E90023002000200020EC
:1040C000DFF8E8532878012824D102202870DFF88F
:1040D000E0632A213000FFF71BFC0222411C0DF196
:1040E000020000F011FA684600F0CEFA727802235E
:1040F00002E0F15C4A405B1CF15C2A29F9D1D2B2A2
:10410000C0B2824201D001245AE0DFF8A813300087
:10411000FFF788FD00202870DFF89C5328780128DD
:1041200023D102202870DFF894632A213000FFF7A2
:10413000EFFB0222411C0DF1020000F0E5F9684698
:1041400000F0A2FA7278022302E0F15C4A405B1CA4
:10415000F15C2A29F9D1D2B2C0B2824201D0012445
:104160002EE0D4493000FFF775FE00202870D44DB2
:104170002878012822D102202870D24E2A2130002E
:10418000FFF7C6FB0222411C0DF1020000F0BCF952
:10419000684600F079FA7278022302E0F15C4A4046
:1041A0005B1CF15C2A29F9D1D2B2C0B2824201D0A3
:1041B000012405E0BF493000FFF782FE002028708F
:1041C0002000C0B276BD000000000040A654584157
:1041D0000000000000000000282D4454FB2109408D
:1041E00000000000008066401FB500200190B64826
:1041F0000078002868D004E001226946B348FDF742
:1042000060FF69460120FDF7A9FC0028F4D19DF864
:1042100000000A2858D106200190AC4C012301AAC5
:1042200002A92000FEF71DF803229CA10DF10B004E
:1042300000F08DFC002810D19C48017802293DD067
:10424000012101702000FDF72BFF0190002301AA3E
:1042500097492000FEF705F830E0032290A10DF108
:104260000B0000F074FC002810D19348017802295B
:1042700024D0012101702000FDF712FF01900023DE
:1042800001AA8E492000FDF7ECFF17E0032285A16B
:104290000DF10B0000F05BFC00280FD1884801787D
:1042A00002290BD0012101702000FDF7F9FE0190D9
:1042B000002301AA83492000FDF7D3FF2000FDF76A
:1042C000B5FE0120824908701FBD000000000000FB
:1042D0000080764038B5A8B0040021A87D491C2292
:1042E000FFF760FA1EA87C4991E82C0080E82C00BA
:1042F0001BA87A4991E82C0080E82C0018A878497E
:1043000091E82C0080E82C0015A8764991E82C0053
:1043100080E82C0012A8744991E82C0080E82C0059
:104320000FA8724991E82C0080E82C000CA8704975
:1043300091E82C0080E82C0009A86E4991E82C0037
:1043400080E82C0006A86C4991E82C0080E82C003D
:1043500003A86A4991E82C0080E82C006846684967
:1043600091E82C0080E82C002000C0B2012803D086
:104370002000C0B2012878D18023624A002153482E
:10438000FEF73FF84FF4FA7000F0A8FC0123012279
:104390005FF4E1310120FDF707FD1C2221A9012076
:1043A000FDF7BFFBC82000F099FC0B221BA90120E0
:1043B000FDF7B7FB322000F091FC0B221EA9012073
:1043C000FDF7AFFB322000F089FC0B2218A9012079
:1043D000FDF7A7FB322000F081FC0B2215A901207C
:1043E000FDF79FFB322000F079FC0B2212A901207F
:1043F000FDF797FB322000F071FC0B220FA9012082
:10440000FDF78FFB322000F069FC0B220CA9012084
:10441000FDF787FB322000F061FC0B2209A9012087
:10442000FDF77FFB322000F059FC0B2206A901208A
:10443000FDF777FB322000F051FC0B2203A901208D
:10444000FDF76FFB322000F049FC0B22694601208A
:10445000FDF767FB322000F041FC01201A4908708B
:1044600001210120FDF721FC16E0E4B2022C13D15A
:104470008023244A00211548FDF7C3FF01230122B0
:104480005FF4E1310120FDF78FFC01200E49087037
:1044900001210120FDF709FC29B030BD524D430038
:1044A0004747410054485300149C0810409202288A
:1044B000D88D0228C08F02283F920228588D0228EA
:1044C00041920228588E02283E92022868910228C2
:1044D0003D920228D89908107C9B0810889B0810F0
:1044E000949B0810A09B0810AC9B0810B89B081068
:1044F000C49B0810D09B0810DC9B0810E89B081098
:10450000F49B0810D88C022801B58B071AD18307B9
:1045100024D1121F21D351F8043BA3F1013C2CEA12
:10452000030C1CF0803C04BF40F8043BF1E79CFA0C
:104530008CFCBCFA8CF1C1F118018B40CB4040F8E7
:10454000043B13E0042A09D311F8013B521E00F882
:10455000013B5BB18B07F7D1D9E7121D5AB111F8B6
:10456000013B521E00F8013B03B1F8D111001CBF02
:104570000022FCF7A9FE01BD10B50400002C01D0FB
:10458000012000E000207322DFF8A011C0B2FCF788
:104590001BFE00220020002C18D021782D2902D1EA
:1045A0000122641C0AE021782B2907D1641C05E054
:1045B0000A23217803FB00103038641C217830393D
:1045C0000A29F5D3D2B2002A00D0404210BD000023
:1045D00010B50400002C01D0012000E000204FF4B1
:1045E000D272DFF84811C0B2FCF7EEFD00219FED5A
:1045F0004B0B9FED4A1BB7EE002B002C43D02078CD
:104600002D2802D10121641C11E020782B280ED125
:10461000641C0CE0B2EE044BB0EE403B2078303826
:1046200000EE100AB8EEC00B03EE040B641C2078F9
:1046300030380A28EED320782E281DD1601C0EE0D9
:10464000B2EE043BB0EE414B0278303A01EE102A54
:10465000B8EEC11B04EE031B22EE032B401C0278B4
:10466000303A0A2A06D29FED2F4BB4EE442BF1EEDE
:1046700010FAE5D481EE021B30EE010BC9B200291D
:1046800001D0B1EE400B10BD38B50400002C01D0B4
:10469000012000E0002040F23722DFF89010C0B285
:1046A000FCF792FD2000FDF76BFC020000210020CA
:1046B0000023002C0AD01800C0B200281DD020789A
:1046C0006138062803D2207857380DE022E02078A0
:1046D0004138062802D22078373805E02078303873
:1046E0000A2809D2207830380D000100C9B211F033
:1046F0000F0151EA051108E00CE02078302804D1C0
:104700006078782801D1641C0123641C1000421ECB
:104710000028CED1080032BD0000000000000000DB
:10472000000000000000000065CDCD415896081043
:104730009FED8F2B20EE021B53EC112B1946F0B48A
:1047400021F0004457EC116B274647EC126B9FEDAC
:104750008A4BB4EE442BF1EE10FA2DED068B2BD5DF
:10476000B6EE002B53EC122B01F00041194355EC2F
:10477000124B0D4645EC124B32EE011BBDEEC11B38
:1047800011EE101A002900F09D80BAEEC21B9FEDB9
:104790007C3B01EE030B9FED7C5B01EE050B9FED77
:1047A0007C7B01EE070B9FED7C9B01EE090B9FEDDF
:1047B0007C3B01EE030B85E055EC104B6B0043EAAC
:1047C000D4735A15DB1712F1010F14D14FF0FF30DB
:1047D000834208BF824208D12D0345EA14552403C1
:1047E000002D08BF002C40F0BF80BDEC068B9FED74
:1047F0006E0BF0BC704724F0000235F0004308BF98
:10480000002A08D1002800F0AF80BDEC068BB7EE7F
:10481000000BF0BC7047B6EE002B53EC122B01F0EE
:104820000041194355EC124B0D4645EC124B32EE4C
:10483000011B53EC112B5D0045EAD2755400002D8D
:1048400008BF002C19D040F23341A1EB5551352956
:1048500004DB02F0000203F000430CE0202903DD3A
:104860002039CB408B4000E001D1002203E0002939
:10487000C4BFCA408A4043EC112B53EC112B22F0E9
:10488000000433F0004508BF002C17D09FED483BD3
:1048900021EE032B9FED3A5B02EE050B9FED3A7B79
:1048A00002EE070B9FED3A9B02EE090B9FED3AAB30
:1048B00002EE0A0B9FED3A5B02EE050BBDEEC11B4B
:1048C00011EE101A53EC102B23F0004301F00301FA
:1048D00043EC112B9FED383B0818B4EE431BF1EE6F
:1048E00010FA04D5C1073BD5B7EE000B38E0C1077D
:1048F00020EE001B1AD59FED322B9FED334B01EEBE
:10490000024B9FED336B04EE016B9FED338B06EE94
:10491000018B9FED332B08EE012B9FED334B02EE05
:10492000014BB7EE000B04EE010B19E09FED307B5D
:104930009FED314B01EE074B9FED318B04EE018B68
:104940009FED31AB08EE01AB9FED317B0AEE017BB1
:104950009FED314B20EE012B07EE014B02EE040BD5
:10496000800748BFB1EE400BBDEC068BF0BC704732
:1049700083C8C96D305FE43F0000A0FFFFFFDF4147
:1049800000000050FB21B9C100000060B41011C04C
:104990000000002026A651BE000000005C14D3BC1D
:1049A000000000209A833BBBFFFFFFFFFFFFFF7F5C
:1049B000000000000000303E000000000000403E0B
:1049C00009260A1039BA213E3BA861C6F97D92BE7C
:1049D00063AC30909F01FA3EF6FB51166CC156BF96
:1049E000B10255555555A53FAEFFFFFFFFFFDFBF95
:1049F000B08F2FC310D8E53D8F0C73A1E1E55ABEEF
:104A00004DADE44FE31DC73E3EE3B519A0012ABFFB
:104A1000FAF010111111813F425555555555C5BF3A
:104A2000012085E6002083E6B5EEC00BF1EE10FA1A
:104A300002D4B1EEC00B70476FF0004C20EE10CBEB
:104A4000AFF300807047000051EC102B9FED1C2B42
:104A50009FED1D3BB0EEC00BC80F31F0004129D0D7
:104A6000B4EE402BB1F17F5C28BFBCF5401C08BF01
:104A7000124214D8F1EE10FA33EE401B33EE002B45
:104A800022EE011BB1EEC11B05D580F0040081EEC2
:104A9000000B00F0D5B980EE010B00F0D1B9490050
:104AA00011F5001F9CBF6FF0004120EE101BAFF30B
:104AB000008070471242D3D1C00720EE100B704720
:104AC000CE3B7F669EA0E63F000000000000F03F66
:104AD00052EC113B51EC10CBB0EEC00BB0EEC11B51
:104AE000C80F4900520028BF0C3011F5001F34BF19
:104AF00012F5001F10E0634572EB010C38BF80F027
:104B0000040013431AD003D281EE000B00F098B9D1
:104B100080EE010B00F094B911F5001F08BF80F082
:104B2000040094BF12F5001F0CE08A424FF000030E
:104B300012BF00224FF07C5242F4700242EC103B54
:104B400000F07EB96FF0004120EE101B70478AB173
:104B50000B7890F800C09C4506D110F8013B4BB192
:104B6000491C521EF4D105E002D24FF0FF307047CD
:104B70000120704700207047022801D301200FE078
:104B80000B00DBB2042B01DB012009E0954B03EBAA
:104B90008000C9B2405C824201D3012000E00020C5
:104BA0007047F8B506000F0015001C00022E01D357
:104BB00001201CE02A003900C9B23000FFF7DCFFF9
:104BC000012801D1012012E03800C0B2002811D123
:104BD000B4F5807F0CD284487603304400EB850026
:104BE00010F58050016864F30F2101600020F2BDD0
:104BF0000120FCE7FFB2012F10D1B4F5803F0BD2AA
:104C000079487603304400EB850010F5A050016828
:104C100064F317210160E9E70120E8E70120E6E7F6
:104C200000B20012C0B27047F8B505000E001700C0
:104C3000280000B2FFF7F4FF04002000C0B20228F1
:104C400001D3012023E03A003100C9B22000C0B2F4
:104C5000FFF792FF012801D1012018E062492000EE
:104C6000C0B2400308442A00D2B200EB8200D0F860
:104C7000000CF6B266F3092067F30700E4B26403A0
:104C80002144EDB201EB8501C1F8000C0020F2BD1A
:104C900070B504000D001600022C01D301201CE0A9
:104CA00032002900C9B22000FFF766FF012801D1B8
:104CB000012012E04C496003085850F0004050F0C9
:104CC000407050F47F00EDB265F3092066F30700F1
:104CD0006203885064030859002070BDF8B50400D1
:104CE0004FF4FA504443414D414E00212878C00111
:104CF000304400F0F6F914E02878C001304400F0A8
:104D0000F2F9B842F8D33B4F3C192878C00130443F
:104D100000F0E9F93F1839002878C001304400F06C
:104D2000E0F94CF25137BC42E6D22878C001304459
:104D300000F0D9F98442F8D2F1BD38B594B05021D1
:104D400000226C462000FCF7BBFA2B4C002201210C
:104D5000B4F90000FFF768FFB4F90000FFF760FF47
:104D6000092300220121C0B2FFF71BFFB4F90000A4
:104D7000FFF756FF00220121C0B2FFF789FF5FF065
:104D8000FF30009000208DF8040000208DF8050011
:104D900000208DF8060000208DF8080003208DF813
:104DA00044000120129001208DF807000F4C104D97
:104DB00069462078C001284400F0CEF82078C00170
:104DC000284400F089F900212078C001284400F02F
:104DD00088F92078C0012844FCF7B3FC15B030BD39
:104DE000000000000C9C0810000004409F070228EF
:104DF00000005940B03CFFFF98070228453A5C701C
:104E0000726F6A6563745C736D6172742063617242
:104E10005C6F6B5C39363372612D5C6C69627261F8
:104E2000726965735C7A665F636F6D6D6F6E5C7AD5
:104E3000665F636F6D6D6F6E5F6669666F2E630090
:104E400021A1B1EC061BB4EE410BF1EE10FA09DB27
:104E5000B1EE424B33EE001B00EE034B84EE010B30
:104E600040F0020030EE10CBB1EC063B2CF0004CD1
:104E7000BCF1795F15D320EE001B03EE014B20EE51
:104E8000013B04EE015B05EE030BB1EC083B03EEC6
:104E9000014B04EE015B05EE016B06EE012B80EE8B
:104EA000020B38BF2031400810F0020F18BFB1EEDE
:104EB000400B01EBC00191ED001B30EE010B28BF50
:104EC000B1EE400B7047000057CD9E5E1426D13FD7
:104ED000000000000000F03FAA4C58E87AB6FB3F03
:104EE000845D57134B57B03FB2934C19ED5EE43FCE
:104EF000BEDE02B90240F83FDE39028FC7C0743F00
:104F00008AAB1283000CC83F24D7E508B6D8F03F1F
:104F10000F34580E5895FD3F0000000000000000BF
:104F200066732D3852C1E03F182D4454FB21F93FE0
:104F300066732D3852C1F03F182D4454FB21F93FC0
:104F400066732D3852C10040182D4454FB2109408E
:104F50003FD038C6A6F1044010B4012291F84C307D
:104F6000052B03D291F84D30052B01D31000A7E09B
:104F7000002800F0A480002900F0A180514A1268A6
:104F80004B7963F392428B7913F0030363F311427D
:104F90000B7A13F0070363F31A62CB7963F39E7203
:104FA0000B7D63F3000291F8243063F34102026049
:104FB0000A7910F130031C6862F307041C604A7917
:104FC000012A0BD18A79002A02D10022826007E0EF
:104FD0008A79012A04D10A68826001E00122826094
:104FE000CA6802610A694261CA6982610A6AC26169
:104FF0000A680262344A12680B7E03F0FF03120A49
:1050000012021A4391F8303003F0FF0363F31742A2
:1050100091F8403003F0FF0363F31F6291F84830CA
:1050200003F0FF0363F30F224264284A126891F8E9
:10503000383003F0FF03120A12021A4391F82830A5
:1050400003F0FF0363F30F228264214A12688B7D11
:1050500013F00303920892001A4391F8253013F0DD
:10506000030363F38B2291F82C3013F0030363F3F3
:10507000051291F8343013F0030363F3092291F819
:105080003C3013F0030363F3871291F8443013F0BC
:10509000030363F38302C2640E4A126891F84C3032
:1050A00013F00703D208D2001A4391F84D3013F0E1
:1050B000070363F306124265497D816700221000F1
:1050C00010BC70478C9C0810909C0810949C081091
:1050D000989C08109C9C0810016851F000410160E8
:1050E000704781607047806870477830016851F080
:1050F00001010160704710F170010A6852F001026D
:105100000A60006F70470000DFF8C4110868C0F340
:105110004000002801D0022002E0086810F00100E1
:105120007047DFF8B001006810F001007047000020
:10513000C21E022A01D3012002E0C01E0860002026
:1051400070471CB5FF246946FFF7F2FFC0B2002884
:1051500002D02000C0B207E0DFF8FC01009950F84F
:10516000210010F00100C0B216BD0000002801D0DF
:10517000032801D3012002E0401E08600020704790
:105180001CB5FF246946FFF7F1FFC0B2002802D02A
:105190002000C0B208E0DFF8C4010099090108440A
:1051A000C06810F00100C0B216BD0000DFF8BC01FD
:1051B0000068800810F00100704738B50400200036
:1051C000C0B2082811D3DFF898511822DFF89411E3
:1051D0002800FFF799F90020E87540F65B00DFF83A
:1051E00088110860002000F003FCDFF8CC112000DB
:1051F000C0B251F82000C0F30020002805D0E4B26E
:1052000051F8240010F00F0000E0FF2032BD38B547
:1052100004002000C0B2082811D3DFF8445118223E
:10522000DFF840112800FFF76FF90020E8754FF410
:105230000960DFF834110860002000F0D9FBDFF8C6
:105240007801E4B250F82400C0F30110C0B232BDBE
:10525000DFF868211368C3F3072303601068C0F305
:10526000C40008607047DFF858211368C3F30723B0
:1052700003601068C0F3C4000860704738B50400CC
:10528000072C11D3DFF8D8501822DFF8C4112800FA
:10529000FFF73AF90020E8754FF4CE70DFF8C81038
:1052A0000860002000F0A4FBDFF8A00150F8240003
:1052B00010F00700010009B2042907D1DFF88801C6
:1052C00050F8240010F01F0050F4807000B232BD7E
:1052D0002415264040152640DFF8B01209688A03DD
:1052E000920B0260090E11F00101C171DFF8A012EA
:1052F00009680A00D204D20C82800A00120C02F063
:10530000FF020281090C01F0FF014181DFF8441125
:10531000096811F00F0202730A00C2F3031242730C
:105320000A00120AD204D20CC281090F11F0030143
:105330000174DFF8641309680A00120A12F0070208
:1053400082710A00120CD205D20D4282890F11F02F
:1053500001010175704700004016264000192640E3
:105360002091022850950810C4910228100027406F
:105370001CB50C006946FFF7DBFE0100C9B200292D
:1053800001D0C0B217E0DFF8B404009950F8210052
:1053900010F07F012160C0F304216160C0F304417B
:1053A000A1600100090F11F003016173C00E10F03C
:1053B00001002073002016BD401226400800204046
:1053C000080420401CB50C006946FFF7CFFE010021
:1053D000C9B2002901D0C0B235E0DFF8101500983D
:1053E0000001085800F0FF022260C0F3042262604E
:1053F000C0F30442A260000F10F003002073009875
:105400000001084442681000C00F6073C2F30270CC
:10541000002801D0012000E00020A07322F07F428C
:10542000226100980001084480680100C90F2175BD
:105430000100090E11F001016175A075000C10F05A
:105440000700E075002016BD00012640001226402E
:10545000A89508103815264080B50100DFF86805CA
:105460001822FEF79FF90120DFF860150870002070
:1054700002BDDFF85C150968C90F002908D0DFF804
:105480004C150978002907D10021016003207047DD
:10549000002101600320FAE7DFF82C15096801609C
:1054A0000020F4E710B50400FFF72EFE002803D11A
:1054B0000020206003200DE0DFF8100500780028B0
:1054C00005D0DFF8040580682060002002E000209D
:1054D0002060032010BD0000DFF8F01409780029D7
:1054E00005D0DFF8E41449680160002002E00021E3
:1054F000016003207047DFF8DC140968C90F002938
:1055000008D0DFF8C8140978002907D1002101600C
:1055100003207047002101600320FAE7DFF8A81498
:10552000C96801600020F4E7DFF8AC140968C90F0E
:10553000002908D0DFF894140978002907D1002148
:10554000016003207047002101600320FAE7DFF8C3
:105550007814096901600020F4E710B50400FFF732
:1055600025FE002803D10020206003200DE0DFF895
:105570005C040078002805D0DFF84C044069206006
:10558000002002E000202060032010BD30152640DE
:105590003415264010B50C00C0B2FFF76FFE00288E
:1055A0000ED0012810D0022812D0B0F5887F13D079
:1055B00040F21111884213D0B0F58A7F14D017E061
:1055C0002000FFF756FF16E02000FFF785FF12E0EE
:1055D0002000FFF767FF0EE02000FFF78CFF0AE0D6
:1055E0002000FFF7BAFF06E02000FFF79DFF02E072
:1055F00000202060032010BD80B501000020FFF7CF
:10560000C9FF02BD80B50322D2B2824203D200207C
:105610000860012003E0401CC0B2FFF7BBFF02BDE1
:1056200018B587B004006846FFF7E6FF0100C9B26D
:10563000002903D000212160C0B22BE001A8FFF7B0
:105640004BFE9DF81400022803D100982060002032
:1056500020E0DFF888030068C00F002808D0FFF7BB
:1056600060FDC0B2002807D100202060032011E0B7
:105670000098206000200DE0009901984143BDF89A
:105680000800B1FBF0F09DF80B10491CB0FBF1F0E5
:105690002060002008B010BD3C152640F0B58BB04E
:1056A00005000C0069462800C0B2FFF7ABFF0100FF
:1056B000C9B2002903D000212160C0B2BCE028009B
:1056C000C0B202284CD307A92800C0B2401CFFF783
:1056D0004FFEC0B2002811D0DFF804631822DFF8B3
:1056E00004133000FEF710FF0020F07540F6631041
:1056F000DFF8F4120860002000F07AF94F48290022
:10570000C9B200EB810050F8080CC00F002807D088
:105710009DF82900022807D10098206000208BE026
:1057200000982060002087E0EDB26D1C2800FFF794
:1057300008FD0100C9B2002902D0C0B2FF2803D180
:1057400000202060032077E00099079841430898E3
:10575000B1FBF0F00999B0FBF1F0206000206BE0A4
:1057600001A92800C0B2401CFFF72CFEC0B20028DF
:1057700011D0DFF86C621822DFF868123000FEF7F3
:10578000C3FE0020F07540F67F10DFF85C12086061
:10579000002000F02DF955482900C9B209014058F0
:1057A000C00F002807D09DF81000022807D10098EC
:1057B0002060002040E00098206000203CE0EDB236
:1057C0006D1C2800FFF7DCFC0100C9B2002902D0E3
:1057D000C0B2FF2803D10020206003202CE09DF8F8
:1057E000110001281DD1009A0023019E00273F06C9
:1057F00047EA162736060598002136184F41A6FBC2
:10580000020106FB031107FB0211029A039BA3FB93
:105810000223FCF78BFE000E40EA0120090E2060F7
:1058200009E00099019841430298B1FBF0F0039917
:10583000B0FBF1F0206000200BB0F0BD0016264058
:1058400010B50323421E0400E4B2002C03D108006B
:10585000FFF7E6FE0CE01400DBB2E4B2A34204D38F
:105860001000C0B2FFF71AFF02E0C0B2FFF792FECD
:1058700010BD38B505000C002800C0B2FFF79DFC34
:105880000100C9B2FF2904D12000FFF7F2FDC0B228
:105890001BE06946C0B2FFF7D3FF0100C9B200297F
:1058A00003D000212160C0B20FE02800C0B2FFF792
:1058B000AEFCC0B2002805D002280BD006D30328C6
:1058C0000CD00FE000982060002032BD0098400806
:1058D0002060F9E7009880082060F5E70098C0088C
:1058E0002060F1E7002020600320EEE70019264049
:1058F0001FB5040002A90120FFF7BBFF0100C9B2D8
:10590000002903D000212160C0B21AE0694601A835
:10591000FFF79EFC01980021421C71F1FF335B01EF
:1059200043EAD26352010098002112184B410298B9
:105930000021490141EAD0614001FCF7F7FD2060F8
:10594000002004B010BD1FB5040002A90120FFF71C
:1059500090FF0100C9B2002903D000212160C0B22C
:105960001AE0694601A8FFF77EFC01980021421C5D
:1059700071F1FF335B0143EAD263520100980021C9
:1059800012184B4102980021490141EAD0614001BF
:10599000FCF7CCFD2060002004B010BD80B5DFF81E
:1059A0004C100A68C2F303220E2A07D00968C1F31B
:1059B00003210D2905D1FFF7C6FF02BDFFF798FFB0
:1059C000FBE70120F9E70000089102283492022841
:1059D00018152640081526400C152640301526407F
:1059E00020910228A8950810C491022800002040A8
:1059F00001BEFEE780B5234A23490B6893423ED09F
:105A00000A60224A12684A62214A8A6202684A602F
:105A100042688A608268CA60C2680A6102694A6133
:105A200042698A618269CA61C2690A62F1EE102A1A
:105A300012F0900F23D0174A8A62026ACA62426A41
:105A40000A63826A4A63C26A8A63026BCA63426BF0
:105A50000A64826B4A64C26B8A64026CCA64426CD8
:105A60000A65826C4A65C26C8A65026DCA65426DC0
:105A70000A66826D4A66C26D8A66006EC86600F06C
:105A80000BF801BDFAF9F8F7D88E022828ED00E0EE
:105A9000A4A3A2A1ABAAA9A8FEE7000080B5022199
:105AA000002000F016FD0221012000F012FD02216D
:105AB000022000F00EFD0221032000F00AFD01BDCE
:105AC00070B5DFF854462068B0F5006F17D300209A
:105AD00020600120DFF844160870DFF844160878CB
