:020000041008E2
:1000000000000828B58B0810A1930810E59008108F
:10001000A5930810A9930810AD93081000000000E4
:100020000000000000000000000000009D9108108A
:10003000B193081000000000B5930810B9930810A0
:100040005B89081081890810A7890810CD890810DC
:10005000F3890810198A08103F8A0810658A081069
:10006000BD930810C1930810C5930810C9930810D8
:10007000CD930810D1930810D5930810D993081088
:10008000022801D3012010E00B00DBB2042B01DBBE
:1000900001200AE0DFF8503803EB8000C9B2405C71
:1000A000824201D3012000E000207047F8B504002F
:1000B0000F0015001E00022C01D3012020E02A00B1
:1000C0003900C9B22000FFF7DBFF012801D1012070
:1000D00016E03800C0B2002815D1B6F5807F10D2E6
:1000E000DFF808184FF40050444301EB040000EB24
:1000F000850010F58051086866F30F200860002025
:10010000F2BD0120FCE7FFB2012F14D1B6F5803F0C
:100110000FD2DFF8D8174FF40050444301EB04002E
:1001200000EB850010F5A051086866F31720086001
:10013000E5E70120E4E70120E2E700B20012C0B2E7
:100140007047F8B504000E001700200000B2FFF75A
:10015000F4FF05002800C0B2022801D3012029E0E5
:100160003A003100C9B22800C0B2FFF789FF012868
:1001700001D101201EE0DFF874172A00D2B24FF43B
:10018000005042430A442000C0B202EB8000D0F885
:10019000002CF6B266F3092267F30702EDB24FF4C2
:1001A0000050454301EB0500E4B200EB8400C0F8C9
:1001B000002C0020F2BD70B504000D001600022CCA
:1001C00001D3012025E032002900C9B22000FFF749
:1001D00057FF012801D101201BE0DFF810174FF471
:1001E000005000FB04F0085850F0004050F0407000
:1001F00050F47F00EDB265F3092066F307004FF479
:10020000005202FB04F288504FF400504443085956
:10021000002070BD10B5C0B2002800F0EA800228AE
:1002200000F0EB80C0F0E780042800F0EA80C0F026
:10023000E680062800F0E980C0F0E580082800F09C
:10024000E880C0F0E4800A2800F0E780C0F0E38096
:100250000C2800F0E680C0F0E2800E2800F0E58077
:10026000C0F0E180102800F0E480C0F0E0801228A7
:1002700000F0E380C0F0DF80142800F0E280C0F0DE
:10028000DE80162800F0E180C0F0DD80182800F044
:10029000E080C0F0DC801A2800F0DF80C0F0DB8056
:1002A0001C2800F0DE80C0F0DA801E2800F0DD801F
:1002B000C0F0D980202800F0DC80C0F0D88022284F
:1002C00000F0DB80C0F0D780242800F0DA80C0F096
:1002D000D680262800F0D980C0F0D580282800F0EC
:1002E000D880C0F0D4802A2800F0D780C0F0D38016
:1002F0002C2800F0D680C0F0D2802E2800F0D580C7
:10030000C0F0D180302800F0D480C0F0D0803228F6
:1003100000F0D380C0F0CF80342800F0D280C0F04D
:10032000CE80362800F0D180C0F0CD80382800F093
:10033000D080C0F0CC803A2800F0CF80C0F0CB80D5
:100340003C2800F0CE80C0F0CA803E2800F0CD806E
:10035000C0F0C980402800F0CC80C0F0C88042289E
:1003600000F0CB80C0F0C780442800F0CA80C0F005
:10037000C680462800F0C980C0F0C580482800F03B
:10038000C880C0F0C4804A2800F0C780C0F0C38095
:100390004C2800F0C680C0F0C2804E2800F0C58016
:1003A000C0F0C180502800F0C480C0F0C080522846
:1003B00000F0C380C0F0BF80542800F0C280C0F0BD
:1003C000BE80562800F0C180C0F0BD80582800F0E3
:1003D000C080C0F0BC805A2800F0BF80C0F0BB8055
:1003E0005C2800F0BE80C0F0BA805D2800F0BB80C1
:1003F000BBE01924BFE03124BDE01824BBE0332466
:10040000B9E03524B7E01424B5E03724B3E0132471
:10041000B1E02024AFE01224ADE02124ABE01124B0
:10042000A9E01024A7E02824A5E02924A3E02A2499
:10043000A1E009249FE02B249DE008249BE02C24CC
:1004400099E0032497E0022495E0392493E03B24CB
:1004500091E03D248FE001248DE03F248BE00024D7
:1004600089E0402487E0412485E0422483E043245E
:1004700081E0BF247FE048247DE049247BE0BC2468
:1004800079E0992477E09A2475E0502473E09B2466
:1004900071E0B6246FE051246DE09C246BE0B5243C
:1004A00069E0522467E0A02465E0B42463E05324AB
:1004B00061E0B3245FE054245DE0B2245BE0B1244A
:1004C00059E0AD2457E0602455E0AE2453E06124A8
:1004D00051E0AD244FE062244DE063244BE0AB24B7
:1004E00049E0642447E0AA2445E0652443E0A924C8
:1004F00041E0A8243FE069243DE06B243BE06D240B
:1005000039E06F2437E0A32435E0702433E0A224DF
:1005100031E071242FE0A1242DE097242BE09624D4
:1005200029E0742427E0952425E0752423E0942411
:1005300021E093241FE092241DE078241BE079241D
:1005400019E08C2417E07A2415E08B2413E07B2437
:1005500011E08A240FE05A240DE059240BE089248D
:1005600009E0582407E0882405E09D22DFF8F81808
:10057000002000F010FE2000C0B210BD10B5C0B2C7
:10058000002800F0EA80022800F0EB80C0F0E7804D
:10059000042800F0EA80C0F0E680062800F0E98038
:1005A000C0F0E580082800F0E880C0F0E4800A2868
:1005B00000F0E780C0F0E3800C2800F0E680C0F097
:1005C000E2800E2800F0E580C0F0E180102800F005
:1005D000E480C0F0E080122800F0E380C0F0DF800B
:1005E000142800F0E280C0F0DE80162800F0E180E0
:1005F000C0F0DD80182800F0E080C0F0DC801A2810
:1006000000F0DF80C0F0DB801C2800F0DE80C0F04E
:10061000DA801E2800F0DD80C0F0D980202800F0AC
:10062000DC80C0F0D880222800F0DB80C0F0D780CA
:10063000242800F0DA80C0F0D680262800F0D98087
:10064000C0F0D580282800F0D880C0F0D4802A28B7
:1006500000F0D780C0F0D3802C2800F0D680C0F006
:10066000D2802E2800F0D580C0F0D180302800F054
:10067000D480C0F0D080322800F0D380C0F0CF808A
:10068000342800F0D280C0F0CE80362800F0D1802F
:10069000C0F0CD80382800F0D080C0F0CC803A285F
:1006A00000F0CF80C0F0CB803C2800F0CE80C0F0BE
:1006B000CA803E2800F0CD80C0F0C980402800F0FC
:1006C000CC80C0F0C880422800F0CB80C0F0C7804A
:1006D000442800F0CA80C0F0C680462800F0C980D7
:1006E000C0F0C580482800F0C880C0F0C4804A2807
:1006F00000F0C780C0F0C3804C2800F0C680C0F076
:10070000C2804E2800F0C580C0F0C180502800F0A3
:10071000C480C0F0C080522800F0C380C0F0BF8009
:10072000542800F0C280C0F0BE80562800F0C1807E
:10073000C0F0BD80582800F0C080C0F0BC805A28AE
:1007400000F0BF80C0F0BB805C2800F0BE80C0F02D
:10075000BA805D2800F0BB80BBE00824C0E008241C
:10076000BEE00824BCE00824BAE00824B8E008246D
:10077000B6E00824B4E00824B2E00824B0E008247D
:10078000AEE00824ACE00824AAE00824A8E008248D
:10079000A6E00824A4E00824A2E00824A0E008249D
:1007A0009EE008249CE008249AE0082498E00824AD
:1007B00096E0082494E0082492E0082490E00824BD
:1007C0008EE008248CE008248AE0082488E00824CD
:1007D00086E0082484E0082482E0082480E00824DD
:1007E0007EE008247CE008247AE0082478E00824ED
:1007F00076E0082474E0082472E0082470E00824FD
:100800006EE008246CE008246AE0082468E008240C
:1008100066E0082464E0082462E0082460E008241C
:100820005EE008245CE008245AE0162458E008241E
:1008300056E0082454E0082452E0082450E008243C
:100840004EE008244CE008244AE0082448E008244C
:1008500046E0082444E0082442E0082440E008245C
:100860003EE008243CE008243AE0082438E008246C
:1008700036E0082434E0082432E0082430E008247C
:100880002EE008242CE008242AE0082428E008248C
:1008900026E0082424E0082422E0082420E008249C
:1008A0001EE008241CE008241AE0082418E00824AC
:1008B00016E0082414E0082412E0082410E00824BC
:1008C0000EE008240CE008240AE0082408E00824CC
:1008D00006E04FF48672DFF89015002000F05BFC14
:1008E0002000C0B210BD0000F092081000000440CB
:1008F00080B5C0B2002800F0EA80022800F0EB804A
:10090000C0F0E780042800F0EA80C0F0E680062806
:1009100000F0E980C0F0E580082800F0E880C0F031
:10092000E4800A2800F0E780C0F0E3800C2800F0A3
:10093000E680C0F0E2800E2800F0E580C0F0E180A3
:10094000102800F0E480C0F0E080122800F0E3807E
:10095000C0F0DF80142800F0E280C0F0DE801628AE
:1009600000F0E180C0F0DD80182800F0E080C0F0E9
:10097000DC801A2800F0DF80C0F0DB801C2800F04B
:10098000DE80C0F0DA801E2800F0DD80C0F0D98063
:10099000202800F0DC80C0F0D880222800F0DB8026
:1009A000C0F0D780242800F0DA80C0F0D680262856
:1009B00000F0D980C0F0D580282800F0D880C0F0A1
:1009C000D4802A2800F0D780C0F0D3802C2800F0F3
:1009D000D680C0F0D2802E2800F0D580C0F0D18023
:1009E000302800F0D480C0F0D080322800F0D380CE
:1009F000C0F0CF80342800F0D280C0F0CE803628FE
:100A000000F0D180C0F0CD80382800F0D080C0F058
:100A1000CC803A2800F0CF80C0F0CB803C2800F09A
:100A2000CE80C0F0CA803E2800F0CD80C0F0C980E2
:100A3000402800F0CC80C0F0C880422800F0CB8075
:100A4000C0F0C780442800F0CA80C0F0C6804628A5
:100A500000F0C980C0F0C580482800F0C880C0F010
:100A6000C4804A2800F0C780C0F0C3804C2800F042
:100A7000C680C0F0C2804E2800F0C580C0F0C180A2
:100A8000502800F0C480C0F0C080522800F0C3801D
:100A9000C0F0BF80542800F0C280C0F0BE8056284D
:100AA00000F0C180C0F0BD80582800F0C080C0F0C8
:100AB000BC805A2800F0BF80C0F0BB805C2800F0EA
:100AC000BE80C0F0BA805D2800F0BB80BBE0002093
:100AD000C0E00020BEE00120BCE00120BAE002201E
:100AE000B8E00320B6E00320B4E00420B2E0042024
:100AF000B0E00520AEE00520ACE00620AAE007202B
:100B0000A8E00920A6E00A20A4E00B20A2E00B2028
:100B1000A0E00C209EE00C209CE00D209AE00D202F
:100B200098E00E2096E00F2094E0102092E0112033
:100B300090E011208EE012208CE012208AE0132039
:100B400088E0142086E0152084E0162082E016203C
:100B500080E018207EE019207CE019207AE01A203D
:100B600078E01B2076E01C2074E01C2072E01C2042
:100B700070E01D206EE01D206CE01D206AE01E204C
:100B800068E01E2066E01E2064E01F2062E01F2057
:100B900060E020205EE020205CE021205AE022205E
:100BA00058E0242056E0242054E0252052E025205F
:100BB00050E026204EE027204CE027204AE0282065
:100BC00048E0282046E0292044E0292042E02A206D
:100BD00040E02C203EE02D203CE02E203AE02F206B
:100BE00038E02F2036E0302034E0302032E0312071
:100BF00030E031202EE032202CE033202AE0342077
:100C000028E0342026E0352024E0352022E036207C
:100C100020E037201EE038201CE039201AE039207F
:100C200018E03A2016E03A2014E03B2012E03B2086
:100C300010E03B200EE03C200CE03C200AE03D2090
:100C400008E03D2006E040F27B128749002000F0DA
:100C5000A2FA0020C0B202BD00200BE0834980222E
:100C600002FB00F28B5823F00043802202FB00F2CB
:100C70008B50401C3F28F1DB70472DE9F041AAB0B2
:100C800006000C001500342100221DAF380000F0D2
:100C9000FDFA0020742100226F46380000F0F6FAB9
:100CA0000E201E903000C0B2FFF768FC8DF87C006B
:100CB0003000C0B2FFF7AEFA07005FF0080830005E
:100CC000C0B2FFF7A7FA1DAA97FBF8F108FB11774E
:100CD0003900674FC0B2C01080235843384400F039
:100CE000D2FB3000C0B2FFF703FE00220121C0B2E8
:100CF00010F5937000B2FFF724FA3000C0B2FFF78E
:100D0000F7FDC0B210F5937000B2FFF716FA092391
:100D100000220121C0B2FFF7C9F93000C0B2FFF7CD
:100D2000E7FDC0B210F5937000B2FFF706FA00229B
:100D30000121C0B2FFF73FFA4E48B0FBF4F31B0CA1
:100D40004C482104B0FBF1F201FB1200002800D056
:100D50005B1C022B03D200208DF801002FE0032B37
:100D600003D201208DF8010029E0052B03D20220D7
:100D70008DF8010023E0092B03D203208DF8010038
:100D80001DE0112B03D204208DF8010017E0212B68
:100D900003D205208DF8010011E0412B03D206207B
:100DA0008DF801000BE0812B03D207208DF80100A4
:100DB00005E040F2C9122C49002000F0ECF90420B3
:100DC0008DF8000001208DF8100000208DF8110032
:100DD00003208DF8120003208DF8130000208DF8F9
:100DE0000800244901229DF901008240B1FBF2F084
:100DF000B0FBF4F0401E05900598401C05FB00F583
:100E000042F21070B5FBF0F0089002208DF840001F
:100E100003208DF8680001201B9001208DF8280028
:100E20003000C0B2FFF764FD104C6946C0B28022AA
:100E30005043204400F066FB3000C0B2FFF758FD7D
:100E4000C0B280214843204400F056FC3000C0B2BC
:100E5000FFF74EFDC0B280214843204400F051FC12
:100E60002AB0BDE8F08100006C8F081000005840E7
:100E70000000314000127A0082B000200190002072
:100E800000900020019009E00098401C009000981C
:100E9000B0F5005FF8D30198401C01900198B0F5BF
:100EA000805F02D200200090F1E702B0704780B569
:100EB0000100002000F03BFE01BD2DE9F043ADF53F
:100EC000137D0700884616001C000020ADF80200C4
:100ED0000020ADF80000002002900020ADF80400D2
:100EE0000020ADF80600404601F03EF80290DFF821
:100EF00064532888002801D028698047DFF8580308
:100F00000078002800F033812888002800F0118143
:100F1000BDF90600411CADF806103A00010089B287
:100F20000020EB6898474746404601F01DF80290C4
:100F30006988A87991FBF0F0ADF804003800471CEF
:100F400000780028FAD10020ADF800000EE07F1EE6
:100F500038782F2802D038785C2804D1BDF80000FA
:100F6000401CADF800000298401E0290BDF8000041
:100F7000022802DA02980028E9D50298002806D44F
:100F80007A1CDFF8D81253A801F00EF80EE0BDF875
:100F90000000002805D13A00B14953A801F004F837
:100FA00004E03A00AD4953A800F0FEFF0020ADF880
:100FB000020042E0BDF80010BDF80070BDF802204C
:100FC00053AB92B2BDF90400424312FA87F01A5CA7
:100FD00043A889B24254BDF80000401CADF800009F
:100FE000BDF8001089B2BDF9040081420EDA53A8A1
:100FF00000F0BAFFBDF80030BDF8022092B2BDF992
:1010000004104A4312FA83F18842D3D2002243A942
:10101000BDF800000A54BDF90600411CADF80610E9
:1010200043AAE97911FB00F189B20020EB689847E7
:10103000BDF80200401CADF80200BDF8027053A8D4
:1010400000F092FFBDF90410B0FBF1F0401CBFB2FC
:10105000874203D20020ADF80000C1E73200814989
:1010600053A800F0A1FFBDF90600411CADF8061021
:1010700053AAE97911FB00F189B20020EB68984787
:10108000002C74D00020ADF8020041E0BDF8001043
:10109000BDF80020BDF802309BB2BDF90400434307
:1010A00013FA82F0205C43AA89B25054BDF80000C4
:1010B000401CADF80000BDF8000080B2BDF904107E
:1010C00088420EDA200000F04FFFBDF80030BDF876
:1010D000022092B2BDF904104A4312FA83F1884209
:1010E000D4D2002043A9BDF800208854BDF90600E1
:1010F000411CADF8061043AAE97911FB00F189B251
:101100000020EB689847BDF80200401CADF80200D3
:10111000BDF80260200000F027FFBDF90410B0FB0D
:10112000F1F0401CB6B2864221D20020ADF800009A
:10113000C1E74FF4807100220DF10C09484600F020
:10114000A5F83800A9688847002C07D00094330020
:101150004246454903A800F027FF05E03300424618
:10116000424903A800F020FF03A8A96888470DF5AD
:10117000137DBDE8F08310B537480078002809D00A
:101180003C4C2100002000F0E0FC01222100384806
:1011900000F08FFF10BD38B50C001500C0B200285C
:1011A00003D135480078002800D131BD3349087893
:1011B000002800D0FEE70878401C087001F082F992
:1011C00000232A0021002E48FFF777FEFFF754FE88
:1011D000F6E710B514001A00C0B2002808D11E4866
:1011E0000078002804D00B0021002648FFF765FE98
:1011F00010BD002101804FF6FF7141808180FF21E9
:101200008171C171002181600021C16000210161F3
:101210007047104902880A8042884A8082888A8002
:1012200082798A71C279CA7182688A60C268CA602A
:1012300000690861012108480170704700B585B058
:101240006846FFF7D6FF104802906846FFF7E1FFB7
:1012500005B000BDB89102285F9202283C920810A8
:101260001C9208104892081064910810049208100B
:1012700088910228609202284E0702286192022873
:101280002C92081054920810AF0E081062F30F222F
:1012900062F31F42401810F0030308D0C91A1FD38D
:1012A000DB0748BF00F8012D28BF20F8022D1300EE
:1012B00030B414461546103928BF20E93C00FAD84E
:1012C000490728BF20E90C0048BF40F8042D8900D9
:1012D00028BF20F8022D48BF00F8012D30BC704710
:1012E000C91818BF00F8012DCB0728BF00F8012D41
:1012F0007047F0B40246106895681318506803EB05
:101300005004C00748BF4D44A3422DD013F8016BD1
:1013100016F0030004BF13F8010BC01C31090F299C
:1013200007D113F8011B0F3103E013F8017B05F817
:10133000017B401EF9D10029E6D013F8010BC6F35A
:101340008107032F08BF13F8017B00EB0720404201
:1013500028440026B71E8F421EBF10F8017B05F8F7
:10136000017B761CF6D1CFE7F0BC02F10C00704790
:1013700030B4614B1818C009604B13EB00130429FB
:101380000DD21D681F24C8008440A543D2B212F0BC
:101390001F02C90012FA01F1294319600CE00D1F68
:1013A0005C681F21E80081408C43D2B212F01F021A
:1013B000ED00AA4022435A6030BC7047002A04D195
:1013C000012212FA01F1416003E0012212FA01F157
:1013D0008160704710B48900446C0F238B409C439C
:1013E00012F00F0212FA01F12143416410BC704760
:1013F00010B4846C01238B409C4312F0010212FA5A
:1014000001F12143816410BC704710B4C46C012306
:101410008B409C4312F0010212FA01F12143C16496
:1014200010BC704710B449001031C46C03238B40CA
:101430009C4312F0030212FA01F12143C16410BC73
:1014400070474269012212FA01F141614069704717
:1014500010B4846901238B409C4312F0010212FAFC
:1014600001F12143816110BC704710B44900046C44
:1014700003238B409C4312F0030212FA01F1214333
:10148000016410BC7047F8B504000F001500002679
:10149000002C2ED0002D2CD02A6839002000FFF718
:1014A0008DFF2A7A39002000FFF762FF6A69390050
:1014B0002000FFF79DFFAA6939002000FFF7A5FF74
:1014C000EA6939002000FFF7ADFF6A6839002000A3
:1014D000FFF780FFEA6839002000FFF7C6FF3900F8
:1014E0002000FFF7AEFF2A6939002000FFF7B0FFA8
:1014F00000E0034E3000F2BD0000CFBF00003040DE
:1015000001005A000122002800F0E680002900F0C6
:10151000E380724A12680B7A63F392420B7B13F0FA
:10152000030363F311420B7813F0070363F31A62AA
:101530008B7863F39E7291F8283063F3000291F880
:10154000343063F341020B7F63F382024B7F63F31A
:10155000C30291F8403063F38A2291F84030DBB245
:101560005B08DBB263F3492291F8703063F3082221
:1015700091F8713013F0030363F30D3202600A7ABD
:10158000002A02D10022826007E00A7A012A02D1F1
:101590004A69826001E0012282600A6A02614A6A45
:1015A0004261CA6A82610A6BC2614A6902628A69DF
:1015B00042624B4A126891F8443003F0FF0363F330
:1015C000070291F84C3003F0FF0363F3174291F8E0
:1015D0005C3003F0FF0363F31F6291F86C3003F09B
:1015E000FF0363F30F2242643E4A126891F86430AD
:1015F00003F0FF0363F30F2291F8543003F0FF036D
:1016000063F307028264384A126891F8413013F09C
:10161000030363F3010291F8603013F0030363F3F3
:101620008B2291F8483013F0030363F3051291F80D
:10163000503013F0030363F3092291F8583013F08C
:10164000030363F3871291F8683013F0030363F325
:101650008302C264254A126891F8723013F00703BE
:1016600063F3020291F8733013F0070363F3061279
:10167000426591F8352082671D4A12680B7C13F091
:10168000030363F30102CB7C13F0030363F38712BC
:101690004B7C13F0030363F383028B7C13F003038F
:1016A00063F305120265134A1268CB8863F31F4285
:1016B0008B889BB21B0A9BB263F30F220B78052B1E
:1016C00005D1097901F0FF0161F3070202E04978D1
:1016D00061F3070202630022100070478493081030
:1016E000889308108C930810909308109493081016
:1016F000989308109C930810016851F00041016014
:10170000704710F14001086850F010000860704701
:10171000022801D3012010E00B00DBB2042B01DB17
:1017200001200AE0DFF8FC3703EB8000C9B2405C1F
:10173000824201D3012000E000207047F8B5040088
:101740000E0015001F00022C01D3012031E02A00F9
:101750003100C9B22000FFF7DBFF012801D10120D1
:1017600027E006993000C0B2022825D1B7F5803FA6
:1017700020D220291ED24FF4C052DFF8AC374FF4EC
:10178000005000FB04F0184400EB850000EB02065B
:10179000306867F3172030604FF40050444303EB88
:1017A000040000EB85000244106861F3C70010607C
:1017B0000020F2BD0120FCE7F6B2032E26D1B7F1DE
:1017C000807F21D220291FD24FF4E052DFF8583712
:1017D0004FF4005000FB04F0184400EB850000EBD0
:1017E0000206306800F0FF0050EA072030604FF436
:1017F0000050444303EB040000EB850002441068F2
:1018000061F3C7001060D3E70120D2E70120D0E7E1
:1018100000B20012C0B27047F8B504000E00170005
:10182000200000B2FFF7F4FF05002800C0B2022834
:1018300001D3012029E03A003100C9B22800C0B22A
:10184000FFF766FF012801D101201EE0DFF8D8165E
:101850002A00D2B24FF4005042430A442000C0B2E2
:1018600002EB8000D0F8002CF6B266F3092267F391
:101870000702EDB24FF40050454301EB0500E4B21E
:1018800000EB8400C0F8002C0020F2BD70B504000D
:101890000D001600022C01D3012025E032002900A2
:1018A000C9B22000FFF734FF012801D101201BE05D
:1018B000DFF874164FF4005000FB04F0085850F0A5
:1018C000004050F0407050F47F00EDB265F3092005
:1018D00066F307004FF4005202FB04F288504FF405
:1018E000005044430859002070BDD0F840037047B1
:1018F000D0F80803C005C00D7047C0F8401270470B
:10190000D0F80802C005C00D7047D0F80802C0F337
:10191000C030704738B505002800FFF7F1FF04001C
:101920002800FFF7F2FF0419002C01D1012000E08C
:101930000020C0B232BDC0F8C81F7047D0F8C80F31
:101940007047C0F8881F7047D0F8880F704701684B
:1019500051F000410160704738B504001500C9B26C
:10196000002906D002291ED010D3042935D027D350
:1019700040E0DFF8B805A0600120207311206073FB
:101980004FF48C70E0811220208239E0DFF8A0054E
:10199000A060012020731120607340F21D10E081CF
:1019A0006B2020822CE0DFF88C05A06001202073E2
:1019B000112060734FF48E70E0816A2020821FE056
:1019C000DFF87405A060022020731120607340F2DC
:1019D0001B10E0816920208212E0DFF86005A06022
:1019E00001202073132060734FF48D70E081682014
:1019F000208205E07C22DFF848150020FFF7CBFBB2
:101A0000EDB2002D06D0022D1ED010D3042D35D0FE
:101A100027D340E0DFF8140520600020207111205A
:101A200060714FF48C70E0811220208239E0DFF881
:101A300000052060002020711120607140F21D100F
:101A4000E0816B2020822CE0DFF8E8042060002099
:101A50002071112060714FF48E70E0816A20208225
:101A60001FE0DFF8D4042060012020711120607194
:101A700040F21B10E0816920208212E0DFF8BC04F4
:101A8000206000202071132060714FF48D70E08180
:101A90006820208205E0A822DFF8A4140020FFF7C8
:101AA0007AFB31BD10B5C0B2002806D002280AD09A
:101AB00006D304280DD009D30EE0DFF8884411E0E6
:101AC000DFF884440EE0DFF884440BE0DFF8804464
:101AD00008E0DFF8804405E0BD22DFF86414002050
:101AE000FFF759FB200010BD38B50500DFF868444A
:101AF000C9B22800C0B254F82000FFF7FEFE28004B
:101B0000C0B254F82000FFF705FF0028F7D031BD20
:101B100070B506000D00140006E029783000C0B250
:101B2000FFF7E2FF641E6D1C002CF6D170BD38B5C6
:101B300005000C0005E021782800C0B2FFF7D4FFB3
:101B4000641C20780028F6D131BD70B506000C0069
:101B50000020DFF804543000C0B255F82000FFF731
:101B6000C7FE002807D0F6B255F82600FFF7BDFEE5
:101B70002070012000E00020C0B270BD70B50600EA
:101B80000C00DFF8D4533000C0B255F82000FFF746
:101B9000DBFE4008400001003000C0B255F82000D4
:101BA000FFF7CFFE3000C0B255F82000FFF7CCFEA3
:101BB00030F0020001003000C0B255F82000FFF7FD
:101BC000C0FE3000C0B255F82000FFF7BDFE30F077
:101BD000200001003000C0B255F82000FFF7B1FE30
:101BE0003000C0B255F82000FFF7AEFE30F04000E4
:101BF00001003000C0B255F82000FFF7A2FE30000F
:101C0000C0B255F82000FFF79FFE30F01000010031
:101C10003000C0B255F82000FFF793FE3000C0B28C
:101C200055F82000FFF790FE30F48070010030007E
:101C3000C0B255F82000FFF784FE3000C0B255F85E
:101C40002000FFF781FE30F4806001003000C0B258
:101C500055F82000FFF775FE002C0ED03000C0B202
:101C600055F82000FFF76AFE50F400700100F6B24C
:101C700055F82600FFF765FE0DE03000C0B255F8BC
:101C80002000FFF75BFE30F400700100F6B255F85B
:101C90002600FFF756FE70BD70B506000C00DFF899
:101CA000B8523000C0B255F82000FFF747FE400898
:101CB000400001003000C0B255F82000FFF73BFEA5
:101CC0003000C0B255F82000FFF738FE30F00800B1
:101CD00001003000C0B255F82000FFF72CFE3000A4
:101CE000C0B255F82000FFF729FE30F020000100B7
:101CF0003000C0B255F82000FFF71DFE3000C0B222
:101D000055F82000FFF71AFE30F480700100300013
:101D1000C0B255F82000FFF70EFE3000C0B255F8F3
:101D20002000FFF70BFE30F4007001003000C0B25D
:101D300055F82000FFF7FFFD3000C0B255F8200035
:101D4000FFF7FCFD30F4006001003000C0B255F830
:101D50002000FFF7F0FD002C0ED03000C0B255F887
:101D60002000FFF7EBFD50F004000100F6B255F83B
:101D70002600FFF7E0FD0DE03000C0B255F820006E
:101D8000FFF7DCFD30F004000100F6B255F8260044
:101D9000FFF7D1FD70BD2DE9F841A7B006000F0097
:101DA000150031002800C9B2C0B2814201D1012022
:101DB00000E000201C00DFF888814FF4CE7241461D
:101DC000C0B2FFF7E8F930002100C0B2C9B28842C2
:101DD00001D1012000E0002040F29D124146C0B236
:101DE000FFF7D9F902A8142100F094FB3421002256
:101DF0000DF168084046FFF749FA4C2100220DF129
:101E00001C084046FFF742FAFA000023534800211D
:101E100000F084FB07002200D2B22900C9B202A858
:101E2000FFF79AFD08201B909DF80D008DF87000BB
:101E30001AAA9DF80C100298FFF725FB06201B90AC
:101E40009DF80D008DF870001AAA9DF814100498E2
:101E5000FFF719FB00200790082008900820099040
:101E600002200B9000200C90002012900020149073
:101E7000394C3000C0B254F8200000F092FD384ACE
:101E80003100C9B2382041430A4407A93000C0B22A
:101E900054F8200000F05AFC3000C0B254F8200082
:101EA000FFF755FD3200D2B20321BDF91600FFF74E
:101EB000B3FCBDF91600FFF7ABFC17F01F01009152
:101EC000C7F357133200D2B20321C0B2FFF736FC7A
:101ED000BDF91600FFF79CFC3200D2B20321C0B25C
:101EE000FFF7D4FCBDF91800ADF800000320ADF8F1
:101EF000020001208DF8040007221A493000C0B208
:101F000051F82010684600F0E9FA00213000C0B214
:101F1000FFF7C2FE00213000C0B2FFF72FFE28B04D
:101F2000BDE8F081F092081000000440000031404C
:101F30000002314000053140800831400007314047
:101F4000B08F081000006040000065400000644051
:101F50000000634000006240340702280080969829
:101F6000008802282007022800F10103810704D01D
:101F700010F8011B820781B1FAD10268A2F1013188
:101F8000914311F0803104BF50F8042FF6E709BAED
:101F9000B1FA81F100EBD100401CC01A7047036810
:101FA0005A1C0260197070470CB430B583B00A46F1
:101FB00006A90291044600250194009502AB01A9EF
:101FC000084878441E3000F038FD01990D70002853
:101FD0004EBF04460198041B204603B030BC5DF898
:101FE0000CFB00BFBBFFFFFF82688918816003E024
:101FF00082684169521A8260826841698A42F7D2D6
:102000007047C2688918C16003E0C2684169521A0A
:10201000C260C26841698A42F7D2704770B5040055
:10202000002C01D0012000E000205422DFF8FC1336
:10203000C0B2FFF7B0F80025207850F00100207002
:102040000020A0600020E0606069206160780028C6
:1020500003D0022810D007D315E06169002266681A
:102060003000FFF713F90EE0606941000022666856
:102070003000FFF70BF906E0606981000022666816
:102080003000FFF703F9002020702800C0B270BDB7
:1020900010B50400002C01D0012000E000207022C7
:1020A000DFF88813C0B2FFF776F860692169401A3B
:1020B00010BD2DE9F84305001600002D01D00120C8
:1020C00000E000200C00AA22DFF86013C0B2FFF786
:1020D00062F800270020002C01D10327B5E0287802
:1020E00010F0050F01D00427AFE0287850F004006D
:1020F00028702869B042C0F0A380D5F81480A86881
:10210000B8EB0008B04567D26878002803D00228F1
:1021100041D01FD390E0424621006868AB6800EBD5
:102120000309484601F012FB41462800FFF75CFF17
:10213000B6EB080204EB08016868AB6800EB030427
:10214000200001F003FBB6EB080841462800FFF72A
:102150004BFF71E05FEA480221006868AB6800EB62
:102160004309484601F0F2FA41462800FFF73CFFD8
:10217000B6EB0800420004EB48016868AB6800EB6E
:102180004304200001F0E2FAB6EB080841462800BB
:10219000FFF72AFF50E05FEA880221006868AB6819
:1021A00000EB8309484601F0D1FA41462800FFF7C9
:1021B0001BFFB6EB0800820004EB88016868AB687F
:1021C00000EB8304200001F0C1FAB6EB0808414699
:1021D0002800FFF709FF2FE06878002803D00228C5
:1021E0001DD00ED328E0320021006868AB6800EBF8
:1021F0000304200001F0AAFA31002800FFF7F4FEE2
:102200001AE0720021006868AB6800EB430420000C
:1022100001F09CFA31002800FFF7E6FE0CE0B20066
:1022200021006868AB6800EB8304200001F08EFA9F
:1022300031002800FFF7D8FE2869861B2E6100E0D8
:102240000527287810F0FB0028703800C0B2BDE8E0
:10225000F2832DE9F04705000E001F00002D01D08C
:10226000012000E000201400DFF8C08140F25B1282
:102270004146C0B2FEF78FFF002C01D0012000E0E4
:1022800000204FF4AE724146C0B2FEF784FF5FF00B
:10229000000800200020002E02D15FF003088BE030
:1022A000297811F0030F03D020605FF006089CE04E
:1022B0002800FFF7EDFE2168884209D220605FF018
:1022C0000708002804D1287810F0F70028708CE067
:1022D000287850F008002870D5F814A0E868BAEB08
:1022E000000A2068824522D36878002803D002289B
:1022F00013D008D35CE022686868E96801443000C4
:1023000001F024FA54E0206842006968E86801EBB3
:102310004001300001F01AFA4AE020688200696842
:10232000E86801EB8001300001F010FA40E06878C5
:10233000002803D0022827D011D339E0524668681C
:10234000E9680144B146484601F000FA2268B2EB60
:102350000A0269685644300001F0F8F928E05FEAA3
:102360004A026868E96800EB4101B146484601F05D
:10237000EDF92068B0EB0A004200696806EB4A06F6
:10238000300001F0E3F913E05FEA8A026868E96867
:1023900000EB8101B146484601F0D8F92068B0EB66
:1023A0000A008200696806EB8A06300001F0CEF967
:1023B000287810F0F7002870FFB2002F15D1287888
:1023C0000B2802D15FF002080FE0287850F00200DD
:1023D000287021682800FFF714FE29692068411839
:1023E0002961287810F0FD0028704046C0B2BDE891
:1023F000F087F8B504000D0017001E00002C01D076
:10240000012000E000204FF407720849C0B2FEF737
:10241000C2FE002067600021217065700021A1606C
:102420000021E16026616661C0B2F2BD288F08100C
:10243000010009B2002908D4012210F01F018A40CE
:102440001B4900B2400941F820207047010009B241
:10245000002908D4012210F01F018A40154900B25A
:10246000400941F820207047020012B2002A04D42B
:102470004A01114900B20A5407E049010F4A00B26B
:1024800010F00F00104400F8041C7047002800D121
:1024900062B60B490868401C0860704772B608496C
:1024A0000868002802D00868401E08600868704765
:1024B00000E100E080E200E000E400E018ED00E070
:1024C0003492022880B5FFF7E9FFFEF7C5FB01BD96
:1024D00080B5C9B200B2FFF7C7FF01BD70B50600F5
:1024E0000C001500300001F085F92100B6F900005C
:1024F00001F0BDF92900C9B2B6F90200FFF7E8FF03
:10250000B6F90200FFF7A2FFB6F90200FFF790FF4D
:1025100070BD0000002201F0C1B90000BBBBE1B1F9
:10252000B2F5803F80F07E80022A1ED98C46B1FB36
:10253000F2F102FB11C31B0443EA1043B3FBF2FCAC
:1025400002FB1C3380B240EA0343B3FBF2F002FB10
:10255000103240EA0C4000237047022A05D9844615
:10256000B0FBF2F002FB10C270474AB105D100F097
:10257000010249085FEA30007047002200237047DB
:1025800001F0A6B90B000200002100207047904224
:1025900071EB030CF6D3B3F5803F2FD2F0B5B3FA4D
:1025A00083F7B1FA81F4A7F10F0E3D1B5340CEF132
:1025B000200602FA0EF2F3415340B5F10F0746D858
:1025C0000F3C2C444140C4F12006A040F141414061
:1025D000B1FBF3F603FB1611A2FB0645001BA94154
:1025E00002D2761E8018594180EA010221FA0EF3C8
:1025F00062FA0EF200215A403046F0BD30B4B1FB11
:10260000F3FC03FB1C11A2FB0C45001BA94103D2E8
:10261000ACF1010C8018594130BC02460B466046B3
:1026200000217047B2F1807F65D3F0B5B2FA82F72E
:10263000B1FA81F4C7F10F063D1B22FA06F307F148
:10264000110EF24120355A40B5F10F07B8D941407B
:10265000C4F12006A040F1414140B1FBF3FC03FB73
:102660001C11A2FB0C45001BA94103D2BCF1010CBB
:10267000801859410F2F12D30F3FC90341EA50412F
:10268000B1FBF3F603FB1611A2FB0645D4EBC030F9
:10269000A94102D2761E8018594146EACC3C07B3C4
:1026A0004140C7F12006B840F1414140B1FBF3F68B
:1026B00003FB1611A2FB0645001BA94102D2761EA0
:1026C0008018594180EA010221FA0EF3C7F1200473
:1026D00062FA0EF20CFA07F05A402CFA04F1304379
:1026E000F0BD80EA010221FA0EF3002162FA0EF237
:1026F00060465A40F0BD8C46B1FBF2F102FB11C3BB
:102700001B0243EA1063B3FBF2FC02FB1C331B0207
:102710004CEA002043EA1063B3FBF2FC02FB1C33DB
:102720001B024CEA002043EA1063B3FBF2FC02FBFD
:102730001C331B024CEA002043EA1063B3FBF2FC9B
:1027400002FB1C324CEA0020002370472DE9F44FB5
:10275000DFF8AC22DFF8AC32D3F800A0DFF8A83203
:102760001B68DFF8A8422468DFF8A4522D68DFF860
:10277000A4623668DFF8A0723F68DFF8A0C2DCF818
:1027800000C0DFF89CE2DEF800E0DFF89882D8F8BD
:102790000080DFF89492D9F80090002800F0FE80C5
:1027A000002900F0FB800A68022A06D191F8262051
:1027B000002A02D15FF0000B03E0D1F804B0BBF1B6
:1027C000010B91F82420002A01D0012200E0002210
:1027D00062F3104A3AF4404A6BF3030A022262F3AE
:1027E000196AC0F800A00A7812F0030262F31963B4
:1027F000036491F82520002A01D0012200E0002284
:1028000062F38614CA7E002A01D0012200E0002271
:1028100062F38A244A7E002A01D0012200E00022CD
:1028200062F308248A7E002A01D0012200E00022FF
:1028300062F349248A6B521E12F00F0262F31344B2
:102840000A69521E12F0070262F302044A6962F337
:1028500004144A69520862F3451484640A7B002A0E
:1028600001D0012200E0002262F308250A7E002A3E
:1028700001D0012200E0002262F349258A68521E3D
:1028800012F01F0262F30405C0F800530A7F02F041
:10289000FF0262F3070691F8202002F0FF0262F3C4
:1028A0001746C0F8106391F82720002A01D00122B2
:1028B00000E0002262F308270A69521E12F00702A4
:1028C00062F302074A6962F304174A69520862F325
:1028D000451747640A7B002A01D0012200E000224C
:1028E00062F3082C8A68521E12F01F0262F3040C75
:1028F0000A68012A01D1012200E0002262F3104C93
:10290000C0F800C291F83C2002F0FF0262F3070E0B
:10291000C0F804E391F82820002A01D0012200E049
:10292000002262F35968CA6A012A01D1012200E03B
:10293000002262F318684A6B012A01D1012300E0EA
:102940000023009A63F3104891F8303003F0FF033E
:1029500063F30708C0F8508091F8443003F0FF0398
:1029600063F30709C0F804928B6CC0F8883F096CC8
:10297000C0F8C81F002A10D000205060002010604E
:10298000002090600020D060002010620020D06203
:1029900000201063DFF89400506300221000BDE8AF
:1029A000F28FDFF88C1001605FF4401101640021A8
:1029B000816440F20711C0F800130022C0F804231C
:1029C0000022C0F8102300224264C0F80012002147
:1029D000C0F80412002101650021C0F8C81E0021C2
:1029E000C0F8881E0021C0F8C81F0021C0F8881F49
:1029F0000021C0F8081F0021C0F8481F70470000E0
:102A00000160AA00409308104493081048930810EE
:102A10004C930810509308105493081058930810C2
:102A20005C9308106093081064930810EFCDAB001E
:102A30000F00000340F0200070472DE9F14FB0B0C7
:102A400091463A9A049100200DF142011E464A70C7
:102A500021910DF195020D902F920BE019F8011BB9
:102A60000498309A90470028049000F066850D98ED
:102A7000401C0D9099F8000050B12528EED100229D
:102A800000210792089109920A910B920C9104E09F
:102A90000D9800F054BD41F0010119F8010F2028F4
:102AA000F9D023280CD02B2804D02D2805D030288D
:102AB00009D00BE041F00201EFE741F00401ECE73F
:102AC00041F00801E9E741F01001E6E72A280DD1BD
:102AD000326852F8040B326000280F9003D5404250
:102AE0000F9041F0040109F1010914E00F92DFF8A1
:102AF000AC0B0AE00F9C844205DA04EB840302EB82
:102B00004302303A0F9209F1010999F80020A2F12D
:102B100030030A2BEED399F800202E2A03D04FF071
:102B2000FF300E9027E019F8010F2A2807D13268EC
:102B300052F8040B32600E9009F101091BE02D28B8
:102B40000CBF09F10109002000220E92DFF84C5B56
:102B50000BE040B90E9BAB4205DA03EB830402EBBA
:102B60004402303A0E9209F1010999F80020A2F1CD
:102B700030030A2BEDD3ADF840100FF6643099F80E
:102B8000001000F0A7FE08B119F8010B8DF8420003
:102B90009DF84200682805D199F8001068290CD1E9
:102BA000622006E06C2804BF99F800106C2904D15B
:102BB00071208DF8420009F1010912A9069119F856
:102BC000012B8DF800201746B7F1250126D02039BA
:102BD000022940F27D81133900F0EF830B3900F0B8
:102BE0007984491E00F02E84491E022940F270812A
:102BF000091F00F02784491F00F0F080491E00F0F3
:102C0000DC83491E00F0DB80C91E0ED0891E00F057
:102C1000D483C91E00F0D18300F065BC01222521B8
:102C200007928DF8481000F06CBC306850F8044BE7
:102C30003060002C059440F0B0802199487800283D
:102C400000F0A7804FF0FF340FF6CC2000F04EFECE
:102C5000241A40F0728400F054BC01236A4602A991
:102C6000384600F025FD002840F06784641EF4D14A
:102C70003097079C12AF84B1DDF8C08017F8011BB4
:102C80000498C0470028049000F057840D98401C19
:102C9000641E0D90F2D1CDF8C0800A9C3021002C2A
:102CA0008DF800100CDD309F01236A4602A93846DA
:102CB00000F0FEFC002840F04084641EF4D1309700
:102CC000059F089C84B1DDF8C08017F8011B0498AB
:102CD000C0470028049000F030840D98401C641E0A
:102CE0000D90F2D1CDF8C0800B9C3021002C8DF8D6
:102CF00000100CDD309F01236A4602A9384600F01F
:102D0000D7FC002840F01984641EF4D1309705994F
:102D10000898099C0F1884B1DDF8C08017F8011BD2
:102D20000498C0470028049000F007840D98401CC8
:102D3000641E0D90F2D1CDF8C0800C9C3021002C87
:102D40008DF800100CDD309F01236A4602A9384639
:102D500000F0AEFC002840F0F083641EF4D1309700
:102D60009DF8400041077FF585AE2020002D8DF8AD
:102D700000007FF77FAE309C01236A4602A92046FF
:102D800000F096FC002840F0D8836D1EF4D13094FA
:102D900070E60FF6A0100590B3E30E9D002D04D54C
:102DA0002046FFF7E1F8044607E02A46204600F0F7
:102DB000BDFD002814BF041B2C460894A1E3316814
:102DC00051F8040B316020F00002002121F0FF33A4
:102DD000CDE9022312AC0594782177E32199487854
:102DE00020B14FF0FF340FF600102FE79DF842009E
:102DF000622853D0682815D06A2836D06C2806D0AF
:102E000071283CD0742825D07A2818D053E0316836
:102E100051F8040B3160002857D14FF0FF340FF602
:102E2000E00013E7316851F8040B316020B94FF02E
:102E3000FF340FF6CC0009E70D99018061E331689A
:102E400051F8040B316000283FD14FF0FF340FF6EA
:102E5000B000FBE6316851F8040B3160002834D132
:102E60004FF0FF340FF69800F0E6316851F8040B8C
:102E7000316070B94FF0FF340FF68400E6E6316838
:102E800051F8040B316020B94FF0FF340FF6700099
:102E9000DCE60D9AD317C0E9002332E3316851F81C
:102EA000040B316020B94FF0FF340FF65400CDE62B
:102EB0000D99017025E3316851F8040B316020B998
:102EC0004FF0FF340FF63800C0E60D99016018E3AB
:102ED0009DF842004C2807BF3168CA1D3068C21DEA
:102EE00022F007023260D2E9000108323260CDE9F7
:102EF0000201C80F02D007982D210AE0BDF840005A
:102F0000810702D507982B2103E0C00705D5079854
:102F1000202112AA1154401C079012A907980D18DD
:102F2000DDE90201CDE92201059525AC0E980028C6
:102F300048BF062007D402BF9DF8000040F02000E3
:102F4000672801D101200E90DDE902AB4FEA4B0367
:102F500043EADA735A15DB174FF0FF30834208BF9C
:102F6000824210D14FEA0B3050EA1A504FEA0A3130
:102F700008BF002907D0613F03201A2F089017D3FC
:102F80000FF2B8710FE0DDE902014A00521512F1AB
:102F9000010F10D108030ED1613F03201A2F0890B2
:102FA0001AD30FF2A0710322284600F0CFFBA8E24B
:102FB0000FF28471F7E7DDE9020101AA00F0E2FCFB
:102FC000CDE90201DDE9022333F0004108BF00280A
:102FD00005D100270025B5E00FF26471E3E7019900
:102FE000DFF8BC2647F29750414391FBF2F2019281
:102FF000DDE92245C2F10702002A25F0004504DD83
:103000002046294600F027FB0BE052420020DFF863
:10301000941600F020FB02460B462046294600F09D
:10302000E9FC04469DF8000040F0200A0D46BAF184
:10303000660F06BF019F0A3706270E983F18142F08
:10304000C8BF142730208DF894000DF19508002F8B
:1030500034DD2046294600F0D6FC01460A4608F138
:10306000080E04200A23B2FBF3FC0CEB8C0BA2EB42
:103070004B0230320EF8012C0A22BCFBF2F202EBBA
:103080008203ACEB43033033401E0EF8023DE9D11E
:10309000083F002F0EF10808D9DD084600F0BAFC01
:1030A00002460B462046294600F0BBFC0022DFF812
:1030B000F83500F0BFFC04460D46CAE72F98A8EB90
:1030C00000080DF1950405E00198401EA8F10108E3
:1030D0000190641C20783028F6D0BAF1660F02D136
:1030E000019F7F1C04E0BAF1650F0CBF0127002788
:1030F0000E983F18B845B8BFA8F10107002F20D49B
:10310000474505DAE05D3428C8BF4FF0390C01DCD3
:103110004FF0300C3946601E431800E07F1E13F854
:103120000159491E6545F9D0BCF1390F02D1625CE5
:10313000521C6254002904D504460198401C7F1C8F
:103140000190019D38B29DF80080DDF838A000287C
:1031500002DC01270FF2F05448F02000662808BF77
:103160006D1C17D067280FFA85FB5AD11BF1040F8D
:1031700043DBD34541DA9DF840006D1C010703D4C1
:1031800038B25045D8BF824628B2BAEB000A48BFD1
:103190004FF0000A0FFA85F8B8F1000F00F3AA808B
:1031A0000898411C0891302205990A54BAF1000F81
:1031B00003DC9DF84010080705D50898411C0891CC
:1031C0002E2205990A541AEB080FB8BFCAF1000560
:1031D0002DB26842AA443AB20B909245B8BF574606
:1031E000059B08983FB209973A462146184400F0DB
:1031F000ADFAAAEB07050C95C8E038B2504504DAE1
:103200009DF84020110758BF8246BAF1010A48BF15
:103210004FF0000AB8F1670F0CBF4FF065084FF090
:1032200045080898421C0892BAF1000F059A14F854
:10323000011B115403DC9DF8400001071BD50898C1
:10324000421C08922E21059A1154BAF1000F12DD8A
:103250007F1E38B28245B8BF5746059B08983AB2E0
:103260002146184400F072FA08983FB238180890C6
:10327000AAEB07000B90059908980844BBF1000FD2
:1032800080F8008003D42B214170811C04E02D21A3
:1032900041705D46811C6D42002022AA0AE02B4647
:1032A0000A2593FBF5F505EB8504A3EB440302F82F
:1032B000013B401C2DB2002DF1DC012806DC48F05A
:1032C0002002652A04BF302201F8012B002822AB1E
:1032D00008D1302001F8010B06E0401E1A5C3032A4
:1032E00001F8012B0028F8DC059A08981044091A07
:1032F00009914BE039B228B281421DDA0598089B4A
:103300003AB22146184400F021FA08993FB27918E0
:103310000891A8EB0700BAF1000F0B9003DC9DF8B1
:103320004020100705D505982E2242540999491CC2
:103330000991CDF830A029E00598089B2AB22146D2
:10334000184400F003FA08987F1B4044BAF1000FBC
:10335000089003DC9DF840100A0704D5411C089131
:103360002E2205990A5438B28245B8BF57460598AF
:10337000089B3AB204EB0801184400F0E7F90898FA
:103380003FB23818AAEB070708900B979DF840004A
:1033900000F01400102840F0B480079A08980B99A8
:1033A000821809988A1882180C980F9980188842F8
:1033B00080F2A780081A0A90A3E09DF842006228D4
:1033C00008D068280CD06A2810D06C2818D0712832
:1033D0000CD015E0316851F8040B3160C0B213E035
:1033E000316851F8040B316080B20DE03068C21DC5
:1033F00022F007023260D2E900010832326004E0B4
:10340000316851F8040B31600021CDE902019DF8CB
:103410004000020754D5DDE90201002908BF002859
:103420004ED09DF8000040F02000782848D1079940
:1034300012A830234354491C4A1C07929DF80020CF
:1034400042543DE09DF84200622808D068280CD024
:103450006A2810D06C2818D071280CD015E031687B
:1034600051F8040B316040B213E0316851F8040B9D
:10347000316000B20DE03068C21D22F007023260F8
:10348000D2E900010832326004E0316851F8040BDF
:103490003160C117CDE90201002902D507982D221C
:1034A0000AE0BDF84010880702D507982B2203E0F8
:1034B000C80705D50798202212A90A54401C079076
:1034C00012A80799014405919DF8001002A800F088
:1034D00039F816E001200790316851F8040B31608B
:1034E0008DF848000DE00120079025229DF800008E
:1034F0008DF8482028B19DF800008DF84900022180
:1035000007910F9D07990A986D1A08992D1A0B9823
:103510006D1A09992D1A0C986D1A9DF840102D1AE4
:103520004A073FF5A6AB2020002D8DF800007FF75D
:10353000A0AB309F2C46FFF790BB4FF0FF3031B06F
:10354000BDE8F08F2DE9FE4C06468B46376958469C
:103550006F2808BF082205D0FFF76CFA782814BF3F
:103560000A221022D6E900013C2504468A46BBF116
:10357000640F18BFBBF1690F04D1002902D5644262
:103580006AEB4A0ABAF1000F08BF002C0CD1306B6D
:1035900050B9082A3BD196F83810080737D53021A2
:1035A0003B2587F83B1032E08DF800B0934620466B
:1035B00051465A460023FEF7B1FF3032D0B26D1E9D
:1035C0003A2801950DDA7A55204651465A4600238D
:1035D000FEF7A4FF04465FEA010A08BF002C05D1EC
:1035E00008E09DF800001218513AECE7F1687819EC
:1035F0008142DCD3BBF1080F09D196F838000107EE
:1036000005D5785D302802D06D1E30207855C5F183
:103610003C02306BB26179198242F16007DA318F76
:10362000821A4FF6EF7001403262318710E00028B5
:103630000ED596F8380000F01400102808D1736BEE
:103640007069316A1B1A5B1A9B1A002BC8BF336260
:1036500003B0BDE8F08C2DE9D04306460F46144672
:103660004FF00008DFF8449012E0E00707D542462B
:103670004B463046394600F0DDF906460F464046D7
:10368000494642464B4600F0D5F9641080468946CB
:10369000002CEAD130463946BDE8D083CBCCCC0CE7
:1036A000A08601000000F03F84D79741000024402D
:1036B000F8B505460E4617461C4600205CB117F8C3
:1036C000011BB068A847B06030B1F06A401CF062DE
:1036D0000020641EF3D1F2BD4FF0FF30F2BD0000B8
:1036E000686A6C747A4C00007072696E74665F73FD
:1036F0003A20256E20646973616C6C6F7765640095
:103700007072696E74663A2062616420256E206171
:103710007267756D656E74007072696E74665F7342
:103720003A2062616420257320617267756D656E51
:1037300074000000000000006E616E004E414E00FB
:10374000696E6600494E46003000000062B38B0788
:1037500008D0521E11F8013B00F8013B00F0248014
:103760008B07F6D1830740F0208000BF103A07D3C3
:1037700030B4B1E83810103AA0E83810F9D230BCB3
:10378000530724BFB1E80810A0E8081044BF51F85F
:10379000043B40F8043BD20724BF31F8022B20F849
:1037A000022B44BF0B7803707047121F17D35B00C6
:1037B00009D151F8043B20F8023B1B0C121F20F8E2
:1037C000023BF6D20BE051F8043B00F8013B1B0A28
:1037D00020F8023B1B0C121F00F8013BF3D238BF4C
:1037E000121D521E24BF11F8013B00F8013BF8D80E
:1037F0007047000030B40021224A1368224A14683E
:10380000002830D0214A1568C5F303250E2D0ED0AF
:103810001268C2F303220D2A26D1827812F00F0219
:1038200062F303040279002A14D0012213E08278A3
:1038300012F00F0262F303030279002A01D0012281
:1038400000E0002262F3DF73114AB0F9000042F891
:10385000203009E0002262F3DF740E4AB0F9000064
:1038600042F8204000E00649080030BC70470A4B8F
:103870001A68002A03D01A6800B242F82010704774
:1038800001005600689308106C9308100000204057
:1038900000A0204000C02040EC06022800B500BF78
:1038A000130096469446103928BFA0E80C50FAD869
:1038B0005FEA417C28BF0CC048BF40F8042BC90711
:1038C00028BF20F8022B48BF00F8012B00BD0000E4
:1038D00070470000C9B202788A421AB11CBF10F8C2
:1038E000012FF9E718BF00207047000080B500B92C
:1038F00006A005490B681BB122220021984701E070
:1039000000F0A1F8222002BD38920228636F6E7386
:10391000747261696E742068616E646C65723A20BD
:10392000626164206D65737361676500C9B2830766
:1039300006D0521E22D310F8013B9942F7D11FE066
:10394000083A13D302F1040241EA012141EA01419C
:1039500050F8043B121F21BF4B40A3F1013C2CEA5D
:10396000030C1CF0803FF3D0C9B2001F083210F8DE
:10397000013B521E28BF91EA030FF8D818BF01205F
:10398000401E704710B5144600F002F8226010BDCA
:10399000C1F30A5343B14A0012F5001F28D2A3F223
:1039A000FE32A1EB0251704750EA410C20D001F0E9
:1039B000004C31EA0C01B1FA81F204BFB0FA80F395
:1039C000D2180B3AB2F120032CBF00FA03F1914058
:1039D00041EA0C013EBFC2F1200C20FA0CF319435E
:1039E0009040524240F2FD33D21A01EB035170472E
:1039F0000022704741EC110B43EC102B81EE000BC1
:103A000051EC100B704741EC100BBCEEC00B10EEEC
:103A1000100A704700EE100AB8EE400B51EC100B84
:103A2000704741EC110B43EC102B31EE400B51EC85
:103A3000100B704741EC110B43EC102B21EE000BE7
:103A400051EC100B7047012000F000B880B5AFF3C7
:103A50000080024A11001820ABBEFBE726000200DE
:103A6000012101700121417000214160002181602C
:103A70000021C160002101610021416100218161BB
:103A80000021C16100210162002141620021C0F8D2
:103A9000CC10DFF8D81AC0F8C810DFF8D41AC0F874
:103AA000C4100021016400214164002181640021CF
:103AB000C16400210165002141655FF07E51016311
:103AC00000214163002181630021C163002141661F
:103AD000002181660021C166002101670021416744
:103AE000002181670021C1670021C0F880100021FA
:103AF000C0F884100021C0F894100021C0F898107C
:103B00000021C0F89C100021C0F888100021C0F8E6
:103B10008C100021C0F890100021C0F8AC100021DA
:103B2000C0F8B0100021C0F8B4100021C0F8A010F7
:103B30000021C0F8A4100021C0F8A8100021C0F88E
:103B4000B8100021C0F8BC100021C0F8C01000213E
:103B500001660021C1650021816570472DE9F041B2
:103B600004000D001600DFF80C7AD4ED020A94ED83
:103B7000020A20EE800A94ED011AD4ED010A01EE4A
:103B8000200A00F0FDFC87ED000ADFF8EC89D4ED97
:103B9000020A94ED020A20EE800A94ED001AD4ED98
:103BA000000A01EE200A00F0EBFC88ED000A94ED1B
:103BB000020AB5EE400AF1EE10FA04D5FF21DFF853
:103BC000BC09017003E00120DFF8B0190870DFF8CC
:103BD000AC09D7ED000A95ED000A20EE800A0178C5
:103BE00000EE901AB8EE601AD4ED000A21EE201A09
:103BF000D5ED020A01EE600A86ED000A007800EEBB
:103C0000100AB8EE400AD8ED000A60EE200A95EDE1
:103C1000010A20EE801AD4ED010A95ED020A00EEA9
:103C2000C01A86ED011A94ED000AD5ED000A20EEC7
:103C3000200A94ED011AD5ED010A01EE200A94ED57
:103C4000021AD5ED020A01EE200A86ED020ABDE84D
:103C5000F081000010B52DED0E8B86B00400B0EEA3
:103C600040EA2078002800F07D846078012860D147
:103C700094ED2B0AD4ED2B0A20EE200AD4ED2C0A69
:103C800094ED2C1A00EE810A00F07AFCD4ED2B0A98
:103C9000F5EE400AF1EE10FA1ED0D4ED2C0AF5EE46
:103CA000400AF1EE10FA17D0D4ED2D0AF5EE400AD5
:103CB000F1EE10FA10D0B5EE400AF1EE10FA0BD08A
:103CC000D4ED2B0AC0EE800A94ED2C1A81EE000A86
:103CD00000F07AFD84ED0A0A94ED210AB5EE400A5F
:103CE000F1EE10FA22DD94ED160AD4ED0A0A30EE58
:103CF000600A00F069FCD4ED310A20EE800A84ED00
:103D00000B0AD4ED0B0A9FEDAB0AF4EE400AF1EE7C
:103D100010FA08DA94ED0B0ADFEDA70AB4EE600A98
:103D2000F1EE10FA07D50020E06204E00020E06226
:103D300001E00020E062606890ED000A6068D0ED6C
:103D4000000A20EE200AA06890ED001AA068D0EDCD
:103D5000000A01EE200AE06890ED001AE068D0ED5C
:103D6000000A01EE200A00F00BFC6068D0ED000AAA
:103D7000F5EE400AF1EE10FA03DD606890ED001AEE
:103D800004E06068D0ED000AB1EE601ADFED8B0A46
:103D9000B4EE601AF1EE10FA40F19980A06890ED4F
:103DA000001AB5EE401AF1EE10FA03DDA06890EDAE
:103DB000001A04E0A06890ED001AB1EE411AB4EECA
:103DC000601AF1EE10FA40F18280E06890ED001A7E
:103DD000B5EE401AF1EE10FA03DDE06890ED001A3E
:103DE00004E0E06890ED001AB1EE411AB4EE601AFA
:103DF000F1EE10FA6BD56068D0ED000AC0EE800AD3
:103E0000B0EE608AA068D0ED000AC0EE800AF0EE45
:103E1000608AE068D0ED000AC0EE800AB0EE609AD9
:103E2000DFED670AB4EE600AF1EE10FA55DBDFED64
:103E3000650AB4EE600AF1EE10FA4ED594ED210A4F
:103E400068EE800A94ED1E0A49EE400AF0EE60CA60
:103E500094ED1B0A29EE000AD4ED210A08EE600A4F
:103E6000B0EE40DA94ED1E0A28EE001AF0EE680A71
:103E700094ED1B0A00EEC01AF0EE41DA9FED520AF3
:103E80006EEE000A94ED101A3CEEC11AD4ED101A31
:103E900040EE811AC4ED101A6EEE000A94ED111A6C
:103EA0003DEE411AD4ED111A40EE811AC4ED111AFB
:103EB0002EEE000AF0EE6D0A94ED121A70EEC10AB1
:103EC00094ED121A00EE201A84ED121A05E000207B
:103ED0002064002060640020A064D4ED100A94EDFA
:103EE000330A60EE800A94ED130A00EE8E0A84ED28
:103EF000130AD4ED110A94ED330A20EE800AD4EDB2
:103F0000140A40EE0E0AC4ED140AD4ED120A94ED20
:103F1000330A60EE800A94ED150A00EE8E0A84EDF5
:103F2000150A9FED2A0AD4ED130AF4EE400AF1EEC9
:103F300010FA02D5F0EE400A0DE094ED131ADFED11
:103F4000240AB4EE601AF1EE10FA02DBDFED210A6A
:103F500001E0D4ED130AC4ED130AD4ED140AF4EE13
:103F6000400AF1EE10FA02D5F0EE400A0DE094EDB1
:103F7000141ADFED170AB4EE601AF1EE10FA02DB44
:103F8000DFED140A01E0D4ED140AC4ED140AD4EDF7
:103F9000150AF4EE400AF1EE10FA1FD4D4ED150A1A
:103FA0009FED0B0AF4EE400AF1EE10FA14DB9FEDE0
:103FB000090A13E00100B4430000B4C30040834485
:103FC0000100484400009644C3F54840295C0FBDF9
:103FD0002A5C0F3D295C0F3D94ED150A84ED150A0E
:103FE0009FED010A02E000BF34FA8E3C94ED1B1AEB
:103FF000D4ED0B1A2069D0ED000A41EE610A94ED70
:10400000322A94ED101AD4ED131A42EE011A40EE42
:10401000801AC4ED2E1AD4ED1E1A94ED0B1A6069A5
:10402000D0ED000A41EEC10A94ED321AD4ED111A16
:1040300094ED142A01EE212A00EE802A84ED2F2A25
:1040400094ED211AD4ED0B1AA069D0ED000A41EECF
:10405000610A94ED321AD4ED121A94ED152A01EE8C
:10406000212A00EE802A84ED302A94ED0D0AF1EE2B
:10407000400A94ED2E0A20EE800A94ED0E1AD4ED3B
:104080002F0A01EE600A94ED0F1AD4ED300A01EE0A
:10409000600A60EE0E0AB0EE000AC0EE800A94EDEF
:1040A0000C0A30EE800A84ED0C0AD4ED0C0A94ED73
:1040B0002E0A20EE800A94ED0E1AD4ED300A01EE9D
:1040C000200A94ED0F1AD4ED2F0A01EE600A60EE7B
:1040D0000E0AB0EE000AC0EE800A94ED0D0A30EE32
:1040E000800A84ED0D0AD4ED0C0A94ED2F0A20EE1F
:1040F000800A94ED0D1AD4ED300A01EE600A94EDB9
:104100000F1AD4ED2E0A01EE200A20EE0E0AF0EE70
:10411000000AC0EE200A94ED0E0A30EE800A84ED0B
:104120000E0AD4ED0C0A94ED300A20EE800A94EDCC
:104130000D1AD4ED2F0A01EE200A94ED0E1AD4EDDB
:104140002E0A01EE600A20EE0E0AF0EE000A80EE62
:10415000200AD4ED0F0A30EE200A84ED0F0A94ED08
:104160000C0AD4ED0C0A20EE200AD4ED0D0A94EDD1
:104170000D1A00EE810AD4ED0E0A94ED0E1A00EE2F
:10418000810AD4ED0F0A94ED0F1A00EE810A00F0B7
:10419000F7F9B5EE400AF1EE10FA17D0D4ED0C0A9B
:1041A000C0EE800AC4ED0C0AD4ED0D0AC0EE800A00
:1041B000C4ED0D0AD4ED0E0AC0EE800AC4ED0E0A5D
:1041C000D4ED0F0A80EE800A84ED0F0A94ED0C0AFC
:1041D000D4ED0C0A20EE200AD4ED0D0A94ED0D1A50
:1041E00000EE810AD4ED0E0A94ED0E1A00EEC10A1B
:1041F000D4ED0F0A94ED0F1A00EEC10A84ED190AEE
:10420000B0EE000AD4ED0D0A94ED0E1A60EE811A9C
:1042100094ED0C1AD4ED0F0A41EE201A61EE800ADB
:10422000C4ED1A0AD4ED0D0A94ED0F1A60EE811A4E
:1042300094ED0C1AD4ED0E0A41EE601A61EE800A7C
:10424000C4ED1B0AD4ED0D0A94ED0E1A60EE811A2E
:1042500094ED0C1AD4ED0F0A41EE601A61EE800A5B
:10426000C4ED1C0AD4ED0C0A94ED0C1A60EE810A20
:1042700094ED0D1AD4ED0D1A41EE610AD4ED0E1A2B
:1042800094ED0E1A41EE810AD4ED0F1A94ED0F1A37
:1042900041EEC10AC4ED1D0AD4ED0E0A94ED0F1AC9
:1042A00060EE811A94ED0C1AD4ED0D0A41EE201A3D
:1042B00061EE800AC4ED1E0AD4ED0D0A94ED0F1ACA
:1042C00060EE811A94ED0C1AD4ED0E0A41EE201A1C
:1042D00061EE800AC4ED1F0AD4ED0E0A94ED0F1AA8
:1042E00060EE811A94ED0C1AD4ED0D0A41EE601ABD
:1042F00021EE800A84ED200A94ED0C0AD4ED0C0A1C
:1043000020EE200AD4ED0D0A94ED0D1A00EEC10A3C
:10431000D4ED0E0A94ED0E1A00EEC10AD4ED0F0A88
:1043200094ED0F1A00EE810A84ED210A60780128CD
:1043300044D194ED190AE069D0ED000A20EE200A7C
:10434000D4ED1C0A206A90ED001A00EE810AD4ED2B
:104350001F0A606A90ED001A00EE810A84ED250ABA
:1043600094ED1A0AE069D0ED000A20EE200AD4ED9F
:104370001D0A206A90ED001A00EE810AD4ED200A91
:10438000606A90ED001A00EE810A84ED260A94ED31
:104390001B0AE069D0ED000A20EE200AD4ED1E0AC7
:1043A000206A90ED001A00EE810AD4ED210A606ABD
:1043B00090ED001A00EE810A84ED270A94ED190AA7
:1043C0006068D0ED000A20EE200AD4ED1C0AA06837
:1043D00090ED001A00EE810AD4ED1F0AE06890ED1E
:1043E000001A00EE810A84ED220AD4ED1A0A6068F0
:1043F00090ED000A20EE800AD4ED1D0AA06890ED31
:10440000001A00EE810A94ED201AE068D0ED000A4F
:1044100001EE200A84ED230A94ED1B0A6068D0EDBA
:10442000000A20EE200AD4ED1E0AA06890ED001AC2
:1044300000EE810AD4ED210AE06890ED001A00EE4A
:10444000810A84ED240AD4ED1E0A94ED210A00F0BD
:10445000BBF984ED170A94ED1B0A00F01FFAB1EEC8
:10446000400A84ED180AD4ED1A0A94ED190A00F0F6
:10447000ABF984ED160A94ED160A00F001F9B0EEDE
:10448000408A94ED160A00F0B9F8D4ED220A60EEE5
:10449000880A94ED231A41EE000AC4ED280A94ED2F
:1044A000160A00F0ABF8B0EE408A94ED160A00F060
:1044B000E7F8D4ED220AF1EE600A60EE880A94ED86
:1044C000231A41EE000AC4ED290AD4F89000C4F87A
:1044D000A8006078012845D194ED1B0AB0EE40BADF
:1044E00094ED1E0AF0EE40BA94ED210AB0EE40CAF7
:1044F00003A880EC03BAE06990ED000AF0EE409A60
:10450000206A90ED000AB0EE40AA606A90ED000AC1
:10451000F0EE40AA6846C0EC039AE06990ED000A0C
:10452000E069D0ED000A20EE200A206A90ED001A22
:10453000206AD0ED000A01EE200A606AD0ED000A80
:10454000606A90ED001A00EE810A00F019F8B5EEED
:10455000400AF1EE10FA05D014F1AC02694603A846
:10456000FFF7FCFA06B0BDEC0E8B10BD6666263F69
:104570006666E63E0C920228109202285B920228A0
:1045800081B0F7EE080AB6EE001A20EE011A8DEDA2
:10459000000A0099DFF83803B0EB61000090DDED10
:1045A000002A61EE221AB0EE602A01EEE22A62EEE3
:1045B000221A21EE211A41EE610A60EEA10A20EED4
:1045C000200A01B07047000003E0DFED7D0A30EE05
:1045D000200ADFED7C0AB4EE600AF1EE10FAF4DA9C
:1045E000DFEDA40AB4EE600AF1EE10FA04D5DFEDB7
:1045F000A20A30EE200AF3E77047000080B5FFF70B
:10460000E3FFF0EE400A9FED9D0A60EE800A9FED09
:104610009C0A80EE800AB5EE400AF1EE10FA08D549
:104620009FED981ADFED980A40EE010A20EE800A0D
:1046300007E09FED941ADFED940A40EE410A20EE68
:10464000800AB5EE400AF1EE10FA0CD5F7EE000A3A
:1046500070EE201ADFED8D0AB7EE001A01EEA01AF7
:1046600021EE000A0BE0FFEE000A70EE201ADFEDEB
:10467000880AB7EE001A01EEA01A21EE000A01BD69
:1046800080B5DFED840A30EE200AFFF7B7FF01BDE9
:10469000B5EE400AF1EE10FA02DDB0EE401A01E08C
:1046A000B1EE401ADFED7C0AB4EE601AF1EE10FABA
:1046B0004EDBF7EE000AC0EE800AF5EE400AF1EE9E
:1046C00010FA04DDF7EE000A80EE801A05E0F7EE3E
:1046D000000AC0EE800AB1EE601AF7EE000AC0EEE2
:1046E000800AF5EE400AF1EE10FA04DDF7EE000A5A
:1046F000C0EE800A05E0F7EE000AC0EE800AF1EE97
:10470000600AF7EE001AC1EE801AF5EE401AF1EEDB
:1047100010FA04DDF7EE001AC1EE801A05E0F7EE9C
:10472000001AC1EE801AF1EE611ABFEE002A70EE97
:10473000820ADFED642AB2EE0C2A01EEA22ADFED36
:10474000601A40EE821ADFED530A41EE810A2DE035
:10475000B5EE400AF1EE10FA02DDF0EE400A01E09B
:10476000F1EE400AB5EE400AF1EE10FA02DDB0EECD
:10477000402A01E0B1EE402AB5EE400AF1EE10FA0F
:1047800002DDB0EE401A01E0B1EE401AFFEE001A71
:1047900072EE211ADFED4B2AB2EE0C2A01EE222A2C
:1047A0009FED4C1A01EEC21A61EE200AB5EE400AE6
:1047B000F1EE10FA01DCF1EE600AB0EE600A70472B
:1047C0000000B4C30100344380B52DED028BB0EE80
:1047D000408AB5EE408AF1EE10FA07D1F5EE400AB4
:1047E000F1EE10FA02D19FED390A40E0B5EE408AB1
:1047F000F1EE10FA0AD1F5EE400AF1EE10FA02DD00
:104800009FED240A33E09FED300A30E0F5EE400AD8
:10481000F1EE10FA0AD1B5EE408AF1EE10FA02DD9F
:104820009FED2A0A23E09FED130A20E080EE880A1C
:10483000FFF72EFFB5EE408AF1EE10FA09D5B5EE7E
:10484000400AF1EE10FA04DDDFED0A0A30EE200A2C
:104850000DE0B5EE408AF1EE10FA08D5B5EE400A4B
:10486000F1EE10FA03D5DFED060A30EE200ABDECBA
:10487000028B01BD000034C30000B443DB0F49408C
:10488000000034437B81CF3E83F9A23F666666BE5B
:104890006666663E0000B4420100803F80B52DEDA3
:1048A000028BB0EE408AB7EE000A08EE480AFFF726
:1048B00067FE88EE000AFFF7EBFEBDEC028B01BD40
:1048C000000034C2B81E75400000B4C200000000F1
:1048D000DF59375F00003442DFF8C4110868C0F3C5
:1048E0004000002801D0022002E0086810F001001A
:1048F0007047DFF8B001006810F001007047000059
:10490000C21E022A01D3012002E0C01E086000205E
:1049100070471CB5FF246946FFF7F2FFC0B20028BC
:1049200002D02000C0B207E0DFF87C11009851F8F7
:10493000200010F00100C0B216BD0000002801D018
:10494000032801D3012002E0401E086000207047C8
:104950001CB5FF246946FFF7F1FFC0B2002802D062
:104960002000C0B208E0DFF8C40100990901084442
:10497000C06810F00100C0B216BD0000DFF8BC0135
:104980000068800810F00100704738B5040020006E
:10499000C0B2082811D3DFF898511822DFF894111B
:1049A000280000F00DFC0020E87540F65B01DFF800
:1049B00088010160002000F03BFCDFF8CC112000F2
:1049C000C0B251F82000C0F30020002805D0E4B2A6
:1049D00051F8240010F00F0000E0FF2032BD38B580
:1049E00004002000C0B2082811D3DFF84451182277
:1049F000DFF84011280000F0E3FB0020E8754FF4D9
:104A00000961DFF834010160002000F011FCDFF8DB
:104A10007801E4B250F82400C0F30110C0B232BDF6
:104A2000DFF868211368C3F3072303601068C0F33D
:104A3000C40008607047DFF858211368C3F30723E8
:104A400003601068C0F3C4000860704738B5040004
:104A5000072C11D3DFF8D8501822DFF8C411280032
:104A600000F0AEFB0020E8754FF4CE71DFF8C8000F
:104A70000160002000F0DCFBDFF8A00150F824000A
:104A800010F00700010009B2042907D1DFF88801FE
:104A900050F8240010F01F0050F4807000B232BDB6
:104AA000241526404015264040162640DFF8AC125B
:104AB0000A689103890B0160120E12F00102C271A3
:104AC000DFF89C1209680A00D204D20C82800A0026
:104AD000120C02F0FF020281090C01F0FF0141817A
:104AE000DFF84011096811F00F0202730A00C2F3E7
:104AF000031242730A00120AD204D20CC281090FB7
:104B000011F003010174DFF8601309680A00120A4A
:104B100012F0070282710A00120CD205D20D4282F5
:104B2000890F11F00101017570470000001926403E
:104B300070910228D88C0810DC91022810002740C0
:104B40001CB50C006946FFF7DBFE0100C9B2002965
:104B500001D0C0B217E0DFF8B414009851F820007B
:104B600010F07F012160C0F304216160C0F30441B3
:104B7000A1600100090F11F003016173C00E10F074
:104B800001002073002016BD40122640080020407E
:104B9000080420401CB50C006946FFF7CFFE010059
:104BA000C9B2002901D0C0B235E0DFF81015009875
:104BB0000001085800F0FF022260C0F30422626086
:104BC000C0F30442A260000F10F0030020730098AD
:104BD0000001084442681000C00F6073C2F3027005
:104BE000002801D0012000E00020A07322F07F42C5
:104BF000226100980001084480680100C90F2175F6
:104C00000100090E11F001016175A075000C10F092
:104C10000700E075002016BD000126400012264066
:104C2000308D08103815264080B50100DFF8680582
:104C30001822FEF79BFD0121DFF8600501700020BE
:104C400002BDDFF85C150968C90F002908D0DFF83C
:104C50004C150978002907D1002101600320704715
:104C6000002101600320FAE7DFF82C1509680160D4
:104C70000020F4E710B50400FFF72EFE002803D152
:104C80000020206003200DE0DFF8100500780028E8
:104C900005D0DFF8040580682060002002E00020D5
:104CA0002060032010BD0000DFF8F014097800290F
:104CB00005D0DFF8E41449680160002002E000211B
:104CC000016003207047DFF8DC140968C90F002970
:104CD00008D0DFF8C8140978002907D10021016045
:104CE00003207047002101600320FAE7DFF8A814D1
:104CF000C96801600020F4E7DFF8AC140968C90F47
:104D0000002908D0DFF894140978002907D1002180
:104D1000016003207047002101600320FAE7DFF8FB
:104D20007814096901600020F4E710B50400FFF76A
:104D300025FE002803D10020206003200DE0DFF8CD
:104D40005C040078002805D0DFF84C04406920603E
:104D5000002002E000202060032010BD3015264016
:104D60003415264010B50C00C0B2FFF76FFE0028C6
:104D70000ED0012810D0022812D0B0F5887F13D0B1
:104D800040F21111884213D0B0F58A7F14D017E099
:104D90002000FFF756FF16E02000FFF785FF12E026
:104DA0002000FFF767FF0EE02000FFF78CFF0AE00E
:104DB0002000FFF7BAFF06E02000FFF79DFF02E0AA
:104DC00000202060032010BD80B501000020FFF707
:104DD000C9FF02BD80B50322D2B2824203D20020B5
:104DE0000860012003E0401CC0B2FFF7BBFF02BD1A
:104DF00018B587B004006846FFF7E6FF0100C9B2A6
:104E0000002903D000212160C0B22BE001A8FFF7E8
:104E10004DFE9DF81400022803D100982060002068
:104E200020E0DFF888030068C00F002808D0FFF7F3
:104E300060FDC0B2002807D100202060032011E0EF
:104E40000098206000200DE0009901984143BDF8D2
:104E50000800B1FBF0F19DF80B00401CB1FBF0F035
:104E60002060002008B010BD3C152640F0B58BB086
:104E700005000C0069462800C0B2FFF7ABFF010037
:104E8000C9B2002903D000212160C0B2BCE02800D3
:104E9000C0B202284CD307A92800C0B2401CFFF7BB
:104EA0004FFEC0B2002811D0DFF804631822DFF8EB
:104EB0000413300000F084F90020F07540F663110F
:104EC000DFF8F4020160002000F0B2F94F49280039
:104ED000C0B201EB800050F8080CC00F002807D0CA
:104EE0009DF82900022807D10098206000208BE05F
:104EF00000982060002087E0EDB26D1C2800FFF7CD
:104F000008FD0100C9B2002902D0C0B2FF2803D1B8
:104F100000202060032077E000990798414308981B
:104F2000B1FBF0F10998B1FBF0F0206000206BE0DC
:104F300001A92800C0B2401CFFF72CFEC0B2002817
:104F400011D0DFF86C621822DFF86812300000F030
:104F500037F90020F07540F67F10DFF85C1208602A
:104F6000002000F065F955482900C9B209014058F0
:104F7000C00F002807D09DF81000022807D1009824
:104F80002060002040E00098206000203CE0EDB26E
:104F90006D1C2800FFF7DCFC0100C9B2002902D01B
:104FA000C0B2FF2803D10020206003202CE09DF830
:104FB000110001281DD1009A0023019E00273F0601
:104FC00047EA162736060598002136184F41A6FBFA
:104FD000020106FB031107FB0211029A039BA3FBCC
:104FE0000223FDF79BFA000E40EA0120090E206023
:104FF00009E00099019841430298B1FBF0F1039850
:10500000B1FBF0F0206000200BB0F0BD0016264090
:1050100010B50323421E0400E4B2002C03D10800A3
:10502000FFF7E6FE0CE01400DBB2E4B2A34204D3C7
:105030001000C0B2FFF71AFF02E0C0B2FFF792FE05
:1050400010BD38B505000C002800C0B2FFF79DFC6C
:105050000100C9B2FF2904D12000FFF7F2FDC0B260
:105060001BE06946C0B2FFF7D3FF0100C9B20029B7
:1050700003D000212160C0B20FE02800C0B2FFF7CA
:10508000AEFCC0B2002805D002280BD006D30328FE
:105090000CD00FE000982060002032BD009840083E
:1050A0002060F9E7009880082060F5E70098C008C4
:1050B0002060F1E7002020600320EEE70019264081
:1050C0001FB5040002A90120FFF7BBFF0100C9B210
:1050D000002903D000212160C0B21AE0694601A86E
:1050E000FFF79EFC01980021421C71F1FF335B0128
:1050F00043EAD26352010098002112184B410298F2
:105100000021490141EAD0614001FDF707FA206022
:10511000002004B010BD1FB5040002A90120FFF754
:1051200090FF0100C9B2002903D000212160C0B264
:105130001AE0694601A8FFF77EFC01980021421C95
:1051400071F1FF335B0143EAD26352010098002101
:1051500012184B4102980021490141EAD0614001F7
:10516000FDF7DCF92060002004B010BD80B5DFF849
:105170004C100A68C2F303220E2A07D00968C1F353
:1051800003210D2905D1FFF7C6FF02BDFFF798FFE8
:10519000FBE70120F9E70000589102285892022805
:1051A00018152640081526400C15264030152640B7
:1051B00070910228308D0810DC91022800002040F8
:1051C00001B58B071AD1830724D1121F21D351F8BF
:1051D000043BA3F1013C2CEA030C1CF0803C04BF0F
:1051E00040F8043BF1E79CFA8CFCBCFA8CF1C1F16D
:1051F00018018B40CB4040F8043B13E0042A09D34C
:1052000011F8013B521E00F8013B5BB18B07F7D14F
:10521000D9E7121D5AB111F8013B521E00F8013BAB
:1052200003B1F8D111001CBF0022FCF733F801BD17
:1052300001BEFEE780B52349234A13688B423ED066
:1052400011602249096851622149916201685160E7
:10525000416891608168D160C168116101695161E3
:10526000416991618169D161C1691162F1EE101AE0
:1052700011F0900F23D017499162016AD162416AFF
:105280001163816A5163C16A9163016BD163416BA0
:105290001164816B5164C16B9164016CD164416C88
:1052A0001165816C5165C16C9165016DD165416D70
:1052B0001166816D5166C16D9166006ED06600F019
:1052C0000BF801BDFAF9F8F7A88F022828ED00E0E5
:1052D000A4A3A2A1ABAAA9A8FEE70000F8B5040008
:1052E0000D00002000260A212800FEF7F3FA002214
:1052F0000021002802D0401B401C0200002000E0DA
:10530000401C07001300FFB2DBB29F420DD2030026
:10531000DBB2EB5C2C2B00D1761C37002300FFB2F4
:10532000DBB29F42ECD1401C01000800C0B2F2BDCC
:105330003EB504000020002021000120FFF7CEFF31
:10534000451E2A00D2B221006846FFF739FF00212E
:105350006846EDB24155684600F01EFC3EBD0000B7
:1053600038B584B0040000209FEDCA0A2100012056
:10537000FFF7B4FF451E2A00D2B221006846FFF7AE
:105380001FFF00216846EDB24155684600F030FC31
:10539000B7EEC00B05B030BD38B584B004000020B6
:1053A0009FEDBA1B21000120FFF798FF451E2A0040
:1053B000D2B221006846FFF703FF00216846EDB234
:1053C0004155684600F014FC05B030BD10B4002112
:1053D0000179083101710179182940DB0179183907
:1053E0000171C178491CC1708178022917D11C2232
:1053F000017811F0030F07D10188642491FBF4F3C5
:1054000004FB1311002908D101884FF4C87491FBE3
:10541000F4F304FB131100290FD1521C0DE01F22DD
:105420008178042908D08178062905D08178092956
:1054300002D081780B2900D11E22C178D2B28A42D3
:105440000DD20121C1708178491C817081780D29AC
:1054500005DB81780C3981700188491C018010BC02
:1054600070470000F8B52DED028B04000E000020FF
:1054700000209FED861B9FED851B9FED841B9FEDFC
:10548000831B9FED821B9FED811B9FED820A0025F0
:1054900021000220FFF722FFC0B2205C0100C9B248
:1054A000412903D0C0B2442840F0A4800125012046
:1054B000307221000420FFF711FFC0B2205686F899
:1054C000280021000620FFF709FFC0B2205686F809
:1054D000290021000320FFF701FFC0B22044FFF79D
:1054E0005BFFB0EE408B21000520FFF7F7FEC0B256
:1054F0002044FFF751FFBDEEC81B11EE100A6421D6
:1055000090FBF1F0708164207189414301EE101A23
:10551000B8EEC11B38EE411BBDEEC12B12EE101AC6
:10552000B1819FED8A2BB18903EE101AB8EE433B8F
:1055300031EE433B23EE023BBDEEC33B13EE101AAC
:10554000F181BDEEC03B13EE102A642192FBF1F114
:105550003182318A00FB01F003EE100AB8EEC33B42
:1055600030EE430BBDEEC03B13EE100A7082708A22
:1055700003EE100AB8EE433B30EE433B23EE022B22
:10558000BDEEC22B12EE100AB082708902EE100A34
:10559000B8EE423B9FED6F2B81EE021B33EE011BF9
:1055A00086ED061B308A01EE100AB8EE412B9FED06
:1055B000693B80EE030B32EE000B86ED080B2100F9
:1055C0000720FFF78BFEC0B22044FFF7C9FEF0EEC4
:1055D000400A9FED620A20EE800A86ED0B0A210048
:1055E0000820FFF77BFEC0B22044FFF7B9FE86ED2E
:1055F0000C0A01E0002030720A27E179207A07FBCB
:105600000101B1F110003071617AA07A07FB01014C
:10561000B1F110007071E17A207B07FB0101B1F15B
:105620001000B07121000920FFF758FE0100C9B237
:10563000625C0100C9B22144497807FB0212B2F151
:105640001001F1700100C9B221448A780100C9B289
:105650002144C97807FB0212B2F11001B1700100B8
:10566000C9B22144097911FB07F1C0B22044407945
:1056700051FA80F010F5B86030803000FFF7A6FED8
:105680002800C0B2BDEC028BF2BD0000000000009B
:10569000000000000000000070B52DED028B050039
:1056A0000C000020002629000220FFF717FEC0B2E0
:1056B000285CC0B22C2820D029000720FFF70EFE5E
:1056C000C0B22844FFF734FE84F83C0029000920CA
:1056D000FFF704FEC0B22844FFF742FEB0EE408A56
:1056E00029000B20FFF7FAFDC0B22844FFF738FE6F
:1056F00030EE080A84ED100A01263000C0B2BDEC7D
:10570000028B70BD70B505000C000020002629003A
:105710000220FFF7E3FDC0B2285CC0B241280ED1E1
:10572000012084F8340029000120FFF7D7FDC0B222
:105730002844FFF715FE84ED0E0A012602E0002042
:1057400084F834003000C0B270BD000000000000DA
:105750000070B7400000000000004E40CDCCEC3F90
:105760007CB500246B46DFF8D003D0E90021C3E903
:105770000021002000200020DFF8C05328780128F5
:1057800024D102202870DFF8B8632A213000FEF708
:10579000A1F80222411C0DF10200FFF711FD68463D
:1057A00000F082FA7278022302E0F15C4A405B1C4E
:1057B000F15C2A29F9D1D2B2C0B2824201D00124CF
:1057C0005AE0DFF880133000FFF74CFE002028700D
:1057D000DFF874532878012823D102202870DFF8DD
:1057E0006C632A213000FEF775F80222411C0DF18E
:1057F0000200FFF7E5FC684600F056FA72780223D3
:1058000002E0F15C4A405B1CF15C2A29F9D1D2B27A
:10581000C0B2824201D001242EE0CA493000FFF715
:105820003BFF00202870CA4D2878012822D1022091
:105830002870C84E2A213000FEF74CF80222411C85
:105840000DF10200FFF7BCFC684600F02DFA7278FB
:10585000022302E0F15C4A405B1CF15C2A29F9D189
:10586000D2B2C0B2824201D0012405E0B549300075
:10587000FFF748FF002028702000C0B276BD00006E
:105880001FB500200190B4480078002868D004E0DB
:1058900001226946B148FCF70CFC69460220FCF77E
:1058A00054F90028F4D19DF800000A2858D10620A8
:1058B0000190AA4C012301AA02A92000FCF7C9FC0F
:1058C00003229AA10DF10B0000F044FA002810D138
:1058D0009A48017802293DD0012101702000FCF78F
:1058E000D7FB0190002301AA95492000FCF7B1FCE9
:1058F00030E003228EA10DF10B0000F02BFA0028FE
:1059000010D191480178022924D001210170200092
:10591000FCF7BEFB0190002301AA8C492000FCF794
:1059200098FC17E0032283A10DF10B0000F012FA9E
:1059300000280FD18648017802290BD0012101707F
:105940002000FCF7A5FB0190002301AA814920005B
:10595000FCF77FFC2000FCF761FB0121804801700F
:105960001FBD000038B5A8B0040021A87D491C2245
:10597000FDF7FCFE1EAB7C4890E8260083E826007D
:105980001BAD7A4890E80E0085E80E0018AD784807
:1059900090E80E0085E80E0015AB764D95E80700FF
:1059A00083E8070012AD744890E80E0085E80E0009
:1059B0000FAD724890E80E0085E80E000CAD7048FF
:1059C00090E80E0085E80E0009AD6E4890E80E00E4
:1059D00085E80E0006AD6C4890E80E0085E80E00E4
:1059E00003AD6A4890E80E0085E80E006D466848F1
:1059F00090E80E0085E80E002000C0B2012803D018
:105A00002000C0B2012878D18023624A0021534887
:105A1000FCF7EFFC4FF4FA7000F077FA0223022251
:105A20005FF4E1310220FCF7B6F91C2221A9022023
:105A3000FCF76EF8C82000F068FA0B221BA90220C0
:105A4000FCF766F8322000F060FA0B221EA9022053
:105A5000FCF75EF8322000F058FA0B2218A9022059
:105A6000FCF756F8322000F050FA0B2215A902205C
:105A7000FCF74EF8322000F048FA0B2212A902205F
:105A8000FCF746F8322000F040FA0B220FA9022062
:105A9000FCF73EF8322000F038FA0B220CA9022065
:105AA000FCF736F8322000F030FA0B2209A9022068
:105AB000FCF72EF8322000F028FA0B2206A902206B
:105AC000FCF726F8322000F020FA0B2203A902206E
:105AD000FCF71EF8322000F018FA0B22694602206B
