:020000041008E2
:1000000000000828695608106D5C0810395A08105D
:10001000715C0810755C0810795C08100000000025
:10002000000000000000000000000000F15A08106D
:100030007D5C081000000000815C0810855C0810E1
:10004000934F0810B94F0810DF4F081005500810E3
:100050002B50081051500810775008109D50081070
:10006000895C08108D5C0810915C0810955C081084
:10007000995C08109D5C0810A15C0810A55C081034
:10008000022801D3012010E00B00DBB2042B01DBBE
:1000900001200AE0DFF8503803EB8000C9B2405C71
:1000A000824201D3012000E000207047F8B504002F
:1000B0000F0015001E00022C01D3012020E02A00B1
:1000C0003900C9B22000FFF7DBFF012801D1012070
:1000D00016E03800C0B2002815D1B6F5807F10D2E6
:1000E000DFF808184FF40050444301EB040000EB24
:1000F000850010F58051086866F30F200860002025
:10010000F2BD0120FCE7FFB2012F14D1B6F5803F0C
:100110000FD2DFF8D8174FF40050444301EB04002E
:1001200000EB850010F5A051086866F31720086001
:10013000E5E70120E4E70120E2E700B20012C0B2E7
:100140007047F8B504000E001700200000B2FFF75A
:10015000F4FF05002800C0B2022801D3012029E0E5
:100160003A003100C9B22800C0B2FFF789FF012868
:1001700001D101201EE0DFF874172A00D2B24FF43B
:10018000005042430A442000C0B202EB8000D0F885
:10019000002CF6B266F3092267F30702EDB24FF4C2
:1001A0000050454301EB0500E4B200EB8400C0F8C9
:1001B000002C0020F2BD70B504000D001600022CCA
:1001C00001D3012025E032002900C9B22000FFF749
:1001D00057FF012801D101201BE0DFF810174FF471
:1001E000005000FB04F0085850F0004050F0407000
:1001F00050F47F00EDB265F3092066F307004FF479
:10020000005202FB04F288504FF400504443085956
:10021000002070BD10B5C0B2002800F0EA800228AE
:1002200000F0EB80C0F0E780042800F0EA80C0F026
:10023000E680062800F0E980C0F0E580082800F09C
:10024000E880C0F0E4800A2800F0E780C0F0E38096
:100250000C2800F0E680C0F0E2800E2800F0E58077
:10026000C0F0E180102800F0E480C0F0E0801228A7
:1002700000F0E380C0F0DF80142800F0E280C0F0DE
:10028000DE80162800F0E180C0F0DD80182800F044
:10029000E080C0F0DC801A2800F0DF80C0F0DB8056
:1002A0001C2800F0DE80C0F0DA801E2800F0DD801F
:1002B000C0F0D980202800F0DC80C0F0D88022284F
:1002C00000F0DB80C0F0D780242800F0DA80C0F096
:1002D000D680262800F0D980C0F0D580282800F0EC
:1002E000D880C0F0D4802A2800F0D780C0F0D38016
:1002F0002C2800F0D680C0F0D2802E2800F0D580C7
:10030000C0F0D180302800F0D480C0F0D0803228F6
:1003100000F0D380C0F0CF80342800F0D280C0F04D
:10032000CE80362800F0D180C0F0CD80382800F093
:10033000D080C0F0CC803A2800F0CF80C0F0CB80D5
:100340003C2800F0CE80C0F0CA803E2800F0CD806E
:10035000C0F0C980402800F0CC80C0F0C88042289E
:1003600000F0CB80C0F0C780442800F0CA80C0F005
:10037000C680462800F0C980C0F0C580482800F03B
:10038000C880C0F0C4804A2800F0C780C0F0C38095
:100390004C2800F0C680C0F0C2804E2800F0C58016
:1003A000C0F0C180502800F0C480C0F0C080522846
:1003B00000F0C380C0F0BF80542800F0C280C0F0BD
:1003C000BE80562800F0C180C0F0BD80582800F0E3
:1003D000C080C0F0BC805A2800F0BF80C0F0BB8055
:1003E0005C2800F0BE80C0F0BA805D2800F0BB80C1
:1003F000BBE01924BFE03124BDE01824BBE0332466
:10040000B9E03524B7E01424B5E03724B3E0132471
:10041000B1E02024AFE01224ADE02124ABE01124B0
:10042000A9E01024A7E02824A5E02924A3E02A2499
:10043000A1E009249FE02B249DE008249BE02C24CC
:1004400099E0032497E0022495E0392493E03B24CB
:1004500091E03D248FE001248DE03F248BE00024D7
:1004600089E0402487E0412485E0422483E043245E
:1004700081E0BF247FE048247DE049247BE0BC2468
:1004800079E0992477E09A2475E0502473E09B2466
:1004900071E0B6246FE051246DE09C246BE0B5243C
:1004A00069E0522467E0A02465E0B42463E05324AB
:1004B00061E0B3245FE054245DE0B2245BE0B1244A
:1004C00059E0AD2457E0602455E0AE2453E06124A8
:1004D00051E0AD244FE062244DE063244BE0AB24B7
:1004E00049E0642447E0AA2445E0652443E0A924C8
:1004F00041E0A8243FE069243DE06B243BE06D240B
:1005000039E06F2437E0A32435E0702433E0A224DF
:1005100031E071242FE0A1242DE097242BE09624D4
:1005200029E0742427E0952425E0752423E0942411
:1005300021E093241FE092241DE078241BE079241D
:1005400019E08C2417E07A2415E08B2413E07B2437
:1005500011E08A240FE05A240DE059240BE089248D
:1005600009E0582407E0882405E09D22DFF85C19A3
:10057000002000F04BFE2000C0B210BD10B5C0B28C
:10058000002800F0EA80022800F0EB80C0F0E7804D
:10059000042800F0EA80C0F0E680062800F0E98038
:1005A000C0F0E580082800F0E880C0F0E4800A2868
:1005B00000F0E780C0F0E3800C2800F0E680C0F097
:1005C000E2800E2800F0E580C0F0E180102800F005
:1005D000E480C0F0E080122800F0E380C0F0DF800B
:1005E000142800F0E280C0F0DE80162800F0E180E0
:1005F000C0F0DD80182800F0E080C0F0DC801A2810
:1006000000F0DF80C0F0DB801C2800F0DE80C0F04E
:10061000DA801E2800F0DD80C0F0D980202800F0AC
:10062000DC80C0F0D880222800F0DB80C0F0D780CA
:10063000242800F0DA80C0F0D680262800F0D98087
:10064000C0F0D580282800F0D880C0F0D4802A28B7
:1006500000F0D780C0F0D3802C2800F0D680C0F006
:10066000D2802E2800F0D580C0F0D180302800F054
:10067000D480C0F0D080322800F0D380C0F0CF808A
:10068000342800F0D280C0F0CE80362800F0D1802F
:10069000C0F0CD80382800F0D080C0F0CC803A285F
:1006A00000F0CF80C0F0CB803C2800F0CE80C0F0BE
:1006B000CA803E2800F0CD80C0F0C980402800F0FC
:1006C000CC80C0F0C880422800F0CB80C0F0C7804A
:1006D000442800F0CA80C0F0C680462800F0C980D7
:1006E000C0F0C580482800F0C880C0F0C4804A2807
:1006F00000F0C780C0F0C3804C2800F0C680C0F076
:10070000C2804E2800F0C580C0F0C180502800F0A3
:10071000C480C0F0C080522800F0C380C0F0BF8009
:10072000542800F0C280C0F0BE80562800F0C1807E
:10073000C0F0BD80582800F0C080C0F0BC805A28AE
:1007400000F0BF80C0F0BB805C2800F0BE80C0F02D
:10075000BA805D2800F0BB80BBE00824C0E008241C
:10076000BEE00824BCE00824BAE00824B8E008246D
:10077000B6E00824B4E00824B2E00824B0E008247D
:10078000AEE00824ACE00824AAE00824A8E008248D
:10079000A6E00824A4E00824A2E00824A0E008249D
:1007A0009EE008249CE008249AE0082498E00824AD
:1007B00096E0082494E0082492E0082490E00824BD
:1007C0008EE008248CE008248AE0082488E00824CD
:1007D00086E0082484E0082482E0082480E00824DD
:1007E0007EE008247CE008247AE0082478E00824ED
:1007F00076E0082474E0082472E0082470E00824FD
:100800006EE008246CE008246AE0082468E008240C
:1008100066E0082464E0082462E0082460E008241C
:100820005EE008245CE008245AE0162458E008241E
:1008300056E0082454E0082452E0082450E008243C
:100840004EE008244CE008244AE0082448E008244C
:1008500046E0082444E0082442E0082440E008245C
:100860003EE008243CE008243AE0082438E008246C
:1008700036E0082434E0082432E0082430E008247C
:100880002EE008242CE008242AE0082428E008248C
:1008900026E0082424E0082422E0082420E008249C
:1008A0001EE008241CE008241AE0082418E00824AC
:1008B00016E0082414E0082412E0082410E00824BC
:1008C0000EE008240CE008240AE0082408E00824CC
:1008D00006E04FF48672DFF8F415002000F096FC75
:1008E0002000C0B210BD0000E45B0810000004400E
:1008F00080B5C0B2002800F0EA80022800F0EB804A
:10090000C0F0E780042800F0EA80C0F0E680062806
:1009100000F0E980C0F0E580082800F0E880C0F031
:10092000E4800A2800F0E780C0F0E3800C2800F0A3
:10093000E680C0F0E2800E2800F0E580C0F0E180A3
:10094000102800F0E480C0F0E080122800F0E3807E
:10095000C0F0DF80142800F0E280C0F0DE801628AE
:1009600000F0E180C0F0DD80182800F0E080C0F0E9
:10097000DC801A2800F0DF80C0F0DB801C2800F04B
:10098000DE80C0F0DA801E2800F0DD80C0F0D98063
:10099000202800F0DC80C0F0D880222800F0DB8026
:1009A000C0F0D780242800F0DA80C0F0D680262856
:1009B00000F0D980C0F0D580282800F0D880C0F0A1
:1009C000D4802A2800F0D780C0F0D3802C2800F0F3
:1009D000D680C0F0D2802E2800F0D580C0F0D18023
:1009E000302800F0D480C0F0D080322800F0D380CE
:1009F000C0F0CF80342800F0D280C0F0CE803628FE
:100A000000F0D180C0F0CD80382800F0D080C0F058
:100A1000CC803A2800F0CF80C0F0CB803C2800F09A
:100A2000CE80C0F0CA803E2800F0CD80C0F0C980E2
:100A3000402800F0CC80C0F0C880422800F0CB8075
:100A4000C0F0C780442800F0CA80C0F0C6804628A5
:100A500000F0C980C0F0C580482800F0C880C0F010
:100A6000C4804A2800F0C780C0F0C3804C2800F042
:100A7000C680C0F0C2804E2800F0C580C0F0C180A2
:100A8000502800F0C480C0F0C080522800F0C3801D
:100A9000C0F0BF80542800F0C280C0F0BE8056284D
:100AA00000F0C180C0F0BD80582800F0C080C0F0C8
:100AB000BC805A2800F0BF80C0F0BB805C2800F0EA
:100AC000BE80C0F0BA805D2800F0BB80BBE0002093
:100AD000C0E00020BEE00120BCE00120BAE002201E
:100AE000B8E00320B6E00320B4E00420B2E0042024
:100AF000B0E00520AEE00520ACE00620AAE007202B
:100B0000A8E00920A6E00A20A4E00B20A2E00B2028
:100B1000A0E00C209EE00C209CE00D209AE00D202F
:100B200098E00E2096E00F2094E0102092E0112033
:100B300090E011208EE012208CE012208AE0132039
:100B400088E0142086E0152084E0162082E016203C
:100B500080E018207EE019207CE019207AE01A203D
:100B600078E01B2076E01C2074E01C2072E01C2042
:100B700070E01D206EE01D206CE01D206AE01E204C
:100B800068E01E2066E01E2064E01F2062E01F2057
:100B900060E020205EE020205CE021205AE022205E
:100BA00058E0242056E0242054E0252052E025205F
:100BB00050E026204EE027204CE027204AE0282065
:100BC00048E0282046E0292044E0292042E02A206D
:100BD00040E02C203EE02D203CE02E203AE02F206B
:100BE00038E02F2036E0302034E0302032E0312071
:100BF00030E031202EE032202CE033202AE0342077
:100C000028E0342026E0352024E0352022E036207C
:100C100020E037201EE038201CE039201AE039207F
:100C200018E03A2016E03A2014E03B2012E03B2086
:100C300010E03B200EE03C200CE03C200AE03D2090
:100C400008E03D2006E040F27B12A049002000F0C1
:100C5000DDFA0020C0B202BD00200BE09C498022DA
:100C600002FB00F28B5823F00043802202FB00F2CB
:100C70008B50401C3F28F1DB704770B505000E001B
:100C8000002000202800C0B2FFF732FE904CC0B216
:100C9000802148432044006A80B206FB00F642F2FD
:100CA0001070B6FBF0F62800C0B2FFF721FE8021DD
:100CB00048432044B6B246612800C0B2FFF718FE90
:100CC0000200D2B280214A4304EB02010A6C52F0C6
:100CD0000102C0B2802148432044026470BD2DE966
:100CE000F041AAB006000C001500342100221DAF0F
:100CF000380000F0F5FA0020742100226F46380019
:100D000000F0EEFA0E201E903000C0B2FFF736FC65
:100D10008DF87C003000C0B2FFF77CFA07005FF06E
:100D200008083000C0B2FFF775FA1DAA97FBF8F16A
:100D300008FB11773900674FC0B2C01080235843B9
:100D4000384400F0CAFB3000C0B2FFF7D1FD0022EA
:100D50000121C0B210F5937000B2FFF7F2F9300034
:100D6000C0B2FFF7C5FDC0B210F5937000B2FFF737
:100D7000E4F9092300220121C0B2FFF797F93000FE
:100D8000C0B2FFF7B5FDC0B210F5937000B2FFF727
:100D9000D4F900220121C0B2FFF70DFA4E48B0FB92
:100DA000F4F31B0C4C482104B0FBF1F201FB1200E0
:100DB000002800D05B1C022B03D200208DF801001C
:100DC0002FE0032B03D201208DF8010029E0052B31
:100DD00003D202208DF8010023E0092B03D2032067
:100DE0008DF801001DE0112B03D204208DF80100C5
:100DF00017E0212B03D205208DF8010011E0412BD3
:100E000003D206208DF801000BE0812B03D20720CE
:100E10008DF8010005E040F2C9122C49002000F0D5
:100E2000F5F904208DF8000001208DF81000002055
:100E30008DF8110003208DF8120003208DF81300A7
:100E400000208DF80800244901229DF9010082400C
:100E5000B1FBF2F0B0FBF4F0401E05900598401C89
:100E600005FB00F542F21070B5FBF0F0089002208F
:100E70008DF8400003208DF8680001201B900120B0
:100E80008DF828003000C0B2FFF732FD104C6946E3
:100E9000C0B280225043204400F05EFB3000C0B25C
:100EA000FFF726FDC0B280214843204400F04EFCED
:100EB0003000C0B2FFF71CFDC0B28021484320447F
:100EC00000F049FC2AB0BDE8F08100005859081034
:100ED000000058400000314000127A0082B000202B
:100EE0000190002000900020019009E00098401C33
:100EF00000900098B0F5005FF8D30198401C019075
:100F00000198B0F5805F02D200200090F1E702B0B6
:100F1000704780B50100002000F033FE01BD2DE9CF
:100F2000F043ADF5137D0700884616001C00002035
:100F3000ADF802000020ADF8000000200290002073
:100F4000ADF804000020ADF80600404601F036F888
:100F50000290DFF858532888002801D0286980477C
:100F6000DFF84C030078002800F03381288800283F
:100F700000F01181BDF90600411CADF806103A00E1
:100F8000010089B20020EB6898474746404601F0CF
:100F900015F802906988A87991FBF0F0ADF804008B
:100FA0003800471C00780028FAD10020ADF8000076
:100FB0000EE07F1E38782F2802D038785C2804D1C4
:100FC000BDF80000401CADF800000298401E0290E1
:100FD000BDF80000022802DA02980028E9D502983C
:100FE000002806D47A1CDFF8CC1253A801F006F8CA
:100FF0000EE0BDF80000002805D13A00AE4953A824
:1010000000F0FCFF04E03A00AA4953A800F0F6FF04
:101010000020ADF8020042E0BDF80010BDF80070FD
:10102000BDF8022053AB92B2BDF90400424312FA5C
:1010300087F01A5C43A889B24254BDF80000401CF6
:10104000ADF80000BDF8001089B2BDF9040081427E
:101050000EDA53A800F0B2FFBDF80030BDF8022050
:1010600092B2BDF904104A4312FA83F18842D3D2F6
:10107000002243A9BDF800000A54BDF90600411C36
:10108000ADF8061043AAE97911FB00F189B20020FE
:10109000EB689847BDF80200401CADF80200BDF8AF
:1010A000027053A800F08AFFBDF90410B0FBF1F004
:1010B000401CBFB2874203D20020ADF80000C1E758
:1010C00032007E4953A800F099FFBDF90600411C8B
:1010D000ADF8061053AAE97911FB00F189B200209E
:1010E000EB689847002C74D00020ADF8020041E076
:1010F000BDF80010BDF80020BDF802309BB2BDF96C
:101100000400434313FA82F0205C43AA89B250548E
:10111000BDF80000401CADF80000BDF8000080B232
:10112000BDF9041088420EDA200000F047FFBDF838
:101130000030BDF8022092B2BDF904104A4312FA01
:1011400083F18842D4D2002043A9BDF800208854FE
:10115000BDF90600411CADF8061043AAE97911FB60
:1011600000F189B20020EB689847BDF80200401CEE
:10117000ADF80200BDF80260200000F01FFFBDF9CD
:101180000410B0FBF1F0401CB6B2864221D2002020
:10119000ADF80000C1E74FF4807100220DF10C0999
:1011A000484600F09DF83800A9688847002C07D011
:1011B000009433004246424903A800F01FFF05E0B7
:1011C000330042463F4903A800F018FF03A8A9686E
:1011D00088470DF5137DBDE8F08310B534480078DD
:1011E000002809D0394C2100002000F0D8FC012251
:1011F0002100354800F087FF10BD10B51400220013
:10120000D2B2002000F0AEFC200010BD38B50C00BA
:101210001500C0B2002803D12D480078002800D165
:1012200031BD2C490878002800D0FEE70878401C22
:10123000087001F055F900232A0021002648FFF725
:101240006EFEFFF74BFEF6E7002101804FF6FF71BF
:1012500041808180FF218171C17100218160002165
:10126000C160002101617047104902880A804288EC
:101270004A8082888A8082798A71C279CA7182683A
:101280008A60C268CA60006908610121084801706B
:10129000704700B585B06846FFF7D6FF0F4802904B
:1012A0006846FFF7E1FF05B000BD0000D40A022840
:1012B0001F0B0228C05B0810A05B0810CC5B081055
:1012C000D45A0810705B0810A40A0228200B0228C8
:1012D0003A070228210B0228B05B0810130F0810F0
:1012E00062F30F2262F31F42401810F0030308D08C
:1012F000C91A1FD3DB0748BF00F8012D28BF20F80B
:10130000022D130030B414461546103928BF20E9C9
:101310003C00FAD8490728BF20E90C0048BF40F834
:10132000042D890028BF20F8022D48BF00F8012DA8
:1013300030BC7047C91818BF00F8012DCB0728BF73
:1013400000F8012D7047F0B4024610689568131834
:10135000506803EB5004C00748BF4D44A3422DD052
:1013600013F8016B16F0030004BF13F8010BC01C47
:1013700031090F2907D113F8011B0F3103E013F8CE
:10138000017B05F8017B401EF9D10029E6D013F856
:10139000010BC6F38107032F08BF13F8017B00EB95
:1013A0000720404228440026B71E8F421EBF10F877
:1013B000017B05F8017B761CF6D1CFE7F0BC02F18A
:1013C0000C00704730B4614B1818C009604B13EB28
:1013D000001304290DD21D681F24C8008440A543B2
:1013E000D2B212F01F02C90012FA01F129431960AA
:1013F0000CE00D1F5C681F21E80081408C43D2B2D5
:1014000012F01F02ED00AA4022435A6030BC704720
:10141000002A04D1012212FA01F1416003E0012205
:1014200012FA01F18160704710B48900446C0F23F7
:101430008B409C4312F00F0212FA01F121434164E8
:1014400010BC704710B4846C01238B409C4312F095
:10145000010212FA01F12143816410BC704710B4FB
:10146000C46C01238B409C4312F0010212FA01F17B
:101470002143C16410BC704710B449001031C46CE2
:1014800003238B409C4312F0030212FA01F1214323
:10149000C16410BC70474269012212FA01F1416136
:1014A0004069704710B4846901238B409C4312F05B
:1014B000010212FA01F12143816110BC704710B49E
:1014C0004900046C03238B409C4312F0030212FA80
:1014D00001F12143016410BC7047F8B504000F000E
:1014E00015000026002C2ED0002D2CD02A683900A3
:1014F0002000FFF78DFF2A7A39002000FFF762FFF6
:101500006A6939002000FFF79DFFAA6939002000B1
:10151000FFF7A5FFEA6939002000FFF7ADFF6A6811
:1015200039002000FFF780FFEA6839002000FFF74C
:10153000C6FF39002000FFF7AEFF2A6939002000FE
:10154000FFF7B0FF00E0034E3000F2BD0000CFBF58
:101550000000304001005A000122002800F0E6801F
:10156000002900F0E380724A12680B7A63F392421A
:101570000B7B13F0030363F311420B7813F00703A3
:1015800063F31A628B7863F39E7291F8283063F3E9
:10159000000291F8343063F341020B7F63F382025F
:1015A0004B7F63F3C30291F8403063F38A2291F8D2
:1015B0004030DBB25B08DBB263F3492291F8703054
:1015C00063F3082291F8713013F0030363F30D32D3
:1015D00002600A7A002A02D10022826007E00A7AB9
:1015E000012A02D14A69826001E0012282600A6A0E
:1015F00002614A6A4261CA6A82610A6BC2614A69CF
:1016000002628A6942624B4A126891F8443003F0E0
:10161000FF0363F3070291F84C3003F0FF0363F319
:10162000174291F85C3003F0FF0363F31F6291F8F7
:101630006C3003F0FF0363F30F2242643E4A1268EA
:1016400091F8643003F0FF0363F30F2291F85430F4
:1016500003F0FF0363F307028264384A126891F8CB
:10166000413013F0030363F3010291F8603013F08B
:10167000030363F38B2291F8483013F0030363F301
:10168000051291F8503013F0030363F3092291F827
:10169000583013F0030363F3871291F8683013F0A6
:1016A000030363F38302C264254A126891F872301F
:1016B00013F0070363F3020291F8733013F007038A
:1016C00063F30612426591F8352082671D4A12685D
:1016D0000B7C13F0030363F30102CB7C13F00303D1
:1016E00063F387124B7C13F0030363F383028B7C59
:1016F00013F0030363F305120265134A1268CB88E3
:1017000063F31F428B889BB21B0A9BB263F30F22C9
:101710000B78052B05D1097901F0FF0161F3070270
:1017200002E0497861F3070202630022100070476B
:10173000505C0810545C0810585C08105C5C081081
:10174000605C0810645C0810685C0810016851F067
:1017500000410160704710F14001086850F010002E
:1017600008607047022801D3012010E00B00DBB2B3
:10177000042B01DB01200AE0DFF8FC3703EB8000DB
:10178000C9B2405C824201D3012000E000207047D2
:10179000F8B504000E0015001F00022C01D3012033
:1017A00031E02A003100C9B22000FFF7DBFF012839
:1017B00001D1012027E006993000C0B2022825D1CE
:1017C000B7F5803F20D220291ED24FF4C052DFF857
:1017D000AC374FF4005000FB04F0184400EB8500D8
:1017E00000EB0206306867F3172030604FF40050BA
:1017F000444303EB040000EB85000244106861F3EE
:10180000C70010600020F2BD0120FCE7F6B2032EF5
:1018100026D1B7F1807F21D220291FD24FF4E05288
:10182000DFF858374FF4005000FB04F0184400EB89
:10183000850000EB0206306800F0FF0050EA072048
:1018400030604FF40050444303EB040000EB85008C
:101850000244106861F3C7001060D3E70120D2E7AB
:101860000120D0E700B20012C0B27047F8B5040002
:101870000E001700200000B2FFF7F4FF050028005B
:10188000C0B2022801D3012029E03A003100C9B2D8
:101890002800C0B2FFF766FF012801D101201EE039
:1018A000DFF8D8162A00D2B24FF4005042430A445F
:1018B0002000C0B202EB8000D0F8002CF6B266F334
:1018C000092267F30702EDB24FF40050454301EBE4
:1018D0000500E4B200EB8400C0F8002C0020F2BD4B
:1018E00070B504000D001600022C01D3012025E084
:1018F00032002900C9B22000FFF734FF012801D1CE
:1019000001201BE0DFF874164FF4005000FB04F0D8
:10191000085850F0004050F0407050F47F00EDB295
:1019200065F3092066F307004FF4005202FB04F24E
:1019300088504FF4005044430859002070BDD0F83F
:1019400040037047D0F80803C005C00D7047C0F8C9
:1019500040127047D0F80802C005C00D7047D0F89B
:101960000802C0F3C030704738B505002800FFF703
:10197000F1FF04002800FFF7F2FF0419002C01D149
:10198000012000E00020C0B232BDC0F8C81F70477F
:10199000D0F8C80F7047C0F8881F7047D0F8880F7C
:1019A0007047016851F000410160704738B504008C
:1019B0001500C9B2002906D002291ED010D304296F
:1019C00035D027D340E0DFF8B805A06001202073B0
:1019D000112060734FF48C70E0811220208239E076
:1019E000DFF8A005A060012020731120607340F291
:1019F0001D10E0816B2020822CE0DFF88C05A060B8
:101A000001202073112060734FF48E70E0816A20F2
:101A100020821FE0DFF87405A060022020731120EF
:101A2000607340F21B10E0816920208212E0DFF831
:101A30006005A06001202073132060734FF48D7047
:101A4000E0816820208205E07C22DFF84815002034
:101A5000FFF7DCFBEDB2002D06D0022D1ED010D317
:101A6000042D35D027D340E0DFF814052060002096
:101A70002071112060714FF48C70E081122020825F
:101A800039E0DFF80005206000202071112060712E
:101A900040F21D10E0816B2020822CE0DFF8E8048A
:101AA000206000202071112060714FF48E70E08161
:101AB0006A2020821FE0DFF8D4042060012020711A
:101AC0001120607140F21B10E0816920208212E039
:101AD000DFF8BC04206000202071132060714FF4F7
:101AE0008D70E0816820208205E0A822DFF8A41430
:101AF0000020FFF78BFB31BD10B5C0B2002806D027
:101B000002280AD006D304280DD009D30EE0DFF84E
:101B1000884411E0DFF884440EE0DFF884440BE0F1
:101B2000DFF8804408E0DFF8804405E0BD22DFF8FC
:101B300064140020FFF76AFB200010BD38B50500D3
:101B4000DFF86844C9B22800C0B254F82000FFF79B
:101B5000FEFE2800C0B254F82000FFF705FF002861
:101B6000F7D031BD70B506000D00140006E02978ED
:101B70003000C0B2FFF7E2FF641E6D1C002CF6D1EE
:101B800070BD38B505000C0005E021782800C0B212
:101B9000FFF7D4FF641C20780028F6D131BD70B562
:101BA00006000C000020DFF804543000C0B255F8E5
:101BB0002000FFF7C7FE002807D0F6B255F8260030
:101BC000FFF7BDFE2070012000E00020C0B270BD14
:101BD00070B506000C00DFF8D4533000C0B255F8E1
:101BE0002000FFF7DBFE4008400001003000C0B2DB
:101BF00055F82000FFF7CFFE3000C0B255F82000A6
:101C0000FFF7CCFE30F0020001003000C0B255F802
:101C10002000FFF7C0FE3000C0B255F82000FFF7EB
:101C2000BDFE30F0200001003000C0B255F82000A9
:101C3000FFF7B1FE3000C0B255F82000FFF7AEFE4E
:101C400030F0400001003000C0B255F82000FFF72E
:101C5000A2FE3000C0B255F82000FFF79FFE30F022
:101C6000100001003000C0B255F82000FFF793FECD
:101C70003000C0B255F82000FFF790FE30F48070BD
:101C800001003000C0B255F82000FFF784FE30009C
:101C9000C0B255F82000FFF781FE30F480600100EB
:101CA0003000C0B255F82000FFF775FE002C0ED0B2
:101CB0003000C0B255F82000FFF76AFE50F4007003
:101CC0000100F6B255F82600FFF765FE0DE0300082
:101CD000C0B255F82000FFF75BFE30F40070010041
:101CE000F6B255F82600FFF756FE70BD70B5060037
:101CF0000C00DFF8B8523000C0B255F82000FFF7F2
:101D000047FE4008400001003000C0B255F82000F6
:101D1000FFF73BFE3000C0B255F82000FFF738FE59
:101D200030F0080001003000C0B255F82000FFF785
:101D30002CFE3000C0B255F82000FFF729FE30F02D
:101D4000200001003000C0B255F82000FFF71DFE52
:101D50003000C0B255F82000FFF71AFE30F4807052
:101D600001003000C0B255F82000FFF70EFE300031
:101D7000C0B255F82000FFF70BFE30F400700100F0
:101D80003000C0B255F82000FFF7FFFD3000C0B2B0
:101D900055F82000FFF7FCFD30F400600100300032
:101DA000C0B255F82000FFF7F0FD002C0ED0300037
:101DB000C0B255F82000FFF7EBFD50F00400010021
:101DC000F6B255F82600FFF7E0FD0DE03000C0B296
:101DD00055F82000FFF7DCFD30F004000100F6B2FA
:101DE00055F82600FFF7D1FD70BD2DE9F841A7B0E9
:101DF00006000F00150031002800C9B2C0B28142B0
:101E000001D1012000E000201C00DFF888814FF4A0
:101E1000CE724146C0B2FFF7F9F930002100C0B2DE
:101E2000C9B2884201D1012000E0002040F29D1299
:101E30004146C0B2FFF7EAF902A8142100F078FB8E
:101E4000342100220DF168084046FFF749FA4C2181
:101E500000220DF11C084046FFF742FAFA00002369
:101E60005348002100F068FB07002200D2B229008D
:101E7000C9B202A8FFF79AFD08201B909DF80D003B
:101E80008DF870001AAA9DF80C100298FFF725FB38
:101E900006201B909DF80D008DF870001AAA9DF881
:101EA00014100498FFF719FB0020079008200890F1
:101EB0000820099002200B9000200C900020129026
:101EC00000201490394C3000C0B254F8200000F0CB
:101ED00076FD384A3100C9B2382041430A4407A987
:101EE0003000C0B254F8200000F03EFC3000C0B218
:101EF00054F82000FFF755FD3200D2B20321BDF99E
:101F00001600FFF7B3FCBDF91600FFF7ABFC17F0A6
:101F10001F010091C7F357133200D2B20321C0B2A0
:101F2000FFF736FCBDF91600FFF79CFC3200D2B279
:101F30000321C0B2FFF7D4FCBDF91800ADF80000D2
:101F40000320ADF8020001208DF8040007221A4991
:101F50003000C0B251F82010684600F0CDFA0021E0
:101F60003000C0B2FFF7C2FE00213000C0B2FFF760
:101F70002FFE28B0BDE8F081E45B081000000440AB
:101F800000003140000231400005314080083140FE
:101F9000000731401C5908100000604000006540F7
:101FA00000006440000063400000624024070228F3
:101FB000008096983C0702281007022800F10103D0
:101FC000810704D010F8011B820781B1FAD10268A1
:101FD000A2F10131914311F0803104BF50F8042F78
:101FE000F6E709BAB1FA81F100EBD100401CC01A42
:101FF000704703685A1C0260197070470CB430B502
:1020000083B00A4606A90291044600250194009572
:1020100002AB01A9084878441E3000F01CFD01996C
:102020000D7000284EBF04460198041B204603B0E3
:1020300030BC5DF80CFB00BFBBFFFFFF8268891856
:10204000816003E082684169521A82608268416956
:102050008A42F7D27047C2688918C16003E0C2683B
:102060004169521AC260C26841698A42F7D2704718
:1020700070B50400002C01D0012000E000205422A3
:10208000DFF8C413C0B2FFF7C1F80025207850F084
:10209000010020700020A0600020E06060692061E5
:1020A0006078002803D0022810D007D315E06169BA
:1020B000002266683000FFF713F90EE06069410006
:1020C000002266683000FFF70BF906E060698100C6
:1020D000002266683000FFF703F900202070280016
:1020E000C0B270BD10B50400002C01D0012000E08A
:1020F00000207022DFF85013C0B2FFF787F8606944
:102100002169401A10BD2DE9F84305001600002D85
:1021100001D0012000E000200C00AA22DFF82813E3
:10212000C0B2FFF773F800270020002C01D103276D
:10213000B5E0287810F0050F01D00427AFE028782B
:1021400050F0040028702869B042C0F0A380D5F890
:102150001480A868B8EB0008B04567D268780028FA
:1021600003D0022841D01FD390E042462100686886
:10217000AB6800EB0309484601F0F6FA4146280037
:10218000FFF75CFFB6EB080204EB08016868AB6878
:1021900000EB0304200001F0E7FAB6EB0808414623
:1021A0002800FFF74BFF71E05FEA480221006868F2
:1021B000AB6800EB4309484601F0D6FA41462800D7
:1021C000FFF73CFFB6EB0800420004EB48016868EB
:1021D000AB6800EB4304200001F0C6FAB6EB080838
:1021E00041462800FFF72AFF50E05FEA88022100FD
:1021F0006868AB6800EB8309484601F0B5FA4146D0
:102200002800FFF71BFFB6EB0800820004EB8801F3
:102210006868AB6800EB8304200001F0A5FAB6EB18
:10222000080841462800FFF709FF2FE068780028DA
:1022300003D002281DD00ED328E0320021006868A8
:10224000AB6800EB0304200001F08EFA3100280097
:10225000FFF7F4FE1AE0720021006868AB6800EB3B
:102260004304200001F080FA31002800FFF7E6FE69
:102270000CE0B20021006868AB6800EB830420002A
:1022800001F072FA31002800FFF7D8FE2869861B9A
:102290002E6100E00527287810F0FB002870380038
:1022A000C0B2BDE8F2832DE9F04705000E001F0023
:1022B000002D01D0012000E000201400DFF888810B
:1022C00040F25B124146C0B2FEF7A0FF002C01D0E5
:1022D000012000E000204FF4AE724146C0B2FEF78C
:1022E00095FF5FF0000800200020002E02D15FF073
:1022F00003088BE0297811F0030F03D020605FF012
:1023000006089CE02800FFF7EDFE2168884209D20C
:1023100020605FF00708002804D1287810F0F7004B
:1023200028708CE0287850F008002870D5F814A0A8
:10233000E868BAEB000A2068824522D36878002852
:1023400003D0022813D008D35CE022686868E968EB
:102350000144300001F008FA54E020684200696846
:10236000E86801EB4001300001F0FEF94AE0206826
:1023700082006968E86801EB8001300001F0F4F93F
:1023800040E06878002803D0022827D011D339E034
:1023900052466868E9680144B146484601F0E4F9EC
:1023A0002268B2EB0A0269685644300001F0DCF999
:1023B00028E05FEA4A026868E96800EB4101B1463B
:1023C000484601F0D1F92068B0EB0A004200696884
:1023D00006EB4A06300001F0C7F913E05FEA8A0213
:1023E0006868E96800EB8101B146484601F0BCF934
:1023F0002068B0EB0A008200696806EB8A063000AC
:1024000001F0B2F9287810F0F7002870FFB2002F21
:1024100015D128780B2802D15FF002080FE0287848
:1024200050F00200287021682800FFF714FE296987
:10243000206841182961287810F0FD002870404676
:10244000C0B2BDE8F0870000A4580810010009B22E
:10245000002908D4012210F01F018A401B4900B254
:10246000400941F820207047010009B2002908D432
:10247000012210F01F018A40154900B2400941F8BD
:1024800020207047020012B2002A04D44A011149E8
:1024900000B20A5407E049010F4A00B210F00F00E1
:1024A000104400F8041C7047002800D162B60B49A4
:1024B0000868401C0860704772B608490868002820
:1024C00002D00868401E08600868704700E100E01C
:1024D00080E200E000E400E018ED00E0080B0228D4
:1024E00080B5FFF7E9FFFEF7B7FB01BD80B5C9B2C4
:1024F00000B2FFF7C7FF01BD70B506000C00150064
:10250000300001F085F92100B6F9000001F0BDF9B5
:102510002900C9B2B6F90200FFF7E8FFB6F90200D8
:10252000FFF7A2FFB6F90200FFF790FF70BD0000B1
:10253000002201F0C1B90000BBBBE1B1B2F5803FA0
:1025400080F07E80022A1ED98C46B1FBF2F102FB9C
:1025500011C31B0443EA1043B3FBF2FC02FB1C3320
:1025600080B240EA0343B3FBF2F002FB103240EAD0
:102570000C4000237047022A05D98446B0FBF2F0D4
:1025800002FB10C270474AB105D100F001024908B0
:102590005FEA3000704700220023704701F0A6B9BF
:1025A0000B000200002100207047904271EB030CE9
:1025B000F6D3B3F5803F2FD2F0B5B3FA83F7B1FA73
:1025C00081F4A7F10F0E3D1B5340CEF1200602FA15
:1025D0000EF2F3415340B5F10F0746D80F3C2C449F
:1025E0004140C4F12006A040F1414140B1FBF3F667
:1025F00003FB1611A2FB0645001BA94102D2761E61
:102600008018594180EA010221FA0EF362FA0EF2B3
:1026100000215A403046F0BD30B4B1FBF3FC03FB5F
:102620001C11A2FB0C45001BA94103D2ACF1010C0B
:102630008018594130BC02460B4660460021704765
:10264000B2F1807F65D3F0B5B2FA82F7B1FA81F4C6
:10265000C7F10F063D1B22FA06F307F1110EF241F6
:1026600020355A40B5F10F07B8D94140C4F12006D2
:10267000A040F1414140B1FBF3FC03FB1C11A2FB64
:102680000C45001BA94103D2BCF1010C8018594133
:102690000F2F12D30F3FC90341EA5041B1FBF3F6AC
:1026A00003FB1611A2FB0645D4EBC030A94102D2B0
:1026B000761E8018594146EACC3C07B34140C7F129
:1026C0002006B840F1414140B1FBF3F603FB16117F
:1026D000A2FB0645001BA94102D2761E8018594173
:1026E00080EA010221FA0EF3C7F1200462FA0EF229
:1026F0000CFA07F05A402CFA04F13043F0BD80EA9E
:10270000010221FA0EF3002162FA0EF260465A40ED
:10271000F0BD8C46B1FBF2F102FB11C31B0243EA90
:102720001063B3FBF2FC02FB1C331B024CEA0020DB
:1027300043EA1063B3FBF2FC02FB1C331B024CEABE
:10274000002043EA1063B3FBF2FC02FB1C331B02C4
:102750004CEA002043EA1063B3FBF2FC02FB1C329C
:102760004CEA0020002370472DE9F44FDFF8AC223B
:10277000DFF8AC32D3F800A0DFF8A8321B68DFF82E
:10278000A8422468DFF8A4522D68DFF8A4623668F6
:10279000DFF8A0723F68DFF8A0C2DCF800C0DFF805
:1027A0009CE2DEF800E0DFF89882D8F80080DFF8DD
:1027B0009492D9F80090002800F0FE80002900F0E3
:1027C000FB800A68022A06D191F82620002A02D14D
:1027D0005FF0000B03E0D1F804B0BBF1010B91F8FE
:1027E0002420002A01D0012200E0002262F3104AD6
:1027F0003AF4404A6BF3030A022262F3196AC0F802
:1028000000A00A7812F0030262F31963036491F8DE
:102810002520002A01D0012200E0002262F3861464
:10282000CA7E002A01D0012200E0002262F38A243D
:102830004A7E002A01D0012200E0002262F308242F
:102840008A7E002A01D0012200E0002262F349249E
:102850008A6B521E12F00F0262F313440A69521E71
:1028600012F0070262F302044A6962F304144A692F
:10287000520862F3451484640A7B002A01D00122C5
:1028800000E0002262F308250A7E002A01D001221E
:1028900000E0002262F349258A68521E12F01F02EE
:1028A00062F30405C0F800530A7F02F0FF0262F3EE
:1028B000070691F8202002F0FF0262F31746C0F8E5
:1028C000106391F82720002A01D0012200E00022A5
:1028D00062F308270A69521E12F0070262F3020728
:1028E0004A6962F304174A69520862F3451747645C
:1028F0000A7B002A01D0012200E0002262F3082CAA
:102900008A68521E12F01F0262F3040C0A68012A40
:1029100001D1012200E0002262F3104CC0F800C295
:1029200091F83C2002F0FF0262F3070EC0F804E3C6
:1029300091F82820002A01D0012200E0002262F351
:102940005968CA6A012A01D1012200E0002262F31B
:1029500018684A6B012A01D1012300E00023009A84
:1029600063F3104891F8303003F0FF0363F3070876
:10297000C0F8508091F8443003F0FF0363F3070977
:10298000C0F804928B6CC0F8883F096CC0F8C81F6F
:10299000002A10D0002050600020106000209060BD
:1029A0000020D060002010620020D0620020106360
:1029B000DFF89400506300221000BDE8F28FDFF8CA
:1029C0008C1001605FF4401101640021816440F2C9
:1029D0000711C0F800130022C0F804230022C0F839
:1029E000102300224264C0F800120021C0F8041233
:1029F000002101650021C0F8C81E0021C0F8881E12
:102A00000021C0F8C81F0021C0F8881F0021C0F8AD
:102A1000081F0021C0F8481F704700000160AA008D
:102A20000C5C0810105C0810145C0810185C08108E
:102A30001C5C0810205C0810245C0810285C08103E
:102A40002C5C0810305C0810EFCDAB000F000003C9
:102A500040F0200070472DE9F14FB0B091463A9A0E
:102A6000049100200DF142011E464A7021910DF1A2
:102A700095020D902F920BE019F8011B0498309AE3
:102A800090470028049000F066850D98401C0D903A
:102A900099F8000050B12528EED1002200210792BC
:102AA000089109920A910B920C9104E00D9800F0A4
:102AB00054BD41F0010119F8010F2028F9D0232855
:102AC0000CD02B2804D02D2805D0302809D00BE0BD
:102AD00041F00201EFE741F00401ECE741F00801A9
:102AE000E9E741F01001E6E72A280DD1326852F8F3
:102AF000040B326000280F9003D540420F9041F044
:102B0000040109F1010914E00F92DFF8AC0B0AE0AF
:102B10000F9C844205DA04EB840302EB4302303A53
:102B20000F9209F1010999F80020A2F130030A2B54
:102B3000EED399F800202E2A03D04FF0FF300E90EC
:102B400027E019F8010F2A2807D1326852F8040B40
:102B500032600E9009F101091BE02D280CBF09F12C
:102B60000109002000220E92DFF84C5B0BE040B917
:102B70000E9BAB4205DA03EB830402EB4402303ACE
:102B80000E9209F1010999F80020A2F130030A2BF5
:102B9000EDD3ADF840100FF6643099F8001000F056
:102BA000A7FE08B119F8010B8DF842009DF842000C
:102BB000682805D199F8001068290CD1622006E038
:102BC0006C2804BF99F800106C2904D171208DF88D
:102BD000420009F1010912A9069119F8012B8DF89B
:102BE00000201746B7F1250126D02039022940F2EE
:102BF0007D81133900F0EF830B3900F07984491E91
:102C000000F02E84491E022940F27081091F00F055
:102C10002784491F00F0F080491E00F0DC83491E24
:102C200000F0DB80C91E0ED0891E00F0D483C91EBF
:102C300000F0D18300F065BC0122252107928DF8B8
:102C4000481000F06CBC306850F8044B3060002C29
:102C5000059440F0B08021994878002800F0A780C2
:102C60004FF0FF340FF6CC2000F04EFE241A40F057
:102C7000728400F054BC01236A4602A9384600F071
:102C800025FD002840F06784641EF4D13097079C2E
:102C900012AF84B1DDF8C08017F8011B0498C0475B
:102CA0000028049000F057840D98401C641E0D907D
:102CB000F2D1CDF8C0800A9C3021002C8DF8001094
:102CC0000CDD309F01236A4602A9384600F0FEFC65
:102CD000002840F04084641EF4D13097059F089C82
:102CE00084B1DDF8C08017F8011B0498C0470028A4
:102CF000049000F030840D98401C641E0D90F2D1B9
:102D0000CDF8C0800B9C3021002C8DF800100CDD1C
:102D1000309F01236A4602A9384600F0D7FC0028FC
:102D200040F01984641EF4D1309705990898099CE5
:102D30000F1884B1DDF8C08017F8011B0498C04754
:102D40000028049000F007840D98401C641E0D902C
:102D5000F2D1CDF8C0800C9C3021002C8DF80010F1
:102D60000CDD309F01236A4602A9384600F0AEFC14
:102D7000002840F0F083641EF4D130979DF84000A5
:102D800041077FF585AE2020002D8DF800007FF7EC
:102D90007FAE309C01236A4602A9204600F096FCD3
:102DA000002840F0D8836D1EF4D1309470E60FF601
:102DB000A0100590B3E30E9D002D04D52046FFF72B
:102DC000FDF8044607E02A46204600F0BDFD002835
:102DD00014BF041B2C460894A1E3316851F8040B7E
:102DE000316020F00002002121F0FF33CDE9022301
:102DF00012AC0594782177E32199487820B14FF0FF
:102E0000FF340FF600102FE79DF84200622853D0E0
:102E1000682815D06A2836D06C2806D071283CD096
:102E2000742825D07A2818D053E0316851F8040B63
:102E30003160002857D14FF0FF340FF6E00013E760
:102E4000316851F8040B316020B94FF0FF340FF6B0
:102E5000CC0009E70D99018061E3316851F8040B5A
:102E6000316000283FD14FF0FF340FF6B000FBE691
:102E7000316851F8040B3160002834D14FF0FF3431
:102E80000FF69800F0E6316851F8040B316070B924
:102E90004FF0FF340FF68400E6E6316851F8040B7A
:102EA000316020B94FF0FF340FF67000DCE60D9A68
:102EB000D317C0E9002332E3316851F8040B3160C5
:102EC00020B94FF0FF340FF65400CDE60D99017094
:102ED00025E3316851F8040B316020B94FF0FF341D
:102EE0000FF63800C0E60D99016018E39DF8420026
:102EF0004C2807BF3168CA1D3068C21D22F0070286
:102F00003260D2E9000108323260CDE90201C80F17
:102F100002D007982D210AE0BDF84000810702D5B4
:102F200007982B2103E0C00705D50798202112AA96
:102F30001154401C079012A907980D18DDE90201F1
:102F4000CDE92201059525AC0E98002848BF062042
:102F500007D402BF9DF8000040F02000672801D18F
:102F600001200E90DDE902AB4FEA4B0343EADA732E
:102F70005A15DB174FF0FF30834208BF824210D151
:102F80004FEA0B3050EA1A504FEA0A3108BF0029C5
:102F900007D0613F03201A2F089017D30FF2B871A2
:102FA0000FE0DDE902014A00521512F1010F10D1C4
:102FB00008030ED1613F03201A2F08901AD30FF295
:102FC000A0710322284600F0CFFBA8E20FF2847123
:102FD000F7E7DDE9020101AA00F0E2FCCDE9020118
:102FE000DDE9022333F0004108BF002805D10027A6
:102FF0000025B5E00FF26471E3E70199DFF8BC2624
:1030000047F29750414391FBF2F20192DDE92245EC
:10301000C2F10702002A25F0004504DD20462946BA
:1030200000F027FB0BE052420020DFF8941600F07E
:1030300020FB02460B462046294600F0E9FC0446E8
:103040009DF8000040F0200A0D46BAF1660F06BF59
:10305000019F0A3706270E983F18142FC8BF142760
:1030600030208DF894000DF19508002F34DD2046B6
:10307000294600F0D6FC01460A4608F1080E042055
:103080000A23B2FBF3FC0CEB8C0BA2EB4B023032AD
:103090000EF8012C0A22BCFBF2F202EB8203ACEB2D
:1030A00043033033401E0EF8023DE9D1083F002FA4
:1030B0000EF10808D9DD084600F0BAFC02460B46BE
:1030C0002046294600F0BBFC0022DFF8F83500F06E
:1030D000BFFC04460D46CAE72F98A8EB00080DF187
:1030E000950405E00198401EA8F101080190641CB8
:1030F00020783028F6D0BAF1660F02D1019F7F1CEC
:1031000004E0BAF1650F0CBF012700270E983F18A5
:10311000B845B8BFA8F10107002F20D4474505DA0C
:10312000E05D3428C8BF4FF0390C01DC4FF0300CA3
:103130003946601E431800E07F1E13F80159491EEE
:103140006545F9D0BCF1390F02D1625C521C625462
:10315000002904D504460198401C7F1C0190019D64
:1031600038B29DF80080DDF838A0002802DC012785
:103170000FF2F05448F02000662808BF6D1C17D0ED
:1031800067280FFA85FB5AD11BF1040F43DBD345A7
:1031900041DA9DF840006D1C010703D438B2504558
:1031A000D8BF824628B2BAEB000A48BF4FF0000AE7
:1031B0000FFA85F8B8F1000F00F3AA800898411CB7
:1031C0000891302205990A54BAF1000F03DC9DF8EA
:1031D0004010080705D50898411C08912E22059932
:1031E0000A541AEB080FB8BFCAF100052DB26842A5
:1031F000AA443AB20B909245B8BF5746059B08982F
:103200003FB209973A462146184400F0ADFAAAEBBE
:1032100007050C95C8E038B2504504DA9DF8402007
:10322000110758BF8246BAF1010A48BF4FF0000AA1
:10323000B8F1670F0CBF4FF065084FF045080898CC
:10324000421C0892BAF1000F059A14F8011B1154A0
:1032500003DC9DF8400001071BD50898421C08922A
:103260002E21059A1154BAF1000F12DD7F1E38B2DB
:103270008245B8BF5746059B08983AB22146184484
:1032800000F072FA08983FB238180890AAEB0700CD
:103290000B90059908980844BBF1000F80F8008056
:1032A00003D42B214170811C04E02D2141705D4627
:1032B000811C6D42002022AA0AE02B460A2593FBBE
:1032C000F5F505EB8504A3EB440302F8013B401C34
:1032D0002DB2002DF1DC012806DC48F02002652A21
:1032E00004BF302201F8012B002822AB08D1302086
:1032F00001F8010B06E0401E1A5C303201F8012B88
:103300000028F8DC059A08981044091A09914BE046
:1033100039B228B281421DDA0598089B3AB221469B
:10332000184400F021FA08993FB279180891A8EBE7
:103330000700BAF1000F0B9003DC9DF84020100746
:1033400005D505982E2242540999491C0991CDF8BA
:1033500030A029E00598089B2AB22146184400F0C5
:1033600003FA08987F1B4044BAF1000F089003DC71
:103370009DF840100A0704D5411C08912E2205999A
:103380000A5438B28245B8BF57460598089B3AB2EE
:1033900004EB0801184400F0E7F908983FB2381828
:1033A000AAEB070708900B979DF8400000F0140067
:1033B000102840F0B480079A08980B998218099851
:1033C0008A1882180C980F998018884280F2A7807A
:1033D000081A0A90A3E09DF84200622808D06828E5
:1033E0000CD06A2810D06C2818D071280CD015E0A9
:1033F000316851F8040B3160C0B213E0316851F804
:10340000040B316080B20DE03068C21D22F007026B
:103410003260D2E900010832326004E0316851F8CC
:10342000040B31600021CDE902019DF84000020744
:1034300054D5DDE90201002908BF00284ED09DF8CF
:10344000000040F02000782848D1079912A83023C6
:103450004354491C4A1C07929DF8002042543DE009
:103460009DF84200622808D068280CD06A2810D045
:103470006C2818D071280CD015E0316851F8040B75
:10348000316040B213E0316851F8040B316000B292
:103490000DE03068C21D22F007023260D2E900015F
:1034A0000832326004E0316851F8040B3160C11712
:1034B000CDE90201002902D507982D220AE0BDF8C6
:1034C0004010880702D507982B2203E0C80705D5CE
:1034D0000798202212A90A54401C079012A80799A5
:1034E000014405919DF8001002A800F039F816E09B
:1034F00001200790316851F8040B31608DF84800C5
:103500000DE00120079025229DF800008DF848204D
:1035100028B19DF800008DF84900022107910F9D08
:1035200007990A986D1A08992D1A0B986D1A09991E
:103530002D1A0C986D1A9DF840102D1A4A073FF568
:10354000A6AB2020002D8DF800007FF7A0AB309FA8
:103550002C46FFF790BB4FF0FF3031B0BDE8F08F45
:103560002DE9FE4C06468B46376958466F2808BF42
:10357000082205D0FFF76CFA782814BF0A2210221F
:10358000D6E900013C2504468A46BBF1640F18BF0A
:10359000BBF1690F04D1002902D564426AEB4A0AE3
:1035A000BAF1000F08BF002C0CD1306B50B9082ABB
:1035B0003BD196F83810080737D530213B2587F8DE
:1035C0003B1032E08DF800B09346204651465A46F3
:1035D0000023FEF7B1FF3032D0B26D1E3A280195BC
:1035E0000DDA7A55204651465A460023FEF7A4FFCD
:1035F00004465FEA010A08BF002C05D108E09DF8E7
:1036000000001218513AECE7F16878198142DCD3D6
:10361000BBF1080F09D196F83800010705D5785D90
:10362000302802D06D1E30207855C5F13C02306B39
:10363000B26179198242F16007DA318F821A4FF64E
:10364000EF7001403262318710E000280ED596F805
:10365000380000F01400102808D1736B7069316ACB
:103660001B1A5B1A9B1A002BC8BF336203B0BDE85C
:10367000F08C2DE9D04306460F4614464FF0000863
:10368000DFF8449012E0E00707D542464B4630464B
:10369000394600F0DDF906460F46404649464246A7
:1036A0004B4600F0D5F9641080468946002CEAD1DB
:1036B00030463946BDE8D083CBCCCC0CA086010087
:1036C0000000F03F84D7974100002440F8B505463C
:1036D0000E4617461C4600205CB117F8011BB06867
:1036E000A847B06030B1F06A401CF0620020641E50
:1036F000F3D1F2BD4FF0FF30F2BD0000686A6C7488
:103700007A4C00007072696E74665F733A20256EA1
:1037100020646973616C6C6F776564007072696EA8
:1037200074663A2062616420256E20617267756D4F
:10373000656E74007072696E74665F733A206261C0
:103740006420257320617267756D656E74000000DA
:10375000000000006E616E004E414E00696E660012
:10376000494E46003000000062B38B0708D0521E5D
:1037700011F8013B00F8013B00F024808B07F6D1E3
:10378000830740F0208000BF103A07D330B4B1E87F
:103790003810103AA0E83810F9D230BC530724BFD3
:1037A000B1E80810A0E8081044BF51F8043B40F805
:1037B000043BD20724BF31F8022B20F8022B44BF70
:1037C0000B7803707047121F17D35B0009D151F8B3
:1037D000043B20F8023B1B0C121F20F8023BF6D2E0
:1037E0000BE051F8043B00F8013B1B0A20F8023BB8
:1037F0001B0C121F00F8013BF3D238BF121D521EE2
:1038000024BF11F8013B00F8013BF8D870470000D5
:1038100030B40021224A1368224A1468002830D0AC
:10382000214A1568C5F303250E2D0ED01268C2F388
:1038300003220D2A26D1827812F00F0262F30304CC
:103840000279002A14D0012213E0827812F00F02CC
:1038500062F303030279002A01D0012200E0002272
:1038600062F3DF73114AB0F9000042F8203009E03A
:10387000002262F3DF740E4AB0F9000042F82040E3
:1038800000E00649080030BC70470A4B1A68002A5D
:1038900003D01A6800B242F82010704701005600A9
:1038A000345C0810385C08100000204000A0204064
:1038B00000C02040EC06022800B500BF1300964669
:1038C0009446103928BFA0E80C50FAD85FEA417C32
:1038D00028BF0CC048BF40F8042BC90728BF20F8F8
:1038E000022B48BF00F8012B00BD0000704700000C
:1038F000C9B202788A421AB11CBF10F8012FF9E749
:1039000018BF00207047000080B500B906A0054927
:103910000B681BB122220021984701E000F0A1F8BA
:10392000222002BD100B0228636F6E7374726169EE
:103930006E742068616E646C65723A206261642006
:103940006D65737361676500C9B2830706D0521E47
:1039500022D310F8013B9942F7D11FE0083A13D364
:1039600002F1040241EA012141EA014150F8043B1D
:10397000121F21BF4B40A3F1013C2CEA030C1CF0A9
:10398000803FF3D0C9B2001F083210F8013B521E2D
:1039900028BF91EA030FF8D818BF0120401E7047D6
:1039A00010B5144600F002F8226010BDC1F30A53AE
:1039B00043B14A0012F5001F28D2A3F2FE32A1EB58
:1039C0000251704750EA410C20D001F0004C31EA1E
:1039D0000C01B1FA81F204BFB0FA80F3D2180B3AAD
:1039E000B2F120032CBF00FA03F1914041EA0C012F
:1039F0003EBFC2F1200C20FA0CF319439040524212
:103A000040F2FD33D21A01EB035170470022704798
:103A100041EC110B43EC102B81EE000B51EC100B21
:103A2000704741EC100BBCEEC00B10EE100A704753
:103A300000EE100AB8EE400B51EC100B704741EC51
:103A4000110B43EC102B31EE400B51EC100B704777
:103A500041EC110B43EC102B21EE000B51EC100B41
:103A60007047012000F000B880B5AFF30080024A33
:103A700011001820ABBEFBE726000200DFF8C411DE
:103A80000868C0F34000002801D0022002E0086866
:103A900010F001007047DFF8B001006810F001007D
:103AA00070470000C21E022A01D3012002E0C01E9E
:103AB0000860002070471CB5FF246946FFF7F2FF3D
:103AC000C0B2002802D02000C0B207E0DFF87C11AD
:103AD000009851F8200010F00100C0B216BD00009F
:103AE000002801D0032801D3012002E0401E086015
:103AF000002070471CB5FF246946FFF7F1FFC0B2F4
:103B0000002802D02000C0B208E0DFF8C40100990C
:103B100009010844C06810F00100C0B216BD0000E1
:103B2000DFF8BC010068800810F00100704738B56C
:103B300004002000C0B2082811D3DFF898511822E1
:103B4000DFF89411280000F00DFC0020E87540F625
:103B50005B01DFF888010160002000F03BFCDFF82A
:103B6000CC112000C0B251F82000C0F30020002882
:103B700005D0E4B251F8240010F00F0000E0FF205F
:103B800032BD38B504002000C0B2082811D3DFF8D8
:103B900044511822DFF84011280000F0E3FB002018
:103BA000E8754FF40961DFF834010160002000F08E
:103BB00011FCDFF87801E4B250F82400C0F30110E2
:103BC000C0B232BDDFF868211368C3F30723036076
:103BD0001068C0F3C40008607047DFF8582113680C
:103BE000C3F3072303601068C0F3C4000860704784
:103BF00038B50400072C11D3DFF8D8501822DFF8AD
:103C0000C411280000F0AEFB0020E8754FF4CE711F
:103C1000DFF8C8000160002000F0DCFBDFF8A00145
:103C200050F8240010F00700010009B2042907D160
:103C3000DFF8880150F8240010F01F0050F4807065
:103C400000B232BD241526404015264040162640BD
:103C5000DFF8AC120A689103890B0160120E12F0B2
:103C60000102C271DFF89C1209680A00D204D20C6A
:103C700082800A00120C02F0FF020281090C01F09E
:103C8000FF014181DFF84011096811F00F02027352
:103C90000A00C2F3031242730A00120AD204D20CC1
:103CA000C281090F11F003010174DFF86013096884
:103CB0000A00120A12F0070282710A00120CD205E1
:103CC000D20D4282890F11F0010101757047000089
:103CD000001926408C0A0228C0570810E80A02285A
:103CE000100027401CB50C006946FFF7DBFE010001
:103CF000C9B2002901D0C0B217E0DFF8B4140098AF
:103D000051F8200010F07F012160C0F304216160B0
:103D1000C0F30441A1600100090F11F003016173B8
:103D2000C00E10F001002073002016BD4012264086
:103D300008002040080420401CB50C006946FFF72D
:103D4000CFFE0100C9B2002901D0C0B235E0DFF8D2
:103D5000101500980001085800F0FF022260C0F31F
:103D600004226260C0F30442A260000F10F003005E
:103D7000207300980001084442681000C00F60736F
:103D8000C2F30270002801D0012000E00020A073DF
:103D900022F07F42226100980001084480680100FF
:103DA000C90F21750100090E11F001016175A0759F
:103DB000000C10F00700E075002016BD0001264041
:103DC000001226400C5808103815264080B5010016
:103DD000DFF868051822FFF7D7FC0121DFF860053E
:103DE0000170002002BDDFF85C150968C90F0029C9
:103DF00008D0DFF84C150978002907D100210160AF
:103E000003207047002101600320FAE7DFF82C153A
:103E1000096801600020F4E710B50400FFF72EFEEA
:103E2000002803D10020206003200DE0DFF81005FA
:103E30000078002805D0DFF80405806820600020A5
:103E400002E000202060032010BD0000DFF8F01425
:103E50000978002905D0DFF8E414496801600020E2
:103E600002E00021016003207047DFF8DC140968DC
:103E7000C90F002908D0DFF8C8140978002907D134
:103E80000021016003207047002101600320FAE750
:103E9000DFF8A814C96801600020F4E7DFF8AC146B
:103EA0000968C90F002908D0DFF89414097800299F
:103EB00007D1002101600320704700210160032029
:103EC000FAE7DFF87814096901600020F4E710B51B
:103ED0000400FFF725FE002803D100202060032006
:103EE0000DE0DFF85C040078002805D0DFF84C0412
:103EF00040692060002002E000202060032010BD07
:103F0000301526403415264010B50C00C0B2FFF71E
:103F10006FFE00280ED0012810D0022812D0B0F574
:103F2000887F13D040F21111884213D0B0F58A7FF8
:103F300014D017E02000FFF756FF16E02000FFF72F
:103F400085FF12E02000FFF767FF0EE02000FFF77B
:103F50008CFF0AE02000FFF7BAFF06E02000FFF721
:103F60009DFF02E000202060032010BD80B501000D
:103F70000020FFF7C9FF02BD80B50322D2B2824202
:103F800003D200200860012003E0401CC0B2FFF70C
:103F9000BBFF02BD18B587B004006846FFF7E6FF17
:103FA0000100C9B2002903D000212160C0B22BE07A
:103FB00001A8FFF74DFE9DF81400022803D10098D8
:103FC0002060002020E0DFF888030068C00F002890
:103FD00008D0FFF760FDC0B2002807D100202060A4
:103FE000032011E00098206000200DE00099019866
:103FF0004143BDF80800B1FBF0F19DF80B00401CF7
:10400000B1FBF0F02060002008B010BD3C15264048
:10401000F0B58BB005000C0069462800C0B2FFF770
:10402000ABFF0100C9B2002903D000212160C0B25A
:10403000BCE02800C0B202284CD307A92800C0B2B7
:10404000401CFFF74FFEC0B2002811D0DFF8046318
:104050001822DFF80413300000F084F90020F07516
:1040600040F66311DFF8F4020160002000F0B2F9BD
:104070004F492800C0B201EB800050F8080CC00F77
:10408000002807D09DF82900022807D10098206059
:1040900000208BE000982060002087E0EDB26D1CCE
:1040A0002800FFF708FD0100C9B2002902D0C0B204
:1040B000FF2803D100202060032077E000990798B3
:1040C00041430898B1FBF0F10998B1FBF0F0206092
:1040D00000206BE001A92800C0B2401CFFF72CFEB5
:1040E000C0B2002811D0DFF86C621822DFF8681225
:1040F000300000F037F90020F07540F67F10DFF84F
:104100005C120860002000F065F955482900C9B22A
:1041100009014058C00F002807D09DF81000022860
:1041200007D100982060002040E000982060002027
:104130003CE0EDB26D1C2800FFF7DCFC0100C9B2C9
:10414000002902D0C0B2FF2803D100202060032044
:104150002CE09DF8110001281DD1009A0023019E3A
:1041600000273F0647EA162736060598002136182D
:104170004F41A6FB020106FB031107FB0211029A45
:10418000039BA3FB0223FEF7D7F9000E40EA0120B0
:10419000090E206009E00099019841430298B1FBA3
:1041A000F0F10398B1FBF0F0206000200BB0F0BDFF
:1041B0000016264010B50323421E0400E4B2002C72
:1041C00003D10800FFF7E6FE0CE01400DBB2E4B216
:1041D000A34204D31000C0B2FFF71AFF02E0C0B23E
:1041E000FFF792FE10BD38B505000C002800C0B2E4
:1041F000FFF79DFC0100C9B2FF2904D12000FFF7A1
:10420000F2FDC0B21BE06946C0B2FFF7D3FF010068
:10421000C9B2002903D000212160C0B20FE02800FC
:10422000C0B2FFF7AEFCC0B2002805D002280BD008
:1042300006D303280CD00FE000982060002032BD88
:10424000009840082060F9E7009880082060F5E7B2
:104250000098C0082060F1E7002020600320EEE70E
:10426000001926401FB5040002A90120FFF7BBFF7B
:104270000100C9B2002903D000212160C0B21AE0B8
:10428000694601A8FFF79EFC01980021421C71F1CC
:10429000FF335B0143EAD2635201009800211218F8
:1042A0004B4102980021490141EAD0614001FEF7EB
:1042B00043F92060002004B010BD1FB5040002A91E
:1042C0000120FFF790FF0100C9B2002903D00021AF
:1042D0002160C0B21AE0694601A8FFF77EFC019890
:1042E0000021421C71F1FF335B0143EAD2635201AA
:1042F0000098002112184B4102980021490141EA1F
:10430000D0614001FEF718F92060002004B010BD14
:1043100080B5DFF84C100A68C2F303220E2A07D0DA
:104320000968C1F303210D2905D1FFF7C6FF02BDBE
:10433000FFF798FFFBE70120F9E70000740A022865
:104340001E0B022818152640081526400C1526407D
:10435000301526408C0A02280C580810E80A02285A
:104360000000204001B58B071AD1830724D1121F0A
:1043700021D351F8043BA3F1013C2CEA030C1CF0BF
:10438000803C04BF40F8043BF1E79CFA8CFCBCFA8B
:104390008CF1C1F118018B40CB4040F8043B13E095
:1043A000042A09D311F8013B521E00F8013B5BB10E
:1043B0008B07F7D1D9E7121D5AB111F8013B521EF4
:1043C00000F8013B03B1F8D111001CBF0022FCF73B
:1043D0008BFF01BD01BEFEE780B52349234A136868
:1043E0008B423ED011602249096851622149916295
:1043F00001685160416891608168D160C168116154
:1044000001695161416991618169D161C16911623B
:10441000F1EE101A11F0900F23D017499162016A42
:10442000D162416A1163816A5163C16A9163016B10
:10443000D163416B1164816B5164C16B9164016CF8
:10444000D164416C1165816C5165C16C9165016DE0
:10445000D165416D1166816D5166C16D9166006EC9
:10446000D06600F00BF801BDFAF9F8F7D40902287C
:1044700028ED00E0A4A3A2A1ABAAA9A8FEE7000032
:10448000022801D3012010E00B00DBB2042B01DB7A
:1044900001200AE0DFF8783303EB8000C9B2405C0A
:1044A000824201D3012000E000207047F8B50400EB
:1044B0000F0015001E00022C01D3012020E02A006D
:1044C0003900C9B22000FFF7DBFF012801D101202C
:1044D00016E03800C0B2002815D1B6F5807F10D2A2
:1044E000DFF830134FF40050444301EB040000EBBD
:1044F000850010F58051086866F30F2008600020E1
:10450000F2BD0120FCE7FFB2012F14D1B6F5803FC8
:104510000FD2DFF800134FF40050444301EB0400C6
:1045200000EB850010F5A051086866F317200860BD
:10453000E5E70120E4E70120E2E700B20012C0B2A3
:104540007047F8B504000E001700200000B2FFF716
:10455000F4FF05002800C0B2022801D3012029E0A1
:104560003A003100C9B22800C0B2FFF789FF012824
:1045700001D101201EE0DFF89C122A00D2B24FF4D4
:10458000005042430A442000C0B202EB8000D0F841
:10459000002CF6B266F3092267F30702EDB24FF47E
:1045A0000050454301EB0500E4B200EB8400C0F885
:1045B000002C0020F2BD70B504000D001600022C86
:1045C00001D3012025E032002900C9B22000FFF705
:1045D00057FF012801D101201BE0DFF838124FF40A
:1045E000005000FB04F0085850F0004050F04070BC
:1045F00050F47F00EDB265F3092066F307004FF435
:10460000005202FB04F288504FF400504443085912
:10461000002070BD0100C9B2002905D0022907D0D1
:1046200004D3032906D006E03E2004E0412002E046
:104630009A2000E08B20C0B270470100C9B2002967
:1046400005D0022907D004D3032906D006E00A20AA
:1046500004E00A2002E00A2000E00A20C0B270470D
:104660000100C9B2002905D0022907D004D30329CB
:1046700006D006E03F2004E0422002E09B2000E05C
:104680008C20C0B270472DE9F841A1B006000D00A2
:1046900014003421002214AF3800FCF721FE310051
:1046A0002800C9B2C0B2814201D1012000E000203F
:1046B0005D4FE5223900C0B2FCF7A8FD28002100BB
:1046C000C0B2C9B2884201D1012000E00020E62238
:1046D0003900C0B2FCF79AFD524F00220121300090
:1046E000C0B237F91000FFF72CFF3000C0B237F925
:1046F0001000FFF722FF092300220121C0B2FFF7BB
:10470000D5FE3000C0B237F91000FFF716FF0022C7
:104710000121C0B2FFF74FFF0E2015902800C0B254
:10472000FFF78BFF8DF858002800C0B2FFF772FF2B
:1047300007005FF008082800C0B2FFF76BFF384D94
:1047400014AA97FBF8F108FB11773900C0B2C0102A
:10475000802358432844FCF7C0FE0B20159000200E
:104760008DF858002000C0B2FFF77AFF07005FF015
:1047700008082000C0B2FFF773FF14AA97FBF8F1F6
:1047800008FB11773900C0B2C01080235843284479
:10479000FCF7A3FE502100226C462000FCF7A0FD90
:1047A0004FF6FF700090039000208DF80400002069
:1047B0008DF8050000208DF8060000208DF8080017
:1047C00000208DF8440002201290144C69463000FD
:1047D000C0B254F8200000F029F83000C0B254F8FC
:1047E000200000F0DFF83000C0B254F82000FCF7E1
:1047F000B2FF00213000C0B254F8200000F0D7F81A
:1048000001200549F6B2885522B0BDE8F0810000CC
:10481000E45B0810000004400C0B0228000702288B
:1048200000003140F8060228E058081010B40122B8
:1048300091F84C30052B03D291F84D30052B01D364
:104840001000A3E0002800F0A080002900F09D8067
:104850004F4A12684B7963F392428B7913F003034A
:1048600063F311420B7A13F0070363F31A62CB79F7
:1048700063F39E720B7D63F3000291F8243063F3BF
:10488000410202600B7910F13002146863F30704EF
:1048900014604A79012A0BD18A79002A02D10022B8
:1048A000826007E08A79012A04D10A68826001E007
:1048B00001228260CA6802610A694261CA69826132
:1048C0000A6AC2610A680262324A12680B7E03F009
:1048D000FF0363F3070291F8303003F0FF0363F343
:1048E000174291F8403003F0FF0363F31F6291F821
:1048F000483003F0FF0363F30F224264264A126834
:1049000091F8383003F0FF0363F3070291F8283081
:1049100003F0FF0363F30F228264204A12688B7D49
:1049200013F0030363F3010291F8253013F003033E
:1049300063F38B2291F82C3013F0030363F3051219
:1049400091F8343013F0030363F3092291F83C30FB
:1049500013F0030363F3871291F8443013F0030359
:1049600063F38302C2640E4A126891F84C3013F06C
:10497000070363F3020291F84D3013F0070363F36A
:1049800006124265497D81670022100010BC704705
:104990003C5C0810405C0810445C0810485C08103F
:1049A0004C5C0810016851F0004101607047816063
:1049B00070470000022801D301200FE00B00DBB29A
:1049C000042B01DB012009E08B4B03EB8000C9B213
:1049D000405C824201D3012000E000207047F8B51E
:1049E00004000F0015001E00022C01D301201FE05F
:1049F0002A003900C9B22000FFF7DCFF012801D1ED
:104A0000012015E03800C0B2002814D1B6F5807F2F
:104A10000FD27A494FF40050444301EB040000EBFD
:104A2000850010F58051086866F30F2008600020AB
:104A3000F2BD0120FCE7FFB2012F13D1B6F5803F94
:104A40000ED26E494FF40050444301EB040000EBDA
:104A5000850010F5A051086866F317200860E6E7A6
:104A60000120E5E70120E3E700B20012C0B2704781
:104A7000F8B504000E001700200000B2FFF7F4FFA5
:104A800005002800C0B2022801D3012028E03A0026
:104A90003100C9B22800C0B2FFF78CFF012801D154
:104AA00001201DE055492A00D2B24FF40050424384
:104AB0000A442000C0B202EB8000D0F8002CF6B20D
:104AC00066F3092267F30702EDB24FF40050454345
:104AD00001EB0500E4B200EB8400C0F8002C0020DC
:104AE000F2BD70B504000D001600022C01D30120A8
:104AF00024E032002900C9B22000FFF75BFF012843
:104B000001D101201AE03D494FF4005000FB04F0B0
:104B1000085850F0004050F0407050F47F00EDB263
:104B200065F3092066F307004FF4005202FB04F21C
:104B300088504FF4005044430859002070BD38B5E8
:104B400094B0502100226C462000FCF7C9FB2E4C8B
:104B500000220121B4F90000FFF78AFFB4F9000038
:104B6000FFF782FF092300220121C0B2FFF737FFC0
:104B7000B4F90000FFF778FF00220121C0B2FFF76F
:104B8000B0FF5FF0FF30009000208DF8040000209F
:104B90008DF8050000208DF8060000208DF8080033
:104BA00003208DF844000120129001208DF80700A9
:104BB000134D144C69462A788020424304EB0200CE
:104BC000FFF734FE29788020414304EB0100FFF712
:104BD000E9FE00212A788020424304EB0200FFF71F
:104BE000E6FE29788020414304EB0100FCF7B3FD89
:104BF00015B030BD00000000E45B08100000044068
:104C00003B070228000059403807022838B500F059
:104C100079F900F042F800F0C9F87149086880039A
:104C200012D4BFF34F8FBFF36F8F00226D48026025
:104C3000BFF34F8FBFF36F8F086850F400300860E8
:104C4000BFF34F8FBFF36F8F0868C00324D40022D7
:104C500065480260BFF34F8F64480268C2F34E3369
:104C6000C2F3C90443F6E07515EA431555EA8475A5
:104C70005F4805602000441E0028F3D11800431E41
:104C80000028EDD1BFF34F8F086850F480300860E2
:104C9000BFF34F8FBFF36F8F31BD70B586B06846DD
:104CA00054491822FEF770FD00200AE06A46010010
:104CB000C9B202EBC1014968491C11F0070F0DD1BF
:104CC000401C0100C9B2032909D26A460100C9B2D9
:104CD00012F8311011F0070FE8D0FEE7FEE7464C5E
:104CE000207810F0070F00D0FEE7444D2868401CE4
:104CF00010F0070F00D0FEE7002622E069463000E2
:104D0000C0B201EBC00041683000C0B252F83000C0
:104D100000F043F814E000200028EFD02168491E7D
:104D20003000C0B252F8300000F037F86846310069
:104D3000C9B200EBC10041682868401C00F02DF8A2
:104D4000761C3000C0B2032825D26A463000C0B2BB
:104D500052F83000002813D020683100C9B252F850
:104D6000311088420AD369463000C0B201EBC0005E
:104D700041682068814201D30120CDE70020CBE7C4
:104D800069463000C0B201EBC0004068216888422B
:104D9000C1D30120C0E706B070BD0022002302E0AD
:104DA000C0E9002308308842FAD3704730B4144B6E
:104DB0009B0814481449002208E01400E4B251F89A
:104DC00024501400E4B240F82450521C15001C007A
:104DD000EDB2E4B2A542F0D30C49086030BC704794
:104DE00014ED00E050EF00E084ED00E080ED00E025
:104DF00060EF00E0405B08101057081014570810CF
:104E000080000000800B02280000081008ED00E080
:104E100010B5002143480160BFF34F8F424801683D
:104E2000C1F34E32C1F3C90343F6E07414EA4214ED
:104E300054EA83743D4804601800431E0028F3D1EF
:104E40001000421E0028EDD1BFF34F8FBFF36F8FCC
:104E5000BFF34F8FBFF36F8F002135480160BFF361
:104E60004F8FBFF36F8F00F001F810BD38B586B0DB
:104E7000684630491822FEF787FC6846FEF7A6FF11
:104E8000C0B200280DD02C4C18222C492000FFF76E
:104E900069FA0020E0754E21294801600020FFF7E3
:104EA00099FA284C2000FFF733FAC0B200280DD041
:104EB000214D182221492800FFF754FA0020E875F7
:104EC00050211F4801600020FFF784FA1E49206826
:104ED00008600A681D4882181D48B2FBF0F21D48A0
:104EE00002601D480A6802F2E7324FF47A71B2FBA1
:104EF000F1F1016001684FF400404143174801603F
:104F000007B030BD80B500F02DF8154A116851F496
:104F100070011160BFF34F8FBFF36F8F00F026F861
:104F200001BD000084ED00E080ED00E074EF00E0E2
:104F300050EF00E0585B08108C0A022858580810FF
:104F4000E80A0228F00A0228F40A02283F420F0069
:104F500040420F00FC0A0228F80A0228000B02282F
:104F600088ED00E0EFF3108072B6704780F3108890
:104F700070470000010009B2002908D4012210F096
:104F80001F018A404F4900B2400941F82020704774
:104F9000FEE780B54C4800684C4801680800C00F27
:104FA000002805D04A488905890D50F8210080471E
:104FB0000020FFF7DFFF01BD80B546480068464886
:104FC00001680800C00F002805D041488905890DF7
:104FD00050F8210080470120FFF7CCFF01BD80B5CC
:104FE0003E4800683E4801680800C00F002805D010
:104FF00037488905890D50F8210080470220FFF7C6
:10500000B9FF01BD80B5374800683748016808001E
:10501000C00F002805D02E488905890D50F82100C1
:1050200080470320FFF7A6FF01BD80B52F48006829
:105030002F4801680800C00F002805D024488905C2
:10504000890D50F8210080470420FFF793FF01BD30
:1050500080B528480068284801680800C00F00286B
:1050600005D01B488905890D50F82100804705208F
:10507000FFF780FF01BD80B5204800682048016827
:105080000800C00F002805D011488905890D50F887
:10509000210080470620FFF76DFF01BD80B519484C
:1050A0000068194801680800C00F002805D00848AA
:1050B0008905890D50F8210080470720FFF75AFF26
:1050C00001BD000080E200E0EC5B08100001204020
:1050D00000000228F05B081004012040F45B081077
:1050E00008012040F85B08100C012040FC5B081010
:1050F00010012040005C081014012040045C0810DE
:1051000018012040085C08101C012040D0F8C80F8E
:105110007047C0F8C01FD0F8C00F7047D0F8880F94
:105120007047C0F8801FD0F8800F704780B500200E
:10513000FCF7E2FCFFF7EAFF400708D50020FCF788
:10514000DBFC0421FFF7E5FFFCF747F80DE000204A
:10515000FCF7D2FCFFF7E2FF800506D50020FCF744
:10516000CBFC4FF40071FFF7DCFF01BD80B50120DF
:10517000FCF7C2FCFFF7CAFF400709D50120FCF786
:10518000BBFC0421FFF7C5FF3948006880470DE0EC
:105190000120FCF7B1FCFFF7C1FF800506D5012017
:1051A000FCF7AAFC4FF40071FFF7BBFF01BD80B50F
:1051B0000220FCF7A1FCFFF7A9FF400708D5022059
:1051C000FCF79AFC0421FFF7A4FF00F055F80DE06E
:1051D0000220FCF791FCFFF7A1FF800506D5022015
:1051E000FCF78AFC4FF40071FFF79BFF01BD80B50F
:1051F0000320FCF781FCFFF789FF400706D5032059
:10520000FCF77AFC0421FFF784FF0DE00320FCF794
:1052100073FCFFF783FF800506D50320FCF76CFCC9
:105220004FF40071FFF77DFF01BD80B50420FCF74E
:1052300063FCFFF76BFF400709D50420FCF75CFC1B
:105240000421FFF766FF0B48006880470DE004204B
:10525000FCF752FCFFF762FF800506D50420FCF73F
:105260004BFC4FF40071FFF75CFF01BD0000000034
:10527000F0060228F40602281FB5002001904048DD
:105280000078002868D004E0012269463D48FCF718
:105290003AFF69460220FCF782FC0028F4D19DF811
:1052A00000000A2858D106200190364C012301AA9B
:1052B00002A92000FCF7F7FF032228A10DF10B0043
:1052C00000F064F8002810D12748017802293DD069
:1052D000012101702000FCF705FF0190002301AAC5
:1052E00022492000FCF7DFFF30E003221CA10DF172
:1052F0000B0000F04BF8002810D11D48017802295E
:1053000024D0012101702000FCF7ECFE0190002365
:1053100001AA18492000FCF7C6FF17E0032211A1DB
:105320000DF10B0000F032F800280FD1124801787F
:1053300002290BD0012101702000FCF7D3FE01905F
:10534000002301AA0D492000FCF7ADFF2000FCF767
:105350008FFE01210C4801701FBD0000524D43001B
:105360004747410054485300250B0228D40802281F
:10537000240B022854080228260B0228540902286C
:10538000230B0228BC0A0228220B02288AB10B78C0
:1053900090F800C09C4506D110F8013B4BB1491C68
:1053A000521EF4D105E002D24FF0FF3070470120C9
:1053B000704700207047000080B500224FF47A71DA
:1053C0004B20FBF78CFC032301220121942000F0E9
:1053D000A3F8032203210320FFF755F901BD80B58F
:1053E000020012B2012A07D14B20FBF746FC012133
:1053F000942000F06DF80EE000B2002808D1494278
:105400004B20FBF73AFC0021942000F061F802E009
:10541000214800F0CDF801BD38B5204C208020484F
:105420000180204A2049098811802049038810887A
:105430001B1A0B801E4DB1F9000000EE100AB8EEE9
:10544000C00A1C4800F0C8F8BDEEC00A85ED000A8D
:10545000296842F21170814202DB42F2107028602A
:1054600015492868884200DA29602968B4F90000E3
:10547000FFF7B5FF31BD80B50848B0F9000001283D
:1054800004D100210120FFF7C7FF03E00021002025
:10549000FFF7C2FF01BD0000285B08101C0B0228AB
:1054A000140B0228160B02281A0B0228180B0228CC
:1054B000EC0A0228440A0228F0D8FFFF012212FA5F
:1054C00001F181607047012212FA01F141607047D9
:1054D00080B5C9B200290FD00100C9B2082391FBE1
:1054E000F3F203FB1211314BC0B2C01080225043C3
:1054F0001844FFF7E3FF0EE00100C9B2082391FB57
:10550000F3F203FB1211294BC0B2C01080225043AA
:105510001844FFF7D8FF01BD2DE9F8418DB0050013
:10552000884614001E00342100226F463800FBF725
:10553000D7FE5FFA88F8B8F1000F0ED1F6B2002E50
:1055400002D0022E03D005E00F2001900DE00820CC
:1055500001900AE00820019007E0F6B2042E02D183
:105560000F20019001E00E2001902800C0B2C02859
:1055700011D02900C9B208236A4691FBF3F003FB5E
:1055800010110A4E2B00DBB2DB108020434306EBE8
:105590000300FBF7A2FF2100C9B22800C0B2FFF749
:1055A00097FF0EB0BDE8F081000000000000314020
:1055B0000EB41EB5024605A801900024009401AB6C
:1055C0000121044878440C30FDF745FA03B010BCC3
:1055D0005DF810FBB50500002049214A0A60214A08
:1055E0004A601D4A8A60D0ED090A30EE601AD0ED9B
:1055F000000A61EE200AC0ED040AD0ED010A60EE57
:10560000800AC0ED050AD0ED090A30EE601AD0ED2F
:105610000A0A31EE601AD0ED020A61EE200AC0EDEE
:10562000060AD0ED090A70EE600AC0ED0A0A80EDA4
:10563000090AD0ED040A90ED050A70EE800A90ED9B
:10564000060A70EE800A90ED070A30EE800A80EDBF
:10565000070A90ED070A70470000A040440A02289C
:105660000000DC420000C04072B61D4908684FEAE5
:10567000102000F00F000E2808BF1A490D2808BF9F
:105680001949072808BF1949082808BF1849086898
:1056900020F00B0008600868BFF34F8F15481649CB
:1056A0000860BFF34F8F1549086840F00700086095
:1056B0001349086840F007000860BFF34F8FBFF33D
:1056C0006F8F00200021124AE2E802016A45FBD1F7
:1056D0000C4FB8470C4FB8470C4FB847FEE70000D7
:1056E000000020400C0020400C0420400C0820400A
:1056F0000C0C20400000081008ED00E090EF00E0E6
:1057000094EF00E00D4C0810C95908100D5B08100B
:1057100000FF0728FFFF072880B5174800F02EF884
:10572000FBF7B7FDFFF748FE00F036F8002000F069
:105730003DF807E040F6B8310120FFF750FE0CA01D
:10574000FFF736FF69460220FCF729FAC0B20028AD
:10575000F8D09DF800003128ECD09DF800003228E8
:10576000F0D1FFF788FE03A0FFF722FFEAE700BFB2
:10577000310A0000320A000080B2E60E80B5054909
:105780000860FFF745FBFFF7DAF90020FCF78CFE15
:1057900001BD0000040B022880B5022302224FF451
:1057A00016510220FCF721FB01BD000080B540F23C
:1057B000B62232215D20FBF792FA01BD0000000005
:1057C000453A5CE6A18CE99DA25C6F6B5C3936338F
:1057D00072612D5C6C69627261726965735C73647D
:1057E0006B5C747669696268346D5C7372635C6467
:1057F0007269766572735C737973636C6B5C6379E1
:105800005F737973636C6B2E68000000453A5CE649
:10581000A18CE99DA25C6F6B5C39363372612D5CA3
:105820006C69627261726965735C73646B5C7476D7
:1058300069696268346D5C7372635C647269766511
:1058400072735C737973636C6B5C63795F73797388
:10585000636C6B2E63000000453A5CE6A18CE99D09
:10586000A25C6F6B5C39363372612D5C6C6962725D
:1058700061726965735C73646B5C74766969626894
:10588000346D5C7372635C73797374656D5C73798A
:105890007374656D5F747669696268346D5F636D9A
:1058A000372E6300453A5CE6A18CE99DA25C6F6BE4
:1058B0005C39363372612D5C6C6962726172696544
:1058C000735C7A665F636F6D6D6F6E5C7A665F6343
:1058D0006F6D6D6F6E5F6669666F2E63000000000E
:1058E000453A5CE6A18CE99DA25C6F6B5C3936336E
:1058F00072612D5C6C69627261726965735C7A6653
:105900005F6472697665725C7A665F6472697665F7
:10591000725F656E636F6465722E6300453A5CE684
:10592000A18CE99DA25C6F6B5C39363372612D5C92
:105930006C69627261726965735C7A665F647269D0
:105940007665725C7A665F6472697665725F7561AE
:1059500072742E6300000000453A5CE6A18CE99D5C
:10596000A25C6F6B5C39363372612D5C6C6962725C
:1059700061726965735C7A665F6472697665725C90
:105980007A665F6472697665725F70776D2E630008
:1059900030B4002412E050F8043BDA0744BF4B4413
:1059A0005B1E091F042943F8044BFAD21A468D07DF
:1059B00044BF1C80921CCB0748BF147050F8041BD6
:1059C0000029E8D130BC704710B5034A7A44083248
:1059D000024C7C44A41D03E0400000005C00000079
:1059E00004E01168101D114488470246A242F8D114
:1059F00010BD00004EF68851CEF20001086840F458
:105A000070000860BFF34F8FBFF36F8F4FF00170CE
:105A1000E1EE100A7047000079FFFFFFEC03000081
:105A20003C070228000000001FB9FFFF7E020000B3
:105A3000CA0000000000022804207146084202D07B
:105A4000EFF3098001E0EFF3088000B501498847D2
:105A500000BD0000D943081080B58DF80000012278
:105A600069460120FBF7C9FB012802D19DF800001F
:105A700002BD4FF0FF3002BD00000000000000003A
:105A8000801C800803D0401C801EFCD100BF7047E2
:105A9000EFF3108072B6704780F3108870470000F3
:105AA00000F00EF8002801D0FFF78EFFAFF3008062
:105AB0000020AFF30080FFF72FFE00F003F8000096
:105AC0000020704700F000B807463846FDF7CCFFCD
:105AD000FBE700000D0A66696C65202573206C6980
