:020000041008E2
:100000000000082805410810F94608100D450810A1
:10001000FD460810014708100547081000000000C1
:10002000000000000000000000000000C1450810B2
:1000300009470810000000000D470810114708107C
:100040008B3F0810B13F0810D73F0810FD3F081044
:1000500023400810494008106F40081095400810D0
:1000600015470810194708101D47081021470810A8
:1000700025470810294708102D4708103147081058
:1000800040F0200070472DE9F14FB0B091463A9A08
:10009000049100200DF142011E464A7021910DF19C
:1000A00095020D902F920BE019F8011B0498309ADD
:1000B00090470028049000F066850D98401C0D9034
:1000C00099F8000050B12528EED1002200210792B6
:1000D000089109920A910B920C9104E00D9800F09E
:1000E00054BD41F0010119F8010F2028F9D023284F
:1000F0000CD02B2804D02D2805D0302809D00BE0B7
:1001000041F00201EFE741F00401ECE741F00801A2
:10011000E9E741F01001E6E72A280DD1326852F8EC
:10012000040B326000280F9003D540420F9041F03D
:10013000040109F1010914E00F92DFF8AC0B0AE0A9
:100140000F9C844205DA04EB840302EB4302303A4D
:100150000F9209F1010999F80020A2F130030A2B4E
:10016000EED399F800202E2A03D04FF0FF300E90E6
:1001700027E019F8010F2A2807D1326852F8040B3A
:1001800032600E9009F101091BE02D280CBF09F126
:100190000109002000220E92DFF84C5B0BE040B911
:1001A0000E9BAB4205DA03EB830402EB4402303AC8
:1001B0000E9209F1010999F80020A2F130030A2BEF
:1001C000EDD3ADF840100FF6643099F8001000F050
:1001D00021FE08B119F8010B8DF842009DF842008C
:1001E000682805D199F8001068290CD1622006E032
:1001F0006C2804BF99F800106C2904D171208DF887
:10020000420009F1010912A9069119F8012B8DF894
:1002100000201746B7F1250126D02039022940F2E7
:100220007D81133900F0EF830B3900F07984491E8A
:1002300000F02E84491E022940F27081091F00F04F
:100240002784491F00F0F080491E00F0DC83491E1E
:1002500000F0DB80C91E0ED0891E00F0D483C91EB9
:1002600000F0D18300F065BC0122252107928DF8B2
:10027000481000F06CBC306850F8044B3060002C23
:10028000059440F0B08021994878002800F0A780BC
:100290004FF0FF340FF6CC2000F0CCFD241A40F0D4
:1002A000728400F054BC01236A4602A9384600F06B
:1002B00025FD002840F06784641EF4D13097079C28
:1002C00012AF84B1DDF8C08017F8011B0498C04755
:1002D0000028049000F057840D98401C641E0D9077
:1002E000F2D1CDF8C0800A9C3021002C8DF800108E
:1002F0000CDD309F01236A4602A9384600F0FEFC5F
:10030000002840F04084641EF4D13097059F089C7B
:1003100084B1DDF8C08017F8011B0498C04700289D
:10032000049000F030840D98401C641E0D90F2D1B2
:10033000CDF8C0800B9C3021002C8DF800100CDD16
:10034000309F01236A4602A9384600F0D7FC0028F6
:1003500040F01984641EF4D1309705990898099CDF
:100360000F1884B1DDF8C08017F8011B0498C0474E
:100370000028049000F007840D98401C641E0D9026
:10038000F2D1CDF8C0800C9C3021002C8DF80010EB
:100390000CDD309F01236A4602A9384600F0AEFC0E
:1003A000002840F0F083641EF4D130979DF840009F
:1003B00041077FF585AE2020002D8DF800007FF7E6
:1003C0007FAE309C01236A4602A9204600F096FCCD
:1003D000002840F0D8836D1EF4D1309470E60FF6FB
:1003E000A0100590B3E30E9D002D04D5204600F02B
:1003F00041FD044607E02A46204600F057FD00284C
:1004000014BF041B2C460894A1E3316851F8040B77
:10041000316020F00002002121F0FF33CDE90223FA
:1004200012AC0594782177E32199487820B14FF0F8
:10043000FF340FF600102FE79DF84200622853D0DA
:10044000682815D06A2836D06C2806D071283CD090
:10045000742825D07A2818D053E0316851F8040B5D
:100460003160002857D14FF0FF340FF6E00013E75A
:10047000316851F8040B316020B94FF0FF340FF6AA
:10048000CC0009E70D99018061E3316851F8040B54
:10049000316000283FD14FF0FF340FF6B000FBE68B
:1004A000316851F8040B3160002834D14FF0FF342B
:1004B0000FF69800F0E6316851F8040B316070B91E
:1004C0004FF0FF340FF68400E6E6316851F8040B74
:1004D000316020B94FF0FF340FF67000DCE60D9A62
:1004E000D317C0E9002332E3316851F8040B3160BF
:1004F00020B94FF0FF340FF65400CDE60D9901708E
:1005000025E3316851F8040B316020B94FF0FF3416
:100510000FF63800C0E60D99016018E39DF842001F
:100520004C2807BF3168CA1D3068C21D22F007027F
:100530003260D2E9000108323260CDE90201C80F11
:1005400002D007982D210AE0BDF84000810702D5AE
:1005500007982B2103E0C00705D50798202112AA90
:100560001154401C079012A907980D18DDE90201EB
:10057000CDE92201059525AC0E98002848BF06203C
:1005800007D402BF9DF8000040F02000672801D189
:1005900001200E90DDE902AB4FEA4B0343EADA7328
:1005A0005A15DB174FF0FF30834208BF824210D14B
:1005B0004FEA0B3050EA1A504FEA0A3108BF0029BF
:1005C00007D0613F03201A2F089017D30FF2B8719C
:1005D0000FE0DDE902014A00521512F1010F10D1BE
:1005E00008030ED1613F03201A2F08901AD30FF28F
:1005F000A0710322284600F085FCA8E20FF2847166
:10060000F7E7DDE9020101AA00F0D0FCCDE9020123
:10061000DDE9022333F0004108BF002805D100279F
:100620000025B5E00FF26471E3E70199DFF8BC261D
:1006300047F29750414391FBF2F20192DDE92245E6
:10064000C2F10702002A25F0004504DD20462946B4
:1006500000F027FB0BE052420020DFF8941600F078
:1006600020FB02460B462046294600F0D7FC0446F4
:100670009DF8000040F0200A0D46BAF1660F06BF53
:10068000019F0A3706270E983F18142FC8BF14275A
:1006900030208DF894000DF19508002F34DD2046B0
:1006A000294600F0C4FC01460A4608F1080E042061
:1006B0000A23B2FBF3FC0CEB8C0BA2EB4B023032A7
:1006C0000EF8012C0A22BCFBF2F202EB8203ACEB27
:1006D00043033033401E0EF8023DE9D1083F002F9E
:1006E0000EF10808D9DD084600F0A8FC02460B46CA
:1006F0002046294600F0A9FC0022DFF8F83500F07A
:10070000ADFC04460D46CAE72F98A8EB00080DF192
:10071000950405E00198401EA8F101080190641CB1
:1007200020783028F6D0BAF1660F02D1019F7F1CE5
:1007300004E0BAF1650F0CBF012700270E983F189F
:10074000B845B8BFA8F10107002F20D4474505DA06
:10075000E05D3428C8BF4FF0390C01DC4FF0300C9D
:100760003946601E431800E07F1E13F80159491EE8
:100770006545F9D0BCF1390F02D1625C521C62545C
:10078000002904D504460198401C7F1C0190019D5E
:1007900038B29DF80080DDF838A0002802DC01277F
:1007A0000FF2F05448F02000662808BF6D1C17D0E7
:1007B00067280FFA85FB5AD11BF1040F43DBD345A1
:1007C00041DA9DF840006D1C010703D438B2504552
:1007D000D8BF824628B2BAEB000A48BF4FF0000AE1
:1007E0000FFA85F8B8F1000F00F3AA800898411CB1
:1007F0000891302205990A54BAF1000F03DC9DF8E4
:100800004010080705D50898411C08912E2205992B
:100810000A541AEB080FB8BFCAF100052DB268429E
:10082000AA443AB20B909245B8BF5746059B089828
:100830003FB209973A462146184400F063FBAAEB01
:1008400007050C95C8E038B2504504DA9DF8402001
:10085000110758BF8246BAF1010A48BF4FF0000A9B
:10086000B8F1670F0CBF4FF065084FF045080898C6
:10087000421C0892BAF1000F059A14F8011B11549A
:1008800003DC9DF8400001071BD50898421C089224
:100890002E21059A1154BAF1000F12DD7F1E38B2D5
:1008A0008245B8BF5746059B08983AB2214618447E
:1008B00000F028FB08983FB238180890AAEB070010
:1008C0000B90059908980844BBF1000F80F8008050
:1008D00003D42B214170811C04E02D2141705D4621
:1008E000811C6D42002022AA0AE02B460A2593FBB8
:1008F000F5F505EB8504A3EB440302F8013B401C2E
:100900002DB2002DF1DC012806DC48F02002652A1A
:1009100004BF302201F8012B002822AB08D130207F
:1009200001F8010B06E0401E1A5C303201F8012B81
:100930000028F8DC059A08981044091A09914BE040
:1009400039B228B281421DDA0598089B3AB2214695
:10095000184400F0D7FA08993FB279180891A8EB2B
:100960000700BAF1000F0B9003DC9DF84020100740
:1009700005D505982E2242540999491C0991CDF8B4
:1009800030A029E00598089B2AB22146184400F0BF
:10099000B9FA08987F1B4044BAF1000F089003DCB5
:1009A0009DF840100A0704D5411C08912E22059994
:1009B0000A5438B28245B8BF57460598089B3AB2E8
:1009C00004EB0801184400F09DFA08983FB238186B
:1009D000AAEB070708900B979DF8400000F0140061
:1009E000102840F0B480079A08980B99821809984B
:1009F0008A1882180C980F998018884280F2A78074
:100A0000081A0A90A3E09DF84200622808D06828DE
:100A10000CD06A2810D06C2818D071280CD015E0A2
:100A2000316851F8040B3160C0B213E0316851F8FD
:100A3000040B316080B20DE03068C21D22F0070265
:100A40003260D2E900010832326004E0316851F8C6
:100A5000040B31600021CDE902019DF8400002073E
:100A600054D5DDE90201002908BF00284ED09DF8C9
:100A7000000040F02000782848D1079912A83023C0
:100A80004354491C4A1C07929DF8002042543DE003
:100A90009DF84200622808D068280CD06A2810D03F
:100AA0006C2818D071280CD015E0316851F8040B6F
:100AB000316040B213E0316851F8040B316000B28C
:100AC0000DE03068C21D22F007023260D2E9000159
:100AD0000832326004E0316851F8040B3160C1170C
:100AE000CDE90201002902D507982D220AE0BDF8C0
:100AF0004010880702D507982B2203E0C80705D5C8
:100B00000798202212A90A54401C079012A807999E
:100B1000014405919DF8001002A800F039F816E094
:100B200001200790316851F8040B31608DF84800BE
:100B30000DE00120079025229DF800008DF8482047
:100B400028B19DF800008DF84900022107910F9D02
:100B500007990A986D1A08992D1A0B986D1A099918
:100B60002D1A0C986D1A9DF840102D1A4A073FF562
:100B7000A6AB2020002D8DF800007FF7A0AB309FA2
:100B80002C46FFF790BB4FF0FF3031B0BDE8F08F3F
:100B90002DE9FE4C06468B46376958466F2808BF3C
:100BA000082205D0FFF76CFA782814BF0A22102219
:100BB000D6E900013C2504468A46BBF1640F18BF04
:100BC000BBF1690F04D1002902D564426AEB4A0ADD
:100BD000BAF1000F08BF002C0CD1306B50B9082AB5
:100BE0003BD196F83810080737D530213B2587F8D8
:100BF0003B1032E08DF800B09346204651465A46ED
:100C0000002300F035FA3032D0B26D1E3A2801953B
:100C10000DDA7A55204651465A46002300F028FA4C
:100C200004465FEA010A08BF002C05D108E09DF8E0
:100C300000001218513AECE7F16878198142DCD3D0
:100C4000BBF1080F09D196F83800010705D5785D8A
:100C5000302802D06D1E30207855C5F13C02306B33
:100C6000B26179198242F16007DA318F821A4FF648
:100C7000EF7001403262318710E000280ED596F8FF
:100C8000380000F01400102808D1736B7069316AC5
:100C90001B1A5B1A9B1A002BC8BF336203B0BDE856
:100CA000F08C2DE9D04306460F4614464FF000085D
:100CB000DFF8449012E0E00707D542464B46304645
:100CC000394600F0CBF906460F46404649464246B3
:100CD0004B4600F0C3F9641080468946002CEAD1E7
:100CE00030463946BDE8D083CBCCCC0CA086010081
:100CF0000000F03F84D7974100002440F8B5054636
:100D00000E4617461C4600205CB117F8011BB06860
:100D1000A847B06030B1F06A401CF0620020641E49
:100D2000F3D1F2BD4FF0FF30F2BD0000686A6C7481
:100D30007A4C00007072696E74665F733A20256E9B
:100D400020646973616C6C6F776564007072696EA2
:100D500074663A2062616420256E20617267756D49
:100D6000656E74007072696E74665F733A206261BA
:100D70006420257320617267756D656E74000000D4
:100D8000000000006E616E004E414E00696E66000C
:100D9000494E46003000F0B40246106895681318BA
:100DA000506803EB5004C00748BF4D44A3422DD008
:100DB00013F8016B16F0030004BF13F8010BC01CFD
:100DC00031090F2907D113F8011B0F3103E013F884
:100DD000017B05F8017B401EF9D10029E6D013F80C
:100DE000010BC6F38107032F08BF13F8017B00EB4B
:100DF0000720404228440026B71E8F421EBF10F82D
:100E0000017B05F8017B761CF6D1CFE7F0BC02F13F
:100E10000C007047C9B202788A421AB11CBF10F8A0
:100E2000012FF9E718BF0020704703685A1C0260C1
:100E30001970704780B500B906A005490B681BB151
:100E400022220021984701E000F02AFA222002BD68
:100E500038080228636F6E73747261696E7420685B
:100E6000616E646C65723A20626164206D657373B3
:100E70006167650000F10103810704D010F8011BD0
:100E8000820781B1FAD10268A2F10131914311F0D8
:100E9000803104BF50F8042FF6E709BAB1FA81F1A6
:100EA00000EBD100401CC01A70470000C9B2830794
:100EB00006D0521E22D310F8013B9942F7D11FE011
:100EC000083A13D302F1040241EA012141EA014147
:100ED00050F8043B121F21BF4B40A3F1013C2CEA08
:100EE000030C1CF0803FF3D0C9B2001F083210F889
:100EF000013B521E28BF91EA030FF8D818BF01200A
:100F0000401E704762B38B0708D0521E11F8013B98
:100F100000F8013B00F024808B07F6D1830740F0F6
:100F2000208000BF103A07D330B4B1E83810103A2F
:100F3000A0E83810F9D230BC530724BFB1E808103C
:100F4000A0E8081044BF51F8043B40F8043BD20726
:100F500024BF31F8022B20F8022B44BF0B7803701A
:100F60007047121F17D35B0009D151F8043B20F8DA
:100F7000023B1B0C121F20F8023BF6D20BE051F88B
:100F8000043B00F8013B1B0A20F8023B1B0C121F1C
:100F900000F8013BF3D238BF121D521E24BF11F8D6
:100FA000013B00F8013BF8D87047000010B514462B
:100FB00000F002F8226010BDC1F30A5343B14A00A9
:100FC00012F5001F28D2A3F2FE32A1EB02517047A6
:100FD00050EA410C20D001F0004C31EA0C01B1FA8A
:100FE00081F204BFB0FA80F3D2180B3AB2F12003B9
:100FF0002CBF00FA03F1914041EA0C013EBFC2F15F
:10100000200C20FA0CF319439040524240F2FD3379
:10101000D21A01EB035170470022704741EC110BCB
:1010200043EC102B81EE000B51EC100B704741ECA0
:10103000100BBCEEC00B10EE100A704700EE100A49
:10104000B8EE400B51EC100B704741EC110B43EC28
:10105000102B31EE400B51EC100B704741EC110B93
:1010600043EC102B21EE000B51EC100B70470000ED
:10107000BBBBE1B1B2F5803F80F07E80022A1ED971
:101080008C46B1FBF2F102FB11C31B0443EA10438F
:10109000B3FBF2FC02FB1C3380B240EA0343B3FB18
:1010A000F2F002FB103240EA0C4000237047022AA3
:1010B00005D98446B0FBF2F002FB10C270474AB17A
:1010C00005D100F0010249085FEA300070470022B4
:1010D0000023704700F0E8B80B0002000021002058
:1010E0007047904271EB030CF6D3B3F5803F2FD2DB
:1010F000F0B5B3FA83F7B1FA81F4A7F10F0E3D1BF7
:101100005340CEF1200602FA0EF2F3415340B5F1FE
:101110000F0746D80F3C2C444140C4F12006A040A4
:10112000F1414140B1FBF3F603FB1611A2FB06456A
:10113000001BA94102D2761E8018594180EA0102A3
:1011400021FA0EF362FA0EF200215A403046F0BD49
:1011500030B4B1FBF3FC03FB1C11A2FB0C45001BDC
:10116000A94103D2ACF1010C8018594130BC0246B0
:101170000B46604600217047B2F1807F65D3F0B521
:10118000B2FA82F7B1FA81F4C7F10F063D1B22FAD9
:1011900006F307F1110EF24120355A40B5F10F0761
:1011A000B8D94140C4F12006A040F1414140B1FB13
:1011B000F3FC03FB1C11A2FB0C45001BA94103D24D
:1011C000BCF1010C801859410F2F12D30F3FC903F6
:1011D00041EA5041B1FBF3F603FB1611A2FB0645B1
:1011E000D4EBC030A94102D2761E8018594146EA9C
:1011F000CC3C07B34140C7F12006B840F141414023
:10120000B1FBF3F603FB1611A2FB0645001BA94137
:1012100002D2761E8018594180EA010221FA0EF3AB
:10122000C7F1200462FA0EF20CFA07F05A402CFAC9
:1012300004F13043F0BD80EA010221FA0EF30021EF
:1012400062FA0EF260465A40F0BD8C46B1FBF2F1F4
:1012500002FB11C31B0243EA1063B3FBF2FC02FB67
:101260001C331B024CEA002043EA1063B3FBF2FC80
:1012700002FB1C331B024CEA002043EA1063B3FB61
:10128000F2FC02FB1C331B024CEA002043EA106311
:10129000B3FBF2FC02FB1C324CEA00200023704737
:1012A000012000F003B800007047000080B5AFF3E4
:1012B0000080024A11001820ABBEFBE726000200A6
:1012C000DFF8C4110868C0F34000002801D00220F4
:1012D00002E0086810F001007047DFF8B001006814
:1012E00010F0010070470000C21E022A01D3012045
:1012F00002E0C01E0860002070471CB5FF2469464C
:10130000FFF7F2FFC0B2002802D02000C0B207E011
:10131000DFF87C11009851F8200010F00100C0B2F5
:1013200016BD0000002801D0032801D3012002E0EF
:10133000401E0860002070471CB5FF246946FFF777
:10134000F1FFC0B2002802D02000C0B208E0DFF8F0
:10135000C401009909010844C06810F00100C0B23E
:1013600016BD0000DFF8BC010068800810F0010025
:10137000704738B504002000C0B2082811D3DFF848
:1013800098511822DFF89411280000F00DFC00207D
:10139000E87540F65B01DFF888010160002000F08D
:1013A0003BFCDFF8CC112000C0B251F82000C0F3A4
:1013B0000020002805D0E4B251F8240010F00F00FE
:1013C00000E0FF2032BD38B504002000C0B208287C
:1013D00011D3DFF844511822DFF84011280000F043
:1013E000E3FB0020E8754FF40961DFF83401016088
:1013F000002000F011FCDFF87801E4B250F824007E
:10140000C0F30110C0B232BDDFF868211368C3F326
:10141000072303601068C0F3C40008607047DFF85A
:1014200058211368C3F3072303601068C0F3C40096
:101430000860704738B50400072C11D3DFF8D85086
:101440001822DFF8C411280000F0AEFB0020E87578
:101450004FF4CE71DFF8C8000160002000F0DCFB23
:10146000DFF8A00150F8240010F00700010009B2D5
:10147000042907D1DFF8880150F8240010F01F007C
:1014800050F4807000B232BD24152640401526402D
:1014900040162640DFF8AC120A689103890B016000
:1014A000120E12F00102C271DFF89C1209680A00E4
:1014B000D204D20C82800A00120C02F0FF020281D8
:1014C000090C01F0FF014181DFF84011096811F0BA
:1014D0000F0202730A00C2F3031242730A00120AD7
:1014E000D204D20CC281090F11F003010174DFF89C
:1014F000601309680A00120A12F0070282710A00DA
:10150000120CD205D20D4282890F11F00101017532
:101510007047000000192640A80702281C42081046
:1015200008080228100027401CB50C006946FFF788
:10153000DBFE0100C9B2002901D0C0B217E0DFF81C
:10154000B414009851F8200010F07F012160C0F31E
:1015500004216160C0F30441A1600100090F11F092
:1015600003016173C00E10F001002073002016BD4E
:101570004012264008002040080420401CB50C0002
:101580006946FFF7CFFE0100C9B2002901D0C0B201
:1015900035E0DFF8101500980001085800F0FF0250
:1015A0002260C0F304226260C0F30442A260000F14
:1015B00010F00300207300980001084442681000F6
:1015C000C00F6073C2F30270002801D0012000E058
:1015D0000020A07322F07F4222610098000108449D
:1015E00080680100C90F21750100090E11F0010189
:1015F0006175A075000C10F00700E075002016BDA5
:10160000000126400012264080420810381526406E
:1016100080B50100DFF868051822FFF783FC01217F
:10162000DFF860050170002002BDDFF85C15096875
:10163000C90F002908D0DFF84C150978002907D117
:101640000021016003207047002101600320FAE7B8
:10165000DFF82C15096801600020F4E710B50400DC
:10166000FFF72EFE002803D10020206003200DE0AC
:10167000DFF810050078002805D0DFF80405806841
:101680002060002002E000202060032010BD000048
:10169000DFF8F0140978002905D0DFF8E414496870
:1016A0000160002002E00021016003207047DFF8A4
:1016B000DC140968C90F002908D0DFF8C8140978BC
:1016C000002907D10021016003207047002101603B
:1016D0000320FAE7DFF8A814C96801600020F4E7E6
:1016E000DFF8AC140968C90F002908D0DFF894149A
:1016F0000978002907D100210160032070470021EB
:1017000001600320FAE7DFF878140969016000201E
:10171000F4E710B50400FFF725FE002803D10020F0
:10172000206003200DE0DFF85C040078002805D07D
:10173000DFF84C0440692060002002E000202060B7
:10174000032010BD301526403415264010B50C007E
:10175000C0B2FFF76FFE00280ED0012810D002287B
:1017600012D0B0F5887F13D040F21111884213D007
:10177000B0F58A7F14D017E02000FFF756FF16E07F
:101780002000FFF785FF12E02000FFF767FF0EE063
:101790002000FFF78CFF0AE02000FFF7BAFF06E009
:1017A0002000FFF79DFF02E000202060032010BD15
:1017B00080B501000020FFF7C9FF02BD80B50322FC
:1017C000D2B2824203D200200860012003E0401C14
:1017D000C0B2FFF7BBFF02BD18B587B00400684672
:1017E000FFF7E6FF0100C9B2002903D00021216004
:1017F000C0B22BE001A8FFF74DFE9DF814000228AF
:1018000003D100982060002020E0DFF88803006802
:10181000C00F002808D0FFF760FDC0B2002807D134
:1018200000202060032011E00098206000200DE0DF
:10183000009901984143BDF80800B1FBF0F19DF813
:101840000B00401CB1FBF0F02060002008B010BD80
:101850003C152640F0B58BB005000C006946280009
:10186000C0B2FFF7ABFF0100C9B2002903D00021CD
:101870002160C0B2BCE02800C0B202284CD307A946
:101880002800C0B2401CFFF74FFEC0B2002811D0A4
:10189000DFF804631822DFF80413300000F084F945
:1018A0000020F07540F66311DFF8F40201600020BB
:1018B00000F0B2F94F492800C0B201EB800050F8A7
:1018C000080CC00F002807D09DF82900022807D176
:1018D0000098206000208BE000982060002087E0C6
:1018E000EDB26D1C2800FFF708FD0100C9B2002908
:1018F00002D0C0B2FF2803D100202060032077E08F
:101900000099079841430898B1FBF0F10998B1FBA1
:10191000F0F0206000206BE001A92800C0B2401C5C
:10192000FFF72CFEC0B2002811D0DFF86C6218223D
:10193000DFF86812300000F037F90020F07540F64B
:101940007F10DFF85C120860002000F065F9554850
:101950002900C9B209014058C00F002807D09DF8DE
:101960001000022807D100982060002040E0009875
:10197000206000203CE0EDB26D1C2800FFF7DCFC8D
:101980000100C9B2002902D0C0B2FF2803D1002053
:10199000206003202CE09DF8110001281DD1009A41
:1019A0000023019E00273F0647EA162736060598C2
:1019B000002136184F41A6FB020106FB031107FB6D
:1019C0000211029A039BA3FB0223FFF751FB000EB7
:1019D00040EA0120090E206009E000990198414386
:1019E0000298B1FBF0F10398B1FBF0F02060002009
:1019F0000BB0F0BD0016264010B50323421E0400B4
:101A0000E4B2002C03D10800FFF7E6FE0CE014005E
:101A1000DBB2E4B2A34204D31000C0B2FFF71AFF56
:101A200002E0C0B2FFF792FE10BD38B505000C0011
:101A30002800C0B2FFF79DFC0100C9B2FF2904D104
:101A40002000FFF7F2FDC0B21BE06946C0B2FFF70D
:101A5000D3FF0100C9B2002903D000212160C0B228
:101A60000FE02800C0B2FFF7AEFCC0B2002805D0DE
:101A700002280BD006D303280CD00FE0009820607A
:101A8000002032BD009840082060F9E700988008E7
:101A90002060F5E70098C0082060F1E70020206092
:101AA0000320EEE7001926401FB5040002A901201B
:101AB000FFF7BBFF0100C9B2002903D0002121605C
:101AC000C0B21AE0694601A8FFF79EFC0198002108
:101AD000421C71F1FF335B0143EAD263520100986B
:101AE000002112184B4102980021490141EAD061BE
:101AF0004001FFF7BDFA2060002004B010BD1FB503
:101B0000040002A90120FFF790FF0100C9B20029DB
:101B100003D000212160C0B21AE0694601A8FFF796
:101B20007EFC01980021421C71F1FF335B0143EA06
:101B3000D26352010098002112184B4102980021F3
:101B4000490141EAD0614001FFF792FA206000208C
:101B500004B010BD80B5DFF84C100A68C2F3032250
:101B60000E2A07D00968C1F303210D2905D1FFF71B
:101B7000C6FF02BDFFF798FFFBE70120F9E7000071
:101B8000900702284208022818152640081526400A
:101B90000C15264030152640A80702288042081060
:101BA000080802280000204001B58B071AD18307DE
:101BB00024D1121F21D351F8043BA3F1013C2CEA9C
:101BC000030C1CF0803C04BF40F8043BF1E79CFA96
:101BD0008CFCBCFA8CF1C1F118018B40CB4040F871
:101BE000043B13E0042A09D311F8013B521E00F80C
:101BF000013B5BB18B07F7D1D9E7121D5AB111F840
:101C0000013B521E00F8013B03B1F8D111001CBF8B
:101C1000002200F059F801BD01BEFEE780B523495E
:101C2000234A13688B423ED01160224909685162F1
:101C30002149916201685160416891608168D16079
:101C4000C168116101695161416991618169D16125
:101C5000C1691162F1EE101A11F0900F23D01749EB
:101C60009162016AD162416A1163816A5163C16AFA
:101C70009163016BD163416B1164816B5164C16BE2
:101C80009164016CD164416C1165816C5165C16CCA
:101C90009165016DD165416D1166816D5166C16DB2
:101CA0009166006ED06600F03EF801BDFAF9F8F7D3
:101CB0002007022828ED00E0A4A3A2A1ABAAA9A8AE
:101CC00062F30F2262F31F42401810F0030308D0A2
:101CD000C91A1FD3DB0748BF00F8012D28BF20F821
:101CE000022D130030B414461546103928BF20E9E0
:101CF0003C00FAD8490728BF20E90C0048BF40F84B
:101D0000042D890028BF20F8022D48BF00F8012DBE
:101D100030BC7047C91818BF00F8012DCB0728BF89
:101D200000F8012D7047FEE71CB50400002C01D01F
:101D3000012000E000204122DFF8C015C0B200F011
:101D4000DFFCDFF8BC0501212278D210802303FBE1
:101D50000202237813F0070311FA03F313602379C7
:101D6000DB10802202FB0300227912F0070211FA35
:101D700002F20260E06800900098421E0092002883
:101D8000FAD1DFF880252079C010802303FB0020E2
:101D9000237913F0070311FA03F30360E06800905E
:101DA0000098431E00930028FAD12378DB1080208E
:101DB00000FB0322207810F0070081401160E068EA
:101DC00000900098411E00910028FAD113BD1CB567
:101DD0000400002C01D0012000E000205522DFF893
:101DE0001C15C0B200F08CFCDFF818050121227927
:101DF000D210802303FB0202237913F0070311FAA8
:101E000003F313602378DB10802202FB03002278A7
:101E100012F0070211FA02F20260E06800900098E6
:101E2000421E00920028FAD1DFF8D4242078C01096
:101E3000802303FB0020237813F0070311FA03F338
:101E40000360E06800900098431E00930028FAD1D8
:101E50002379DB10802000FB0322207910F007009B
:101E600081401160E06800900098411E00910028B8
:101E7000FAD113BD38B504000D00002C01D00120AB
:101E800000E000206A22DFF87414C0B200F038FCD1
:101E9000DFF8702401212078C010802303FB00208C
:101EA000237813F0070311FA03F30360EDB2002D5A
:101EB0000DD02379DB108025DFF8440405FB0303F4
:101EC000207910F0070011FA00F018600AE020797C
:101ED000C010802303FB0020237913F0070311FABD
:101EE00003F30360E06800900098431E009300280D
:101EF000FAD1DFF80C342078C010802505FB0030C3
:101F0000257815F0070511FA05F50560E0680090E1
:101F10000098451E00950028FAD12578ED10802004
:101F200000FB0522207810F0070011FA00F0106085
:101F30002079C010802202FB0033207910F00700C6
:101F40008140196031BD2DE9FC410400002C01D015
:101F5000012000E000208622DFF8A013C0B200F0CC
:101F6000CFFB0025DFF89C7301262078C01080216C
:101F700001FB0070217811F0070116FA01F10160F0
:101F8000DFF87C832079C010802101FB008021795B
:101F900011F0070116FA01F10160002200216068CA
:101FA000C0B200F078FCE06800900098411E0091FB
:101FB0000028FAD12078C010802101FB0088207809
:101FC00010F0070016FA00F0C8F80000E068009072
:101FD0000098411E00910028FAD16068C0B200F05C
:101FE00048FC002800D001252178C910802000FB82
:101FF0000177207810F0070086403E60032201211F
:102000006068C0B200F047FCE06800900098411E94
:1020100000910028FAD12800C0B2BDE8F681F8B5D9
:1020200004000D00002C01D0012000E00020A822B7
:10203000DFF8C812C0B200F063FB80210800C0B214
:10204000002852D02800C0B208420DD001222079C9
:1020500010F0070082402679F6108023DFF8A002F6
:1020600003FB060632600CE00122207910F0070025
:1020700082402679F6108023DFF8880203FB0606EB
:102080003260C9B24908E068400800900098421EDA
:1020900000920028FAD10122237813F0070312FAE4
:1020A00003F32678F6108027DFF8540207FB0606B4
:1020B0003360E06800900098431E00930028FAD136
:1020C000207810F0070082402378DB108026DFF8AC
:1020D000340206FB03031A60E06840080090009891
:1020E000421E00920028FAD1A8E72000FFF72BFF3C
:1020F000012801D1002000E00120C0B2F2BD2DE98D
:10210000FC4704008A46002C01D0012000E000209A
:10211000C222DFF8E811C0B200F0F2FA002508266A
:10212000DFF8E0715FF001082078C010802101FB2A
:102130000070217811F0070118FA01F10160E068E0
:1021400000900098411E00910028FAD1DFF8B0916C
:102150002079C010802101FB0090217911F0070146
:1021600018FA01F10160002200216068C0B200F09D
:1021700092FB29E02078C010802101FB00702178BB
:1021800011F0070118FA01F10160E0680090009871
:10219000411E00910028FAD12078C010802101FB57
:1021A0000090217811F0070118FA01F10160E06850
:1021B00000900098411E00910028FAD16068C0B2DA
:1021C00000F057FB50EA45053000461EC0B200281B
:1021D000D0D12178C910802000FB0177207810F041
:1021E000070018FA00F8C7F8008003220121606890
:1021F000C0B200F050FBE06800900098411E0091D2
:102200000028FAD15146C9B22000FFF733FE28005A
:10221000C0B2BDE8F68770B504000E001500002CB2
:1022200001D0012000E000204FF49C72DFF8CC10B8
:10223000C0B200F065FA2000FFF776FD217A490070
:10224000C9B22000FFF7EBFE3100C9B22000FFF752
:10225000E6FE2900C9B22000FFF7E1FE2000FFF7EB
:10226000B6FD70BD2DE9F0410500884616001C0042
:10227000002D01D0012000E00020204F4FF4FF721C
:102280003900C0B200F03CFA002E01D0012000E07D
:10229000002040F2FF123900C0B200F031FA2800ED
:1022A000FFF742FD297A4900C9B22800FFF7B7FEBF
:1022B0004146C9B22800FFF7B2FE2800FFF734FDFF
:1022C000297A490051F00101C9B22800FFF7A7FEA1
:1022D0000BE0002104E037007E1C002CF9D1012125
:1022E000C9B22800FFF70BFF38702000441E0028F9
:1022F000F1D12800FFF76BFDBDE8F0813C430810E9
:10230000080031400400314038B504000D00002CB5
:1023100001D0012000E0002040F29F223349C0B2EA
:1023200000F0EEF900202000FFF7FEFC217A4900C2
:10233000C9B22000FFF773FE2900C9B22000FFF7E1
:102340006EFE2000FFF743FD2000FFF7EDFC217A31
:10235000490051F00101C9B22000FFF760FE0121E0
:102360002000FFF7CCFE05002000FFF730FD28001D
:10237000C0B232BD2DE9F843040088461700002C96
:1023800001D0012000E00020089D1E00DFF85C90D5
:1023900040F2BA224946C0B200F0B2F9310028003A
:1023A000C9B2C0B2814201D0012000E0002040F259
:1023B000BB224946C0B200F0A3F93000C0B2206091
:1023C0002800C0B2606084F80880E760032301221F
:1023D00001213000C0B200F086FA0323012201215E
:1023E0002800C0B200F07FFABDE8F1833C4308103A
:1023F00082B000200190002000900020019009E0B0
:102400000098401C00900098B0F5005FF8D3019848
:10241000401C01900198B0F5805F02D2002000902E
:10242000F1E702B0704780B50100002000F0E7FA44
:1024300001BD2DE9F043ADF5137D07008846160078
:102440001C000020ADF802000020ADF800000020C4
:1024500002900020ADF804000020ADF806004046D0
:10246000FEF708FD0290DFF858532888002801D0B5
:1024700028698047DFF84C030078002800F033819A
:102480002888002800F01181BDF90600411CADF834
:1024900006103A00010089B20020EB6898474746D1
:1024A0004046FEF7E7FC02906988A87991FBF0F0BE
:1024B000ADF804003800471C00780028FAD100204D
:1024C000ADF800000EE07F1E38782F2802D0387853
:1024D0005C2804D1BDF80000401CADF80000029853
:1024E000401E0290BDF80000022802DA029800287F
:1024F000E9D50298002806D47A1CDFF8CC1253A83C
:1025000000F08EFA0EE0BDF80000002805D13A0078
:10251000AE4953A800F084FA04E03A00AA4953A84F
:1025200000F07EFA0020ADF8020042E0BDF8001095
:10253000BDF80070BDF8022053AB92B2BDF90400A3
:10254000424312FA87F01A5C43A889B24254BDF89C
:102550000000401CADF80000BDF8001089B2BDF9C4
:10256000040081420EDA53A8FEF784FCBDF8003067
:10257000BDF8022092B2BDF904104A4312FA83F169
:102580008842D3D2002243A9BDF800000A54BDF905
:102590000600411CADF8061043AAE97911FB00F1D1
:1025A00089B20020EB689847BDF80200401CADF8E6
:1025B0000200BDF8027053A8FEF75CFCBDF90410E0
:1025C000B0FBF1F0401CBFB2874203D20020ADF84F
:1025D0000000C1E732007E4953A800F021FABDF99E
:1025E0000600411CADF8061053AAE97911FB00F171
:1025F00089B20020EB689847002C74D00020ADF819
:10260000020041E0BDF80010BDF80020BDF8023026
:102610009BB2BDF90400434313FA82F0205C43AA45
:1026200089B25054BDF80000401CADF80000BDF860
:10263000000080B2BDF9041088420EDA2000FEF7D7
:1026400019FCBDF80030BDF8022092B2BDF90410AB
:102650004A4312FA83F18842D4D2002043A9BDF83C
:1026600000208854BDF90600411CADF8061043AAAD
:10267000E97911FB00F189B20020EB689847BDF8B9
:102680000200401CADF80200BDF802602000FEF719
:10269000F1FBBDF90410B0FBF1F0401CB6B286426C
:1026A00021D20020ADF80000C1E74FF48071002274
:1026B0000DF10C094846FFF703FB3800A96888476D
:1026C000002C07D0009433004246424903A800F092
:1026D000A7F905E0330042463F4903A800F0A0F9FE
:1026E00003A8A96888470DF5137DBDE8F08310B5F0
:1026F00014002200D2B2002000F072F9200010BDB8
:1027000038B50C001500C0B2002803D1334800785A
:10271000002800D131BD32490878002800D0FEE7FA
:102720000878401C087000F0E5F900232A00210019
:102730002C48FFF77EFEFFF75BFEF6E710B51400AE
:102740001A00C0B2002808D11E480078002804D022
:102750000B0021002448FFF76CFE10BD0021018012
:102760004FF6FF7141808180FF218171C17100218D
:1027700081600021C1600021016170471049028819
:102780000A8042884A8082888A8082798A71C279E6
:10279000CA7182688A60C268CA60006908610121E2
:1027A00008480170704700B585B06846FFF7D6FF4E
:1027B0000E4802906846FFF7E1FF05B000BD00003B
:1027C000D8070228430802288446081058460810F3
:1027D00090460810A4450810284608101E07022835
:1027E00044080228684608109C4608102724081050
:1027F0000069C84010F001007047012212FA01F18F
:1028000081607047012212FA01F14160704710B4F3
:102810008900446C0F238B409C4312F00F0212FA84
:1028200001F12143416410BC704780B5C9B2002951
:102830000FD00100C9B2082391FBF3F203FB121180
:102840004D4BC0B2C010802250431844FFF7D5FF53
:102850000EE00100C9B2082391FBF3F203FB121151
:10286000454BC0B2C010802250431844FFF7CAFF46
:1028700001BD80B50100C9B2082391FBF3F203FB4F
:1028800012113D4BC0B2C010802250431844FFF7D4
:10289000AFFFC0B202BD10B5C9B200290BD1D2B290
:1028A000002A02D0022A02D003E00F220BE00B2202
:1028B00009E00A2207E0D2B2042A01D10C2200E08A
:1028C0000E2212F007020100C9B2082491FBF4F3B2
:1028D00004FB1311284CC0B2C0108023584320447D
:1028E000FFF795FF10BD2DE9F8418DB00500884632
:1028F00014001E00342100226F463800FFF7E0F973
:102900005FFA88F8B8F1000F0ED1F6B2002E02D0AF
:10291000022E03D005E00F2001900DE00820019069
:102920000AE00820019007E0F6B2042E02D10F2041
:10293000019001E00E2001902800C0B2C02811D003
:102940002900C9B208236A4691FBF3F003FB10117A
:10295000094E2B00DBB2DB108020434306EB030063
:1029600000F07BF92100C9B22800C0B2FFF75DFF7B
:102970000EB0BDE8F081000000003140C0F8401208
:102980007047D0F80802C005C00D7047D0F80802A3
:10299000C0F3C030704738B505002800FFF7F1FFDD
:1029A00004002800FFF7F2FF0419002C01D10120D8
:1029B00000E00020C0B232BD38B50500DFF85C4051
:1029C000C9B22800C0B254F82000FFF7D7FF280092
:1029D000C0B254F82000FFF7DEFF0028F7D031BD69
:1029E00070B506000D00140006E029783000C0B272
:1029F000FFF7E2FF641E6D1C002CF6D170BD38B5E8
:102A000005000C0005E021782800C0B2FFF7D4FFD4
:102A1000641C20780028F6D131BD00000807022888
:102A20000CB430B583B00A4606A9029104460025CD
:102A30000194009502AB01A9084878441E30FDF7C7
:102A400022FB01990D7000284EBF04460198041B1B
:102A5000204603B030BC5DF80CFB00BFCFE3FFFFA6
:102A6000010009B2002908D4012210F01F018A4098
:102A70001B4900B2400941F820207047010009B20B
:102A8000002908D4012210F01F018A40154900B224
:102A9000400941F820207047020012B2002A04D4F5
:102AA0004A01114900B20A5407E049010F4A00B235
:102AB00010F00F00104400F8041C7047002800D1EB
:102AC00062B60B490868401C0860704772B6084936
:102AD0000868002802D00868401E0860086870472F
:102AE00000E100E080E200E000E400E018ED00E03A
:102AF0003408022880B5FFF7E9FF00F0EDF801BDCA
:102B000080B5C9B200B2FFF7C7FF01BD70B50600BE
:102B10000C001500300000F0F3F82100B6F90000B9
:102B200000F02BF92900C9B2B6F90200FFF7E8FF5F
:102B3000B6F90200FFF7A2FFB6F90200FFF790FF17
:102B400070BD000030B4614B1818C009604B13EB26
:102B5000001304290DD21D681F24C8008440A5431A
:102B6000D2B212F01F02C90012FA01F12943196012
:102B70000CE00D1F5C681F21E80081408C43D2B23D
:102B800012F01F02ED00AA4022435A6030BC704789
:102B9000002A04D1012212FA01F1416003E001226E
:102BA00012FA01F18160704710B48900446C0F2360
:102BB0008B409C4312F00F0212FA01F12143416451
:102BC00010BC704710B4846C01238B409C4312F0FE
:102BD000010212FA01F12143816410BC704710B464
:102BE000C46C01238B409C4312F0010212FA01F1E4
:102BF0002143C16410BC704710B449001031C46C4B
:102C000003238B409C4312F0030212FA01F121438B
:102C1000C16410BC70474269012212FA01F141619E
:102C20004069704710B4846901238B409C4312F0C3
:102C3000010212FA01F12143816110BC704710B406
:102C40004900046C03238B409C4312F0030212FAE8
:102C500001F12143016410BC7047F8B504000F0076
:102C600015000026002C2ED0002D2CD02A6839000B
:102C70002000FFF78DFF2A7A39002000FFF762FF5E
:102C80006A6939002000FFF79DFFAA69390020001A
:102C9000FFF7A5FFEA6939002000FFF7ADFF6A687A
:102CA00039002000FFF780FFEA6839002000FFF7B5
:102CB000C6FF39002000FFF7AEFF2A693900200067
:102CC000FFF7B0FF00E0034E3000F2BD0000CFBFC1
:102CD0000000304001005A0000200BE0074980222C
:102CE00002FB00F28B5823F00043802202FB00F22B
:102CF0008B50401C3F28F1DB70470000000058401B
:102D000030B40021224A1368224A1468002830D0C7
:102D1000214A1568C5F303250E2D0ED01268C2F3A3
:102D200003220D2A26D1827812F00F0262F30304E7
:102D30000279002A14D0012213E0827812F00F02E7
:102D400062F303030279002A01D0012200E000228D
:102D500062F3DF73114AB0F9000042F8203009E055
:102D6000002262F3DF740E4AB0F9000042F82040FE
:102D700000E00649080030BC70470A4B1A68002A78
:102D800003D01A6800B242F82010704701005600C4
:102D9000DC460810E04608100000204000A020405B
:102DA00000C02040EC06022838B5D24C002020603C
:102DB000002060600020A06000252AE0CE48B0F925
:102DC000000000EE100AF8EEC00A94ED000A30EEA2
:102DD000800A84ED000AC948B0F9000000EE100A2C
:102DE000F8EEC00A94ED010A30EE800A84ED010A83
:102DF000C348B0F9000000EE100AF8EEC00A94EDE6
:102E0000020A30EE800A84ED020A052000F067FA1B
:102E10006D1C280080B2B0F57A7FCFDB94ED000AFC
:102E2000DFED830A80EE200A84ED000AD4ED010A6A
:102E30009FED7F0A80EE800A84ED010AD4ED020A3C
:102E40009FED7B0A80EE800A84ED020ABD495FF0A7
:102E50007E50086091ED000A31BD0000A9489FED49
:102E60008E0AA449A44AB2F9002000EE902AB8EED6
:102E7000E01AD1ED000A71EE600A20EE801ADFED53
:102E8000960A81EE201ADFEDB00AC1EE200AC0EDED
:102E9000030A9A4AB2F9002000EE902AB8EEE01A2E
:102EA000D1ED010A71EE600A20EE801ADFED8A0A88
:102EB00081EE201ADFEDA40AC1EE200AC0ED040A5B
:102EC0008F4AB2F9002000EE902AB8EEE01AD1ED58
:102ED000020A71EE600A20EE800ADFED7F0AC0EE82
:102EE000200A9FED990A80EE800A80ED050A70475E
:102EF00080B5FFF7B3FF8348D0ED050A9FED820A46
:102F0000F4EE400AF1EE10FA0CD5D0ED050A9FED73
:102F10007F0AF4EE400AF1EE10FA03DB7C49086800
:102F2000086005E000F010F800F084F800F0B6F852
:102F300001BD80B500F053FB41F28831002000F064
:102F4000EBFCFFF731FF01BD714890ED000AB7EED1
:102F5000C01A6C4991ED050AB7EEC03A9FED6D0BB2
:102F600023EE003B9FED6D0B23EE003B9FED6D0BC1
:102F700083EE000B31EE400BB7EEC00B80ED000A84
:102F800090ED000AB5EE400AF1EE10FA08DDD0ED42
:102F9000000A9FED670AF4EE400AF1EE10FA0FD432
:102FA00090ED000AB5EE400AF1EE10FA09D5D0ED29
:102FB000000A9FED5E0AF4EE400AF1EE10FA00DB23
:102FC00034E0D0ED000A9FED5A0AF4EE400AF1EE2B
:102FD00010FA11DBD0ED000A9FED560AF4EE400A1C
:102FE000F1EE10FA08D5D0ED000A9FED530A30EE4D
:102FF000800A80ED000A19E0D0ED000A9FED4B0A2F
:10300000F4EE400AF1EE10FA10D5D0ED000A9FED73
:103010004A0AF4EE400AF1EE10FA07DBD0ED000A9E
:103020009FED4A0A30EE800A80ED000A70470000EA
:1030300000007A44414890ED000AB7EEC01A3149C9
:1030400091ED050AB7EEC03A9FED320B23EE003B3F
:103050009FED320B23EE003B9FED320B83EE000B16
:1030600031EE400BB7EEC00B80ED000AD0ED000A48
:103070009FED300AF4EE400AF1EE10FA08DAD0EDD6
:10308000000A9FED2D0AF4EE400AF1EE10FA01D588
:103090000021016070470000DB0F4940284991ED95
:1030A000000AB7EEC01A174890ED050AB7EEC03A0D
:1030B0009FED180B23EE003B9FED180B23EE003B1A
:1030C0009FED180B83EE000B31EE400BB7EEC00BFB
:1030D00081ED000A704700000000344380B50C48C1
:1030E00090ED000AB7EEC00A53EC102B184800F020
:1030F00099FC01BDFC0702283C0802283E08022872
:1031000040080228C007022890C2753C8FC275BCD7
:103110000C0802287B14AE47E17A743F00000000DF
:1031200000806640282D4454FB210940000034C330
:10313000010034430100B4430000B4C31008022866
:103140001408022818080228CDCC64410000B443BA
:1031500078460810022801D301200FE00B00DBB2F3
:10316000042B01DB012009E0A74B03EB8000C9B26F
:10317000405C824201D3012000E000207047F8B596
:1031800004000F0015001E00022C01D301201FE0D7
:103190002A003900C9B22000FFF7DCFF012801D165
:1031A000012015E03800C0B2002814D1B6F5807FA8
:1031B0000FD296494FF40050444301EB040000EB5A
:1031C000850010F58051086866F30F200860002024
:1031D000F2BD0120FCE7FFB2012F13D1B6F5803F0D
:1031E0000ED28A494FF40050444301EB040000EB37
:1031F000850010F5A051086866F317200860E6E71F
:103200000120E5E70120E3E700B20012C0B27047F9
:10321000F8B504000E001700200000B2FFF7F4FF1D
:1032200005002800C0B2022801D3012028E03A009E
:103230003100C9B22800C0B2FFF78CFF012801D1CC
:1032400001201DE071492A00D2B24FF400504243E0
:103250000A442000C0B202EB8000D0F8002CF6B285
:1032600066F3092267F30702EDB24FF400504543BD
:1032700001EB0500E4B200EB8400C0F8002C002054
:10328000F2BD70B504000D001600022C01D3012020
:1032900024E032002900C9B22000FFF75BFF0128BB
:1032A00001D101201AE059494FF4005000FB04F00D
:1032B000085850F0004050F0407050F47F00EDB2DC
:1032C00065F3092066F307004FF4005202FB04F295
:1032D00088504FF4005044430859002070BDF8B5A1
:1032E00006004FF4FA504643494D4A4C00212A78D3
:1032F0008020424304EB020000F069FC1AE02978C8
:103300008020414304EB010000F063FCB842F6D397
:10331000414FBE1929788020414304EB010000F0A1
:1033200058FC3F1839002A788020424304EB020001
:1033300000F04DFC4CF25137BE42E0D2297880209B
:10334000414304EB010000F044FC8642F6D2F1BD9B
:1033500038B594B0502100226C462000FEF7B0FC36
:103360002E4C00220121B4F90000FFF751FFB4F9FF
:103370000000FFF749FF092300220121C0B2FFF737
:10338000FEFEB4F90000FFF73FFF00220121C0B2AA
:10339000FFF777FF5FF0FF30009000208DF804000A
:1033A00000208DF8050000208DF8060000208DF823
:1033B000080003208DF844000120129001208DF8B0
:1033C0000700134D134C69462A788020424304EBD2
:1033D000020000F03BFB29788020414304EB010010
:1033E00000F0F0FB00212A788020424304EB020029
:1033F00000F0EDFB29788020414304EB010000F050
:10340000F9FB15B030BD0000B446081000000440C0
:103410001F07022800005940B03CFFFF1C0702288C
:103420002DE9F84381460C001500002600275FEACD
:103430004909DFF81C83002217214046FEF7EBFE06
:103440004A46D2B215214046FEF7E5FE2200D2B22E
:1034500016214046FEF7DFFE2A00D2B22121404667
:10346000FEF7D9FE4C2214214046FEF7D4FE02E0BE
:103470000220FFF734FF22214046FEF745FF0006F9
:1034800006D43800471C80B2B0F5807FF0DB0126FF
:103490003000C0B2BDE8F28370B502000E00002417
:1034A0005200AB4D52F00102D2B215212800FEF7B6
:1034B000B2FE3200D2B216212800FEF7ACFE012285
:1034C00017212800FEF7A7FE4C2214212800FEF742
:1034D000A2FE02E00220FFF702FF22212800FEF7F1
:1034E00013FFC00705D42000441C80B2B0F5807FD4
:1034F000F0DB02212800FEF707FF70BD38B502009F
:103500000D005200924C52F00102D2B2152120005F
:10351000FEF781FE2A00D2B216212000FEF77BFEC4
:10352000062217212000FEF776FE6C2214212000CF
:10353000FEF771FE31BD70B500240026002507E0BE
:103540000F218348FEF7E0FE06000A20FFF7C7FEC2
:10355000F6B26B2E06D02800451C80B2B0F5807FF5
:10356000EEDB01242000C0B270BD70B5002400263F
:10357000002507E00D210D20FFF78EFF06000A2031
:10358000FFF7ADFEF6B2FF2E06D02800451C80B234
:10359000B0F5807FEEDB01242000C0B270BDE0B545
:1035A00006236A4622216A48FEF75CFE9DF8011058
:1035B0009DF8000050EA0120664908809DF803103C
:1035C0009DF8020050EA0120634908809DF805102B
:1035D0009DF8040050EA01206049088007BD7CB5D1
:1035E00000240A20FFF77BFE594D11200090122382
:1035F0003B226B212800FEF7BDFE0022012128009E
:10360000FEF709FE012212212800FEF704FE022027
:10361000FFF765FE002201212800FEF7FCFDFFF701
:103620008AFF002808D04FF4BD734D4A4D49002051
:10363000FFF784F8012487E003220D212800FEF71C
:10364000EAFD3C2210212800FEF7E5FD464E4748E2
:1036500030602000C0B2012876D05C221121280001
:10366000FEF7D9FD424870602000C0B201286BD03F
:10367000442212212800FEF7CEFD02221321280049
:10368000FEF7C9FD002214212800FEF7C4FD002228
:1036900015212800FEF7BFFD002216212800FEF7A5
:1036A000BAFD012218212800FEF7B5FD40220121B4
:1036B0002800FEF7B0FD802214212800FEF7ABFDA4
:1036C0000220FFF70CFE002214212800FEF7A3FDC4
:1036D0000220FFF704FE80220A210D20FFF7A0FE42
:1036E0000220FFF7FCFD00220A210D20FFF798FEC3
:1036F0000220FFF7F4FDFFF738FF002808D040F262
:10370000ED13174A1B490020FFF718F801241BE0AE
:10371000192209210D20FFF783FE1748B060200011
:10372000C0B2012810D001220B210D20FFF778FE36
:1037300000210D20FFF7E2FE002201212800FEF704
:103740006AFD1420FFF7CBFD2000C0B276BD00005B
:10375000EC0702283C0802283E08022840080228FC
:10376000E44208103C440810F0060228001080458E
:10377000CDCC6441EC44081000803B45022801D3C5
:1037800001200FE00B00DBB2042B01DB012009E07C
:10379000A04B03EB8000C9B2405C824201D3012000
:1037A00000E000207047F8B504000F0015001E006F
:1037B000022C01D301201FE02A003900C9B22000E9
:1037C000FFF7DCFF012801D1012015E03800C0B26D
:1037D000002814D1B6F5807F0FD28F494FF40050E6
:1037E000444301EB040000EB850010F580510868AC
:1037F00066F30F2008600020F2BD0120FCE7FFB255
:10380000012F13D1B6F5803F0ED283494FF40050FB
:10381000444301EB040000EB850010F5A05108685B
:1038200066F317200860E6E70120E5E70120E3E7FB
:1038300000B20012C0B27047F8B504000E001700C5
:10384000200000B2FFF7F4FF05002800C0B20228F4
:1038500001D3012028E03A003100C9B22800C0B2EB
:10386000FFF78CFF012801D101201DE06A492A00E1
:10387000D2B24FF4005042430A442000C0B202EBDF
:103880008000D0F8002CF6B266F3092267F3070235
:10389000EDB24FF40050454301EB0500E4B200EBFC
:1038A0008400C0F8002C0020F2BD70B504000D00AB
:1038B0001600022C01D3012024E032002900C9B2F5
:1038C0002000FFF75BFF012801D101201AE05249D7
:1038D0004FF4005000FB04F0085850F0004050F046
:1038E000407050F47F00EDB265F3092066F30700E5
:1038F0004FF4005202FB04F288504FF4005044434E
:103900000859002070BD80B5444AC0B280214843A8
:10391000104400F067F901BD70B596B004000D00C9
:103920005021002202AE3000FEF7CAF90022012128
:103930002000C0B200F2711000B2FFF77DFF20003E
:10394000C0B200F2711000B2FFF772FF092300222B
:103950000121C0B2FFF727FF2000C0B200F27110B2
:1039600000B2FFF765FF00220121C0B2FFF79DFF03
:103970002000C0B210F5D570ADF800000220ADF8FF
:10398000020001208DF80400032225482100C9B25D
:1039900050F821106846FFF7B9F8E80002900020BF
:1039A0008DF80C0000208DF80D0000208DF80E0021
:1039B00000208DF8100003208DF84C000120149099
:1039C00000208DF8540000208DF85500134D02A9F9
:1039D0002200D2B28020424305EB020000F036F80C
:1039E0002100C9B28020414305EB010000F0EAF854
:1039F0002100C9B28020414305EB010000F0FAF834
:103A0000E4B28020444305EB040000F0E4F816B073
:103A100070BD0000B446081000000440000059408A
:103A2000FC0602280EB41EB5024605A8019000242B
:103A3000009401AB0121044878440C30FCF723FBCF
:103A400003B010BC5DF810FBF90B000010B40122AC
:103A500091F84C30052B03D291F84D30052B01D352
:103A60001000A3E0002800F0A080002900F09D8055
:103A70004F4A12684B7963F392428B7913F0030338
:103A800063F311420B7A13F0070363F31A62CB79E5
:103A900063F39E720B7D63F3000291F8243063F3AD
:103AA000410202600B7910F13002146863F30704DD
:103AB00014604A79012A0BD18A79002A02D10022A6
:103AC000826007E08A79012A04D10A68826001E0F5
:103AD00001228260CA6802610A694261CA69826120
:103AE0000A6AC2610A680262324A12680B7E03F0F7
:103AF000FF0363F3070291F8303003F0FF0363F331
:103B0000174291F8403003F0FF0363F31F6291F80E
:103B1000483003F0FF0363F30F224264264A126821
:103B200091F8383003F0FF0363F3070291F828306F
:103B300003F0FF0363F30F228264204A12688B7D37
:103B400013F0030363F3010291F8253013F003032C
:103B500063F38B2291F82C3013F0030363F3051207
:103B600091F8343013F0030363F3092291F83C30E9
:103B700013F0030363F3871291F8443013F0030347
:103B800063F38302C2640E4A126891F84C3013F05A
:103B9000070363F3020291F84D3013F0070363F358
:103BA00006124265497D81670022100010BC7047F3
:103BB000E4460810E8460810EC460810F0460810E5
:103BC000F4460810016851F00041016070478160BF
:103BD00070478068704710F17801086850F0010064
:103BE0000860704710F17002116851F00101116016
:103BF000006F704710F14001086850F01000086035
:103C00007047000038B500F079F900F042F800F094
:103C1000C9F871490868800312D4BFF34F8FBFF30E
:103C20006F8F00226D480260BFF34F8FBFF36F8F1D
:103C3000086850F400300860BFF34F8FBFF36F8FF8
:103C40000868C00324D4002265480260BFF34F8F88
:103C500064480268C2F34E33C2F3C90443F6E07508
:103C600015EA431555EA84755F4805602000441E37
:103C70000028F3D11800431E0028EDD1BFF34F8F69
:103C8000086850F480300860BFF34F8FBFF36F8F28
:103C900031BD70B586B0684654491822FDF742F927
:103CA00000200AE06A460100C9B202EBC10149687E
:103CB000491C11F0070F0DD1401C0100C9B20329A6
:103CC00009D26A460100C9B212F8311011F0070F8B
:103CD000E8D0FEE7FEE7464C207810F0070F00D052
:103CE000FEE7444D2868401C10F0070F00D0FEE7A7
:103CF000002622E069463000C0B201EBC0004168F6
:103D00003000C0B252F8300000F043F814E0002058
:103D10000028EFD02168491E3000C0B252F83000B0
:103D200000F037F868463100C9B200EBC1004168C5
:103D30002868401C00F02DF8761C3000C0B2032823
:103D400025D26A463000C0B252F83000002813D0A5
:103D500020683100C9B252F8311088420AD369464E
:103D60003000C0B201EBC00041682068814201D33D
:103D70000120CDE70020CBE769463000C0B201EB5F
:103D8000C000406821688842C1D30120C0E706B066
:103D900070BD0022002302E0C0E900230830884201
:103DA000FAD3704730B4144B9B08144814490022CE
:103DB00008E01400E4B251F824501400E4B240F8D2
:103DC0002450521C15001C00EDB2E4B2A542F0D301
:103DD0000C49086030BC704714ED00E050EF00E083
:103DE00084ED00E080ED00E060EF00E0F8450810B1
:103DF000AC410810B0410810800000008008022883
:103E00000000081008ED00E010B5002143480160F3
:103E1000BFF34F8F42480168C1F34E32C1F3C9036B
:103E200043F6E07414EA421454EA83743D48046093
:103E30001800431E0028F3D11000421E0028EDD1C7
:103E4000BFF34F8FBFF36F8FBFF34F8FBFF36F8FF2
:103E5000002135480160BFF34F8FBFF36F8F00F033
:103E600001F810BD38B586B0684630491822FDF714
:103E700059F86846FDF7CCFBC0B200280DD02C4C99
:103E800018222C492000FDF78FFE0020E0754E21FE
:103E9000294801600020FDF7BFFE284C2000FDF7F7
:103EA00059FEC0B200280DD0214D1822214928000A
:103EB000FDF77AFE0020E87550211F4801600020C0
:103EC000FDF7AAFE1E49206808600A681D4882188E
:103ED0001D48B2FBF0F21D4802601D480A6802F25C
:103EE000E7324FF47A71B2FBF1F1016001684FF4EF
:103EF000004041431748016007B030BD80B500F075
:103F00002DF8154A116851F470011160BFF34F8FFD
:103F1000BFF36F8F00F026F801BD000084ED00E0D4
:103F200080ED00E074EF00E050EF00E01046081074
:103F3000A8070228B4410810080802281C08022813
:103F4000200802283F420F0040420F0028080228A4
:103F5000240802282C08022888ED00E0EFF31080E6
:103F600072B6704780F3108870470000010009B2F4
:103F7000002908D4012210F01F018A404F4900B2E5
:103F8000400941F820207047FEE780B54C480068A2
:103F90004C4801680800C00F002805D04A48890530
:103FA000890D50F8210080470020FFF7DFFF01BD99
:103FB00080B546480068464801680800C00F0028E0
:103FC00005D041488905890D50F82100804701201E
:103FD000FFF7CCFF01BD80B53E4800683E48016850
:103FE0000800C00F002805D037488905890D50F812
:103FF000210080470220FFF7B9FF01BD80B5374897
:104000000068374801680800C00F002805D02E4816
:104010008905890D50F8210080470320FFF7A6FF8E
:1040200001BD80B52F4800682F4801680800C00F07
:10403000002805D024488905890D50F821008047C3
:104040000420FFF793FF01BD80B528480068284889
:1040500001680800C00F002805D01B488905890D9C
:1040600050F8210080470520FFF780FF01BD80B593
:1040700020480068204801680800C00F002805D0CB
:1040800011488905890D50F8210080470620FFF767
:104090006DFF01BD80B51948006819480168080026
:1040A000C00F002805D008488905890D50F8210067
:1040B00080470720FFF75AFF01BD000080E200E0C3
:1040C000BC4608100001204000000228C04608102D
:1040D00004012040C446081008012040C8460810CA
:1040E0000C012040CC46081010012040D04608109A
:1040F00014012040D446081018012040D84608106A
:104100001C01204072B61D4908684FEA102000F0DB
:104110000F000E2808BF1A490D2808BF19490728A3
:1041200008BF1949082808BF1849086820F00B0083
:1041300008600868BFF34F8F154816490860BFF341
:104140004F8F1549086840F0070008601349086858
:1041500040F007000860BFF34F8FBFF36F8F002060
:104160000021124AE2E802016A45FBD10C4FB84730
:104170000C4FB8470C4FB847FEE700000000204046
:104180000C0020400C0420400C0820400C0C204067
:104190000000081008ED00E090EF00E094EF00E070
:1041A000053C081011440810DD45081000FF0728E1
:1041B000FFFF0728453A5CE6A18CE99DA25C5365A8
:1041C000656B667265655F4359543442425F4F7058
:1041D000656E736F757263655F4C69627261727947
:1041E0005C6C69627261726965735C73646B5C7448
:1041F0007669696268346D5C7372635C7379737439
:10420000656D5C73797374656D5F747669696268F6
:10421000346D5F636D372E6300000000453A5CE645
:10422000A18CE99DA25C5365656B667265655F4311
:1042300059543442425F4F70656E736F7572636597
:104240005F4C6962726172795C6C696272617269F9
:1042500065735C73646B5C747669696268346D5C09
:104260007372635C647269766572735C737973638D
:104270006C6B5C63795F737973636C6B2E680000A1
:10428000453A5CE6A18CE99DA25C5365656B66725C
:1042900065655F4359543442425F4F70656E736F7A
:1042A000757263655F4C6962726172795C6C696298
:1042B0007261726965735C73646B5C747669696260
:1042C00068346D5C7372635C647269766572735C8A
:1042D000737973636C6B5C63795F737973636C6B15
:1042E0002E630000453A5CE6A18CE99DA25C536513
:1042F000656B667265655F4359543442425F4F7027
:10430000656E736F757263655F4C69627261727915
:104310005C6C69627261726965735C7A665F646520
:10432000766963655C7A665F6465766963655F6913
:104330006D7539363372612E63000000453A5CE6D4
:10434000A18CE99DA25C5365656B667265655F43F0
:1043500059543442425F4F70656E736F7572636576
:104360005F4C6962726172795C6C696272617269D8
:1043700065735C7A665F6472697665725C7A665FA3
:104380006472697665725F736F66745F6969632EC4
:104390006300000080B50020FFF7B5FAFFF7FFF8D3
:1043A0000C48D0ED000AB7EE000AF4EE400AF1EE38
:1043B00010FA03D1FFF7F3F8FEF79AFD01BD80B5BF
:1043C0000120FFF7A0FA01BD80B50220FFF79BFA9C
:1043D00001BD00001808022830B4002412E050F893
:1043E000043BDA0744BF4B445B1E091F042943F812
:1043F000044BFAD21A468D0744BF1C80921CCB078F
:1044000048BF147050F8041B0029E8D130BC704735
:1044100010B5034A7A440832024C7C44A41D03E0E0
:10442000AC000000C800000004E01168101D114439
:1044300088470246A242F8D110BD0000494D5539C7
:10444000363352412061636320616E642067797264
:104450006F2073656C6620636865636B206572729C
:104460006F722E0080B5084800F010F8FEF79BF937
:10447000FEF75FFD0323012201219820FEF733FAA6
:10448000FEF72CFEFCE700BF80B2E60E80B50549C2
:104490000860FFF7B9FCFEF75BFF0020FEF70EFB9C
:1044A00001BD0000300802284EF68851CEF200010E
:1044B000086840F470000860BFF34F8FBFF36F8F40
:1044C0004FF00170E1EE100A704700000DFFFFFF92
:1044D000280100002007022800000000BBC8FFFFE1
:1044E000540200009A00000000000228494D55398E
:1044F00036335241206D61672073656C66206368B6
:1045000065636B206572726F722E00000420714625
:10451000084202D0EFF3098001E0EFF3088000B514
:104520000149884700BD00001D1C081080B58DF8AA
:104530000000012269460120FEF7D9F8012802D1C6
:104540009DF8000002BD4FF0FF3002BD00000000EA
:10455000801C800803D0401C801EFCD100BF704727
:10456000EFF3108072B6704780F310887047000038
:1045700000F00EF8002801D0FFF74AFFAFF30080EB
:104580000020AFF30080FFF76DFF00F003F800009C
:104590000020704700F000B807463846FCF786FE5A
:1045A000FBE700000D0A66696C65202573206C69C5
:1045B0006E652025643A2025732E0D0A0000000048
:1045C00004207146084201D0EFF30980EFF3088020
:1045D00000B50149884700BDA946081005480146B5
:1045E00003B4684680F30988AFF30080FFF75CFFEF
:1045F000FFF7BEFFA5EDF5FE00000228FFFF07282C
:1046000000000020FF3F002000000000FF3F0000EE
:1046100000127A00000000000024F4000080000076
:1046200000800000008000000D0A66696C6520258E
:1046300073206C696E652025642E0D0A0000000051
:1046400038B505460C462046FFF770FFA04218BF5C
:104650000025284632BD000066696C653A206D640D
:104660006B2F257300000000417373657274206521
:1046700072726F72000000007961773A202566201F
:104680000A00000066696C653A202573000000008E
:104690006C696E653A202564000000004C6F67204D
:1046A0006D65737361676500816911F8021CC9B299
:1046B00001607047030100001011001000000000AD
:1046C00000000000000000000000000000000000EA
:1046D00000000000000000000000000000000000DA
:1046E00000000000000000000000000000000000CA
:1046F0000000000000000000FFF7FEBFFFF706BF4C
:10470000FFF704BFFFF702BFFFF7FEBFFFF7FEBFD3
:10471000FFF7FEBFFFF7FEBFFFF7FEBFFFF7FEBFCD
:10472000FFF7FEBFFFF7FEBFFFF7FEBFFFF7FEBFBD
:10473000FFF7FEBFF002FF893F081004F1FF04F10C
:10474000FF04F1FF04F1FF04F1FF04F177041013FB
:104750000000022800108045CDCC644100803B451C
:1047600095430810BF0412C9041005000060400002
:1047700000650412640412630400046240770101BE
:104780000600000000000000000000000000000023
:104790000000000000000000000000000000000019
:1047A0000000000000000000000000000000000009
:1047B00000000000000000000000000000000000F9
:1047C00000000000000000000000000000000000E9
:1047D00000000000000000000000000000000000D9
:1047E00000000000000000000000000000000000C9
:1047F00000000000000000000000000000000000B9
:1048000000000000000000000000000000000000A8
:104810000000000000000000000000000000000098
:104820000000000000000000000000000000000088
:104830000000000000000000000000000000000078
:104840000000000000000000000000000000000068
:104850000000000000000000000000000000000058
:104860000000000000000000000000000000000048
:0A487000000000000000000000003E
:04000005100845DDBD
:00000001FF
